:020000040800F2
:1000000080090020D5000008DD370008A73100086E
:1000100000000000000000000000000000000000E0
:10002000000000000000000000000000B33C0008D9
:100030000000000000000000DF370008DD3C000881
:10004000E700000800000000E7000008E7000008E3
:10005000E7000008E7000008E7000008E1140008D6
:10006000000000002514000835140008E70000080F
:10007000E7000008E7000008E700000800000000B3
:10008000E70000080000000000000000E700000892
:1000900000000000E7000008E7000008E700000893
:1000A000E7000008E7000008E7000008E700000894
:1000B000E94300080000000000000000000000000C
:1000C0000348854600F0D6FF004800477D4F0008F2
:1000D000800900200448804704480047FEE7FEE707
:1000E000FEE7FEE7FEE7FEE74D3D0008C100000821
:1000F00003460B439B0703D009E008C9121F08C041
:10010000042AFAD203E00B780370401C491C521EEB
:10011000F9D27047D2B201E00270401C491EFBD2F6
:1001200070470022F6E710B513460A460446194602
:10013000FFF7F0FF204610BD0FB400B58DB0099059
:100140000B9010A900200091C0430A9000200C9051
:1001500006480690064807906A4609A80F9900F0DD
:1001600075FE0DB008BC04B0184700006D0E000805
:100170008D0E0008FFB50027FF4383B000205C68A8
:1001800001909E681D46A9697F1C049888470090CD
:10019000296A88470028F6D10098401C0CD003201B
:1001A00040028443002E19DD600614D500982B28E8
:1001B00009D02D280FD103E00020C04307B0F0BDC7
:1001C000012080020443A9697F1C04988847761E99
:1001D0000090002E02DD0098302803D005980028FA
:1001E00025D035E0012040020443A969761E7F1C1A
:1001F000049888470090002E03DD782805D0582801
:1002000003D00598002810D022E00598002801D0DE
:1002100010281DD1012040028443A969761E7F1C4D
:10022000049888470090102002E0082000E00A208F
:1002300005900DE0012149020C43059A0199761EB3
:10024000514308180190A9697F1C049888470090C1
:10025000002E05DD0599009800F0E3FD0028E9DA9D
:10026000E96904988847A00502D40120C043A5E7A6
:10027000E00722D1600611D56005019800D5404203
:1002800029680A1D2A600968220501D5087014E052
:10029000220701D5088010E008600EE02868011DE3
:1002A00029600068210502D50199017005E0210748
:1002B000019901D5018000E0016038467EE7FFB575
:1002C000002083B000905068019091691446002688
:1002D00097680498884705460C990698084305D006
:1002E00009E0A169761C049888470546216A2846DA
:1002F00088470028F5D1681C03D00198C00704D0B6
:1003000017E00020C04307B0F0BD2068011D216048
:10031000006800900DE00198C00704D100980570B6
:100320000098401C0090A169761C7F1E04988847A5
:100330000546002F1CDD681C1AD0069800280FD037
:10034000E817C00E401941118A000699400951185A
:1003500040012A1A0968012090400142DBD107E0E0
:100360000C980028D7D1216A284688470028D2D087
:10037000E169049888470C98002807D1002E05DD14
:100380000198C00702D1009800210170A068B8420E
:1003900004DD0C98002804D0002F02D00120C043B7
:1003A000B1E73046AFE70000FFB5087889B01546E1
:1003B000FF2805D0491C2D2804D00022002407E086
:1003C00000240BE00122F9E70A235C430419491CCD
:1003D0000878FF28F8D1002A00D064420020049059
:1003E0002A7801462D2A01D02B2A0FD16D1C2D2AE7
:1003F00002D00022049209E00122FBE700260A2233
:1004000033466D1C00F0D2FC381871412F78FF2F55
:10041000F4D10C9AA218069202460A4304D0FF2394
:10042000069A9133DA4205DA002109980A4606C095
:100430000DB0F0BD0024B74AB54D2646079200F036
:10044000D7FD029006980391002801DA474200E0A8
:10045000074639050020AF4A001C51410191009028
:1004600012E0F80707D022462B463046079900F0E5
:10047000DBFA0646079122462B461046194600F045
:10048000D3FA04460D467F10002FEAD10698019B4F
:100490000028009A0399029806DA00F02DFB3246F4
:1004A000079B00F029FB05E000F0BEFA3246079BEF
:1004B00000F0BAFA049A002A02D00122D207514071
:1004C000099A03C2B4E7FFB591B000200990002556
:1004D000ED432E209E685C681F460190B9696D1C33
:1004E000129888470090396A88470028F6D100980A
:1004F000401C0AD00D20C0018443002E12DD00985C
:100500002B2809D02D280DD103E00020C04315B0C1
:10051000F0BD012080020443B9696D1C1298884720
:10052000761E009003A9600501D52D2000E02B2048
:100530006A461073491C0CA80F9102900AE0B96931
:100540006D1C1298884700900120400204431398C4
:10055000761E0560002E02DD00983028EFD001994C
:100560000098884245D18020044308E00998401E45
:1005700009900120400204431399681C0860B9697E
:100580006D1C761E1298884700903028EED030E01F
:100590000199884205D1200603D480200443761EA9
:1005A0001DE0009804F070FE002825D001214902CA
:1005B0000C43009807AA0F9903323038761E9142F7
:1005C00008D208700F98401C0F90200607D5099894
:1005D000401E03E0200602D40998401C0990A005A3
:1005E00002D51399681C0860B9696D1C1298884778
:1005F0000090002ECCDC59E0002E57DD00986528D5
:1006000001D0452852D1A00550D5032000028443D3
:10061000B9696D1C761E129888470090002E0CDD7B
:100620002B2804D02D2808D1FF2001300443B969BC
:100630006D1C12988847761E0090E00501D52D218B
:1006400000E02B21029801700298401C029001905A
:1006500025E00120400204430EA902980131761ED4
:1006600088420ED20098029930380006000E0870B9
:1006700003D10299019881420AD90298401C029044
:1006800006E0E00501D5244801E0234840420990F6
:10069000B9696D1C12988847009013980560002E68
:1006A00004DD009804F0F0FD0028D2D1F969129819
:1006B00088470F99FF200870029903AA087000204C
:1006C0000A900B900CA90AA8099BFFF76DFEA005E4
:1006D00002D40120C0431AE72420044209D0E007D5
:1006E00013D138680B9A0A99031D3B60006806C055
:1006F0000BE00B990A9800F0EEFA0146E00704D1EE
:100700003868021D3A60006801602846FFE6000074
:10071000000014400000F03FF1D8FFFFF8B502469A
:100720004A40D40F42004B0052085B089A4202D262
:100730000246084611464A0023D0C30D4A00DDB2E6
:10074000120EAD1A202D35DA49020126490AF605A6
:100750008A19002C00D0524220214F1B1146B9406B
:100760002A411018C20D9A4221D0002C17D0012D19
:1007700008DCDA05801AD20F8019D207DBB200F04C
:100780009FFBF8BDDA05801A012340001B06C01844
:1007900080185A428018CA0F1043490007E04908E0
:1007A000C2071143DA05801A80194008801800F04A
:1007B0007FFBF8BD61000122511A001BF7E70122FF
:1007C000D2075140AAE70122D2075040A6E70246CD
:1007D00070B54A40D30FDB0740002DD04A002AD025
:1007E000010E140E000212020919400A520A84185E
:1007F000E50104465443000A120A2E045043A4198A
:100800004219200CC543AA18120C0125AD03521C35
:10081000521912047F39240400D0521C104301D411
:100820004000491EC2B20C06C0092018401C4008F6
:10083000802A02D003E0002070BD4008400000295B
:1008400000DA0020184370BD70B502464A40D50F4B
:1008500040004A00ED0740085208002814D0002A42
:1008600012D0C40DD30D41020120C0055202490A25
:10087000520AE41A091812187D34914201D3641CFB
:1008800000E04900002C01DA002070BD00239142F5
:1008900001D3891A0343400849000028F7D10029F1
:1008A0000AD0914202D10121C90705E0914201D24B
:1008B000012101E00121C943E005C018401900F001
:1008C000F7FA70BDF0B507460846584087B0C00F2C
:1008D000049048000E46590040084908BC1A884157
:1008E00005D2384631461E4617460B46024658008A
:1008F000400810434CD0300D039040055900400D86
:10090000490D0590401A0290402872DA180301211F
:10091000000B09050843019004980092002805D0B7
:100920000199524200208841009201900298402192
:100930000A1A0199009800F051FA05460C466B46D8
:1009400007CB00F05BFAC0197141039A0E0D00232A
:10095000D71756401A467A40164344D0049A002AC4
:100960002DD0029A012A039A15DC1205C01A914172
:1009700001263605001C7141D20F059ED207009357
:10098000019202962A46234600F0E0FA07B0F0BD35
:1009900038463146FAE71605224A0F46B218C01A01
:1009A000B74101210905001C4F4100187F41114644
:1009B00018187941E20F10436D19644113E0E20702
:1009C0006D0815436408C2071443039A01261205F3
:1009D000C01A91413605001C7141CE0740083043D2
:1009E0004908C01851412A46234600F0A2FACDE733
:1009F000FFE7049801224000C117121A00238B411F
:100A000004983146C417381AA141EEE730B40124E6
:100A1000E407634030BC55E730B40124E40761408B
:100A200030BC4FE70000E0FFF0B51FB488B00B9971
:100A30000998002448400999C00F490049080991C4
:100A4000C0070B990090490049080B910999089833
:100A5000A64608431CD00B990A98084318D0099859
:100A600001244000420D4800410D0998240500036F
:100A7000000B204309900B980003000B20430B90C0
:100A800050181C494018002201901446104605E0F9
:100A9000002001460DB0F0BD032801DA034600E056
:100AA00003239C46C11A0AAE0AE05F0008ADED5B65
:100AB0004F00F75B7D430027AA187C41491C5B1E51
:100AC0006145F2DD410004AB5A522104120C0A4385
:100AD000240C401C0828DFDB019802900099704626
:100AE00001910090059B049A0799069800F02EFA50
:100AF000D0E700000DFCFFFFF0B50C465C4085B070
:100B0000E40FE40703944C0000266408590094465F
:100B1000490802460296224321D062460A431ED06B
:100B20006200570D4A000E032303550D01240246AF
:100B30002C492405781B1B0B360B401823432643F6
:100B4000614600901C46501AB44103D30098401CE3
:100B5000009002E0921800985B41002803DA002020
:100B6000014605B0F0BD0020012109050746864673
:100B700011E064461D46141BB54106D36546521B61
:100B8000B341744607430C43A646CD0740084908C5
:100B9000284392185B4105460D43EAD1104618439D
:100BA00013D06046194650407140084306D0604655
:100BB000101AB34106D20122002306E000220123CD
:100BC000DB0702E00122D24353100098744601056E
:100BD000381C6141029C039D0019694100F0A9F98C
:100BE000BFE70000FD0300000122D207002800DB60
:100BF000101A002900DB511A814201D201207047EE
:100C0000002070470122D207002800DB101A0029BB
:100C100000DB511A814201D3012070470020704748
:100C20000122D207002800DB101A002900DB511A2C
:100C3000814201D10120704700207047C217C10FC7
:100C4000504010B54018CA079623002100F038F92B
:100C500010BD00000EB5C217C10F5040CA074018A2
:100C60000021054B0293019200910A460B4600F0C9
:100C70006DF903B000BD000033040000C20F410055
:100C800040020123400ADB05D207090EC0187F2964
:100C900001DA00207047962903DC9623591AC840D0
:100CA00001E096398840002AF4D040427047C20FD4
:100CB000D207400040080BD0C10D0723DB01C91843
:100CC00040020905400A1143C2084007114370471A
:100CD000002001467047CB0FDB07490010B54908DB
:100CE00002460A4307D00A0D07240903E401090B51
:100CF000121B002A01DC002010BDC900440F0C4368
:100D0000C100E018D205801800F0D2F810BD70B50F
:100D10000446002903D000202022012310E00028EF
:100D200001D00020C043C046C0460DE02546D54056
:100D30008D4205D30D469540641B1D4695404019D4
:100D40001546521E002DF1DC214670BDF0B51FB4D2
:100D50000646002082B005464024019100901BE029
:100D6000019922460F46304600F096F9049A059BF9
:100D7000801A994110D310461946224600F02EF8E9
:100D8000361A8F410197224601200021009F00F072
:100D900025F838184D4100902046641E0028DFDCFD
:100DA000019B00982946324607B0F0BD30B5434359
:100DB00051435C18010C130C0D465D432C1980B295
:100DC00092B20546554351430A0C09044D1962413C
:100DD0005843010C00044019514130BD10B5202A80
:100DE00004DB0146203A9140002010BD91402023B1
:100DF0009C1A0346E3401943904010BD10B5202AC9
:100E000006DBCB170846203A1041C1170B4306E01A
:100E10000B461341D0402024A21A914008431946A2
:100E200010BD3A2800D23038202302469A43412A86
:100E300001D310463738884201D30020C0437047A1
:100E400002681378511801601846704710B5D160D8
:100E5000044951610449116200211161114600F0F9
:100E600033F910BD410E0008BB1000084268002A8B
:100E700008D001680B78491C002B03D0521E06C015
:100E8000184670470121C160881E70474268002AD9
:100E90000BD0C3680168002B07D183688B4204D054
:100EA000491E521C06C0002070470020C0437047F6
:100EB000002904DA401C490001D140084000704775
:100EC00070B40024050C05D11024000402D10029BF
:100ED00021D01124050E01D100020834050F01D1E3
:100EE0000001241D850F01D18000A41C002801DB16
:100EF0004000641C002908D020252E1B0D46F5401B
:100F0000A14000D001212943084301061B1B000A10
:100F1000DB1D02D5002070BC7047DB051818801857
:100F20000029F8DA401C4900F5D170BC40084000A7
:100F3000704710B5002B08DA0024401C614192185C
:100F40005B411A4301D14008400010BDF0B51FB409
:100F500082B005460C0003D0084604F0B5F802E064
:100F600004F0B2F820300246009021462846FFF7F0
:100F700035FF049B059A04460F4618431143084366
:100F800014D0184610431BD0009840210A1A184666
:100F9000059900F081F805460E46009A05990498D7
:100FA000FFF71CFF084305D0012004E02046394626
:100FB00007B0F0BD0020C11705430E432C43374353
:100FC00000990E986305401A7905E40A00220C4343
:100FD000FD0A0A3002D500200146E9E70105101993
:100FE00069410C9C0D9D00196941FFF7A2FFDFE7E5
:100FF0000EB5054A02920022009213460192FFF7B5
:10100000A5FF03B000BD0000330400004A0009033F
:101010000123090B1B0519430A4B10B5520D9A42C7
:1010200002DA0020014610BD064B34339A4203DC3D
:101030009A1A00F031F810BD034BD218FFF7CEFE1C
:1010400010BD0000FF030000CDFBFFFF10B500291D
:1010500004DB0124E40740428C412146002B04DBE1
:101060001C460123DB075242A341994200D1904222
:1010700010BD0000064C0125064E05E0E36807CCD4
:101080002B430C3C98471034B442F7D3FFF71CF8BD
:10109000A46F0008C46F000810B5202A04DB0846BE
:1010A000203AD040002110BD0B46D340D040202430
:1010B000A21A91400843194610BD10B50F21C0B2C5
:1010C000490200F09DF910BDF3B58DB000200A90E3
:1010D00001200B90002608460C300C4609906269EE
:1010E000012109989047051E2ED0252D2DD0216A6B
:1010F0008847002818D06269012109989047216A21
:1011000088470028F7D1411E62690998904700E09E
:10111000761CA1690D988847216A88470028F7D175
:10112000E1690D988847DAE7A1690D988847074675
:10113000A84201D1761CD2E7E1690D9888477F1C4F
:1011400002D10A98002877D049E1002762693D461C
:101150003946099890472A280CD1626901210998DB
:101160009047012506E00A214F433F18303FEBD45A
:1011700010200543626901210998904701463039E2
:101180000A2903D29B498F42DEDCECE7E90600D452
:10119000994F6C280AD04C2810D0682824D06A288F
:1011A0002ED074280CD07A280AD00DE06269012173
:1011B000099890476C2823D004211CE02020054387
:1011C0006269012109989047A760656065284FD042
:1011D00026DC582839D01ADC452849D012DC2528CD
:1011E00034D04128B0D143E0626901210998904789
:1011F000682802D008210D43E6E70120C002DEE79F
:101200000220DCE7462833D047282CD130E05B2889
:1012100070D061282CD063286CD0642823D161E081
:101220006F284FD009DC662822D0672820D0692893
:1012300026D06E2817D12EE0CDE070284DD073282F
:101240006FD075284ED078280DD154E0A1690D9843
:1012500088470546252800D16CE7E1690D98884745
:101260006D1C00D16DE7BAE00A224CE00A2252E080
:10127000012023466A46C0430D99FFF724F9A3E0F5
:101280002846402108436060A807234601D5002274
:1012900039E000223FE0E80700D020E72068011D88
:1012A00021600068290501D5067018E7290701D5D6
:1012B000068014E7A90703D5F117066041600EE721
:1012C00006600CE72846402108436060A8072346D3
:1012D00001D5082217E008221DE0484928460840A9
:1012E000606016E02846402108436060A807234656
:1012F000BCD5B9E715E02846402108436060A8073F
:1013000007D5234610220120C0430D99C046C04690
:101310005AE0234610220120C0430D99FEF72AFF10
:1013200052E000210C910B460091632802D05B280B
:1013300007D043E0E80601D40120A060012000901E
:101340003CE062690121099890475E2805D101209F
:101350000C9001466269099890472169002906D1DD
:101360000B4601AA8F00491CD3510829FADB00283B
:1013700035D0216900290ED1C117C90E09184A11AB
:10138000930001AA9A1849094901411A01201368DA
:1013900088400343136062690121099890475D28E2
:1013A000E5D10C98002808D0002001AB81005A58E4
:1013B000401CD2435A500828F8DB01AB01202246DA
:1013C000C0430D99FEF77BFF00280ADA401C06D1C6
:1013D0000B98002803D00020C0430FB0F0BD0A983E
:1013E000FBE7E90702D10A99491C0A913618002047
:1013F0000B9074E6CCCCCC0CFFFFFF7FF1F7FFFF26
:101400007F2801D9002207E0054B42089A5CC007FB
:1014100000D112091207120F0120904008407047B6
:10142000DA59000880B5024800F05AFB80BDC0467A
:10143000F001002080B5024800F052FB80BDC0469C
:101440009401002010B504460948216C0918803029
:10145000032291436164A064207808381421FFF7C7
:1014600056FC1F21014001208840E06410BDC046A9
:101470000008024010B5084942683F2313405A1E35
:101480000323134001249C4092005218403102650E
:101490004165846510BDC0460009024070B5846C8A
:1014A000C56C6560046D002C02D0446D856D65606F
:1014B000046C1C2525400124AC40084D2E682643B1
:1014C0002E600468636080681028134600D00B46C5
:1014D000A360102800D01146E16070BD04000240F6
:1014E00010B50124600200F007FCE00300F004FCEA
:1014F00010BDEFF3108072B6FEE70000F0B587B0C4
:101500000C460546002106915420285C012801D193
:1015100002260FE005912F46543701263E702868B9
:1015200001F06EFE002808D0A86D20210143A965B6
:1015300005993970304607B0F0BD28696168022905
:101540001DD1042108437249884203D121682868CB
:1015500001F062FE206800260028E9D501F03EFE79
:1015600021686D4A914200D190E06C4A914200D1CD
:101570008FE0684A9142DBD10121C9058BE0042646
:101580003043634A90422ED12168286801F03CFE26
:10159000A2682168286801F055FE2068002600280E
:1015A000C6D5012501F01AFE21685A4A91425FD141
:1015B000EA05034613405BD1104301F04FFEDC48BF
:1015C0000068DC49FFF7A3FB0C2141430C31069175
:1015D00006980028ACD005990698401E06900698FB
:1015E0000028F9D1A5E71F2008400F23029383406C
:1015F0002A6E9A43049222685303039243D00193C4
:10160000D307059B5DD1039A930755D4530755D44F
:10161000130755D4D306334653D4039A93065ED4A6
:1016200053065ED413065ED4039AD3055DD4039AA1
:1016300093055CD4039A53055BD4039A13055AD4DB
:10164000039AD30459D4039A930458D4039A5304A5
:1016500057D4039A1304029B33D4039AD30352D46E
:10166000039A930351D4019AD6171223334028E0EA
:10167000294A914213D12A06034613400FD1104341
:1016800001F0ECFD54E75300DB0E1AE001210906DE
:1016900001E001218905884301F0E0FD48E71F4A88
:1016A000914200D044E7A90502460A4000D03FE736
:1016B000084301F0D3FD3BE7012302E0022300E0F1
:1016C00003238340049803432B668808EA69824217
:1016D00000D85DE72868039A01F0A8FD58E70523C4
:1016E000EFE70623EDE70723EBE70823E9E7092304
:1016F000E7E70A23E5E70B23E3E70C23E1E70D2304
:10170000DFE70E23DDE71023DBE71123D9E7C0462F
:1017100004000080001000B0004000B8002000B4B9
:10172000F0B589B00024089400282BD00546806DC0
:10173000002807D12E465436284600F005F900202F
:101740003070E865286801F057FD00281CD0286833
:1017500001F052FD002807D1A86D10210143A965B1
:10176000E86D01242043E8652F465837286801F0CA
:1017700047FDA96D102211400143A86D15D01043FB
:10178000012479E0012478E0286801F01DFD684813
:1017900000686849FFF7BBFA4000801C0890089871
:1017A0000028D4D00898401EF8E706920F21059132
:1017B000C9430791F3390840801CA865286801F0E7
:1017C00017FD002816D06A6B28680021059101F0EA
:1017D0004FFDAA6B28685B4901F04AFD2869012684
:1017E0007105884222D000282DD12868816A079A85
:1017F000114326E02A462032286B411E884103030C
:10180000A868297E89030143687EC6030E43A87E2B
:10181000029040033043E968014319430126F00771
:101820002B69002B03902BDA83432AE02868816A16
:10183000E96989001C311C220A40079B9340296EEC
:10184000194328300160286801F0CEFC696B88429A
:1018500007D10598E865A96D012008430221884356
:101860000AE0A86D0699084302218843A865E86D3F
:1018700030435C352F4634463860204609B0F0BD11
:1018800073051943107B43000B43107801280CD1DA
:101890000298002807D0A86D20210143A965E86DB2
:1018A0003043E86501E030040343686A0028049689
:1018B00005D00721890108401843AB6A0343296812
:1018C000C8681D4E06401E43CE60032080076E6828
:1018D000334602900340E86C127F0343012A0CD187
:1018E000286C6A6C0092AA6C01921843009A10430B
:1018F000019A1043049A1043034608690F4A0240B4
:101900001A430A610398864200D15CE70298864236
:1019100000D158E704988007864200D153E7059824
:101920008004064006490A688243901908604AE725
:1019300064000020400D03000102FEFF02FCFF1FB7
:101940000827014004FFFF07F0B58DB000260C9674
:101950000B960A960996089607960696059604969B
:1019600003960296026822498A4201D00DB0F0BD6A
:10197000009006960127B803029002A800F02EFB03
:10198000002801D0FFF7B5FD1A48C16808973A054D
:101990001143C160C1681140019101990168394347
:1019A00001600068384001900A9603200990019870
:1019B0000524200708A900F0B5F90F4D2E6220205C
:1019C000B9023A0280230D4F2F606C60AE60EE606A
:1019D0002B616A61A961E861284600F0DDF8002802
:1019E00001D0FFF786FD0098A86205650DB0F0BD37
:1019F0000024014034100240940100201C000240E9
:101A000070B500282AD0014624314A78022A27D10D
:101A1000046822680E239A432260426C15682F4B9B
:101A20001D4015602568012295432560046C1C2526
:101A300025401446AC40574D2E6826432E60846CDA
:101A4000C56C6560046D002C05D025681D402560BF
:101A5000436D806D58604A70002004E0012070BD25
:101A60000422C263012000220A7070BD70B52521D6
:101A7000415C02292DD10146243103681A680E24E5
:101A8000A2431A601C68012294431C60446C2568C0
:101A9000124B1D402560046C1C2525401446AC40AB
:101AA0003C4D2E6826432E60846CC56C6560046DC9
:101AB000002C05D025681D402560436D846D5C6059
:101AC00000240C704A70816B002900D088472046A2
:101AD00070BD0421C1630124204670BDFFFEFFFFDD
:101AE000F0B581B0016C1C240C402A490A1F15680E
:101AF00002681668730714D504210F46A7403B46B9
:101B00002B400ED013689B0602D413688B431360DE
:101B1000204A116839431160016B00291CD101B0C2
:101B2000F0BD03462433B10719D50227A740394633
:101B3000294014D01168890605D411680A24A143EC
:101B400011600121597000211970124A116839433E
:101B50001160C16A0029E2D0884701B0F0BD3107A9
:101B6000DDD50821A1402940D9D011680E25A9430F
:101B7000116001210A46A240064D2C6814432C60D6
:101B8000C16300221A705970416B0029C7D0884781
:101B900001B0F0BD04000240F0B583B0002843D08E
:101BA00004460146243102200291487026683068BC
:101BB000244901403160244830181421FFF7A7F868
:101BC00080002064A16827460C378DCFE569009519
:101BD000256A019508431043184338430099084388
:101BE000019908433168014331602046FFF72AFC20
:101BF0000126B003A168814201D1002060606068C5
:101C00003F210140626C1160A16CE26C4A60401E91
:101C100003280CD82046FFF72DFC206D0021016021
:101C2000606DA16D416006E0012003B0F0BD0020B1
:101C300020656065A0650020E063029908704E7021
:101C400003B0F0BD0F80FFFFF8FFFDBFF0B581B01E
:101C500005462420285C012801D1022437E02846CB
:101C60002430012404704678012E12D102244470DD
:101C70000024EC63286807680126B74307602846FC
:101C8000FFF70CFC286801682A6B002A06D00E2298
:101C900009E0002101708020E86318E004229143EC
:101CA000016002680A21114301603002696C0A6810
:101CB000D20302D50A6802430A60296D002902D0C6
:101CC0000A6802430A6028680168314301602046BF
:101CD00001B0F0BDB0B5044600F0F8F80546601C50
:101CE00002D09B480078041900F0F0F8401BA04295
:101CF000FAD3B0BD70470000B0B50446074D286860
:101D0000204203D02C60204600F00AF86868204288
:101D100003D06C602046FFF7EDFFB0BD0C18024009
:101D200070470000F0B588B00B460968002900D163
:101D3000B7E002465C48824201D0052000E0032063
:101D40000090012400200546069007460194079262
:101D50000FE03843039F5649086019680846E04081
:101D6000069E361D0696AD1C0837641C002800D15F
:101D700097E0661E01980596B04001400291ECD0B4
:101D8000039719465B6803261F46049637407E1E5C
:101D9000012E13D8049EAE40079A9268B243CE68D3
:101DA000AE401643079A9660DA06D20F059B9A401A
:101DB000079B5B6883431343079A5360032F0B46CB
:101DC000049E1ED03046A840079AD2688243986885
:101DD000A8401043079AD060022F12D11C20069A07
:101DE00010400F268640059AD2089200079B9A1849
:101DF000136AB3430E6986401E430B461662049E67
:101E0000079A3046A84011688143586882033040E1
:101E1000A840084307990860900F079A039F9CD039
:101E2000182139400F208840059FB7431F4EF619EF
:101E3000376E874360360520000782420AD01D486E
:101E4000824205D01C488242009804D1022002E060
:101E5000012000E0002088403843306013480068CB
:101E60005E68F10202D5029F384301E0029FB84349
:101E70000E4908604868B10201D5384300E0B84314
:101E80000A4948600A484068B10301D5384300E078
:101E9000B843074948600868F10300D559E7B843DB
:101EA00058E708B0F0BDC046000C005000180240D2
:101EB000801802400004005000080050002A02D0A0
:101EC00018228150704728228150704705480068C9
:101ED0007047C0461E48007802490A68101808601A
:101EE0007047C0467805002010B501242002F4494F
:101EF0000A6802430A60032000F00AF8002801D0B3
:101F0000204610BD00F026F80024204610BDC04633
:101F1000B0B505460E4801780124002916D07D2071
:101F2000C000FEF7F4FE0146EB480068FEF7EFFE46
:101F300000F0A6FD032D09D8002807D10024E043B6
:101F40002946224600F020F8E04805602046B0BD52
:101F50006800002082B009484168012211434160B5
:101F60004168114001910199110702680A4302601A
:101F7000006808400090009802B070473C10024092
:101F800080B502F037FA80BD80B502F03FFA80BD1F
:101F9000F0B581B0032569026E4E32688A43024370
:101FA000326001214A020024904212D1CA480268DC
:101FB000706940050DD58F02062050430649FEF793
:101FC000A6FE801C401E03D071693942FAD100E0A0
:101FD0002C46204601B0F0BD40420F00F0B587B05E
:101FE0000646807880075A4F01D400253EE00596CA
:101FF00001221107203F38680840049006D1386854
:1020000008433860386808400690069802970391A4
:10201000019216024F4C206830432060FFF756FFB4
:1020200005462768374006D1FFF750FF401B0328BD
:10203000F7D3032500E00025059E002F01D1444F72
:102040000CE003242102424F3868084055D07269E1
:10205000904256D1C00761D1002D70D0049800285D
:1020600004D1029A10680399884310603068C10750
:1020700007D0394608390A6803239A437368134323
:102080000B60810608D5032109033A46083A136814
:102090008B43B168194311600121420417D53A46B8
:1020A000083A13682D4C23400C46294635463669BC
:1020B00033431360294A521C96422E460D46214650
:1020C00005D10A043B46503B1C6814431C600005C4
:1020D00010D58803032292033B46083B1C689443B7
:1020E000F26814431C60824204D10804503F3968EE
:1020F00001433960284607B0F0BD0020C007ABD0CF
:102100000CE03868019A12043B6813433B603B685B
:1021100093433B6088433860C0079DD00194FFF72C
:10212000D5FE06460C4C3868800705D4FFF7CEFE76
:10213000801BA042F7D3019D059E002D8ED1032068
:10214000000239688143706908433860002585E7DB
:102150005C1002400070004089130000FFFFFF3F49
:10216000F0B583B00D460121002800D1A5E0019112
:1021700002905348006807242040A84214D25049D6
:102180000868A043284308604E4EFFF79FFE0746AD
:102190004B4800682040A84206D0FFF797FEC01BBE
:1021A000B042F5D9032188E0029B18688107734E7D
:1021B0000CD5410703D5210332680A4332600F2151
:1021C000090232688A43996811433160C00719D106
:1021D0003B4800682040A84229D939490868A043F3
:1021E00028430860374FFFF771FE06463448006801
:1021F0002040A8421BD0FFF769FE801BB842F5D9EA
:1022000003215AE0586803282FD8810001A25158B1
:102210005A4A8F4625220008712200087B220008B6
:102220008522000811460839096849052CE0029A00
:1022300010784007514D05D5200329688143D068A7
:102240000843286000F05CF8296889093C220A40AC
:102250001D4989581F220A40D0401F4908601B4869
:102260000068FFF755FE014627E0444A516D0AE039
:10227000114608390968890306E0114608390968DA
:10228000890101E0916D8907019916D51168A14373
:10229000014311600B4FFFF719FE064637480068EF
:1022A0003821014002984068C000814290D0FFF779
:1022B0000DFE801BB842F1D90321084603B0F0BDE2
:1022C00000200240881300001C5A00086C00002007
:1022D000014800687047C0466400002010B5FFF751
:1022E000F7FF044600F0CEFF000B800003490858BA
:1022F0001F210140CC40204610BDC0465C5A00085A
:1023000010B51E4C20688006400F06D02268382188
:102310000A401B48082A07D110BD083C20688004E9
:10232000410F1848C84010BD22680A40102A15D134
:10233000616803220A40032A00D0124861684906F6
:10234000490F491CFEF7E3FC61684904490E484304
:102350006168490F491CFEF7DAFC10BD206808408F
:10236000202802D10120C00310BD20680840182891
:1023700001D0002010BD7D20000210BD08100240D9
:1023800000127A000024F400F0B587B0012700287D
:1023900000D1F8E1049705900078C007FD4E2CD1DC
:1023A0000598007880074CD40598007800070DD573
:1023B000B06838210140182900D0A6E0306E8007AF
:1023C00004D505988069002800D1E1E105980078DE
:1023D000400700D45FE1B06838210140202900D0D7
:1023E000AAE0F06D800700D452E1059880680028CB
:1023F00000D04DE1002001274BE1B068F1680327D0
:102400003A468A4338210140102048408218504201
:102410005041082945D0002843D10598426805203D
:1024200000048242039200D1B8E0012001048A42F4
:1024300000D1B9E032688A43326081043068884351
:10244000B4E0B1683820084010214140F268032709
:102450003A4002235340CA185142514100282BD020
:10246000002929D1306801218C02059BDA68002AF5
:1024700000D1B8E00722D20290431A6902433260C9
:102480000802316801433160FFF720FD05463068DE
:10249000204200D0B7E0FFF719FD401B0228F6D913
:1024A00071E13068800300D47AE70598406800281D
:1024B00000D075E7049F66E131684905059B03D5A7
:1024C000D968002900D1B9E07F21090272688A43E6
:1024D000596909021143716000280DD10720C0021B
:1024E0003168814318690843306030688004400FC8
:1024F000AB49C140AB480160AB480068FFF708FD3D
:10250000002800D150E7049F3DE1306E05998969AC
:10251000002900D181E0012108433066FFF7D6FC95
:102520000546306E800700D550E7FFF7CFFC401B13
:1025300003270228F5D926E1012003900107F06B5B
:102540000840029006D1F06B0843F063F06B08403E
:10255000069006980191954C2068C00510D4039808
:102560000702206838432060FFF7B0FC054620686A
:10257000384205D1FFF7AAFC401B0228F7D975E0C5
:1025800005988468052C5BD0012C5DD0F06D039913
:102590008843F065F06D0421884358E001208104F0
:1025A00032680A4332600104306808433060012019
:1025B0004404FFF78BFC0546039800280FD03068D1
:1025C000204200D0ECE6FFF781FC401B6428F6D9DE
:1025D000D9E0FFF77BFC401B642800D9D3E03068CA
:1025E0002042F6D1DCE6090288433060FFF76EFC3A
:1025F00005463068204200D1D6E6FFF767FC401B55
:102600000228F6D9BFE07F20000271688143059857
:102610004069000208437060C6E6012188433066C5
:10262000FFF754FC0546306E800700D4CEE6FFF776
:102630004DFC401B03270228F5D9A4E0049FA2E02B
:10264000F06D04210143F165F06D03990843F065D5
:10265000574FFFF73BFC0546002C0FD0F06D80076D
:102660000FD4FFF733FC401BB842F7D900200327F3
:102670000FE0FFF72BFC401BB842F7D8F06D800746
:10268000F7D40298002803D1F06B01998843F063D6
:102690000120002877D00598C469002C72D0B0685A
:1026A00038210140102903D1012C18D1049F6AE080
:1026B000012739063068049188433060FFF706FC33
:1026C0000546022C2CD103977C063068204232D07C
:1026D000FFF7FCFB401B03270228F6D953E0F06804
:1026E00003210140059B1A6A91424FD1702101409C
:1026F0005A6A914250D17F21090201409A6A12021E
:1027000091424BD11F2149040140DA6A9142049F52
:1027100039D1072149070840196B884233D131E08C
:102720007C063068204229D0FFF7D0FB401B0327EE
:102730000228F6D927E0F0681F490140059F20379D
:10274000ADCF084310431902014329433943F160D7
:10275000306804990843306003980007F16801432A
:10276000F160FFF7B3FB0546306820420AD1FFF75E
:10277000ADFB401B03270228F6D904E0F0680D49A1
:102780000140F1600027F8B207B0F0BD049FFAE7FE
:10279000049FF8E700100240049FF4E7049FF2E76B
:1027A0000024F400640000206C0000200070004051
:1027B00088130000FCFFFEEF8C80C11FF0B585B0D0
:1027C00000280CD0044605465C3541208600606A2E
:1027D000002807D0002020612046143007E00120A7
:1027E00005B0F0BD6068B04203D020461C30002127
:1027F00001600027A7626878002804D100202870B3
:10280000204600F057F80220049501906870206877
:1028100001684022914303900160E168974A0125D5
:1028200091422A4600D33A461203ED020D430F2788
:1028300038020290854201D00025A5626568A7682C
:10284000354021239B023B405B19256901980540D7
:102850001D436069012318402843FC36A7693E40A8
:102860000643E069382505403543206A8026064046
:102870002E435803A56A05403543039E3560380C46
:1028800004250540029801400A432A43606A10214A
:1028900001401143606B082202400A437260D80273
:1028A000F1698143F1610020206604994B7005B005
:1028B000F0BDC04610B586B000210591049103918A
:1028C000029101910068124A904201D006B010BDF9
:1028D000012002030F4BDC681443DC60DC68144009
:1028E0000094009A1A6802431A601A680240009223
:1028F000059104910391022002908220019005200D
:102900000007009901A9FFF70DFA06B010BDC046F7
:102910000030014034100240F0B587B004465C201E
:10292000205C012802D1022007B0F0BD15460591B8
:1029300004932746443701263E76FFF7C7FA0390F3
:10294000787E012842D105990029304600D18FE0D8
:10295000002D304600D18BE002960320009078765F
:1029600000202066E587A587A16320643880E064A5
:102970002065019078800120C103A2688A4208D1B5
:1029800021680A6840239A430A6080030A68024368
:102990000A60206801684906049E03D40168402249
:1029A0000A43026061684A424A416B1E59425941DA
:1029B0001143E268314B9A420AD30029039D10D09B
:1029C000A16B0988C1600598801C06E002204FE0D9
:1029D0000029039D21D0059917E0A063E08F401ED8
:1029E000E087E08F00282BD020688168890707D412
:1029F000FFF76CFA711CF4D0401BB042F1D31AE01F
:102A0000A16B0A88C260881CE7E709780173A06B94
:102A1000401CA063E08F401EE087E08F00280FD0AD
:102A200020688168890709D4FFF750FA711CF4D037
:102A3000401BB042F1D3029E009819E0A16BE4E77D
:102A4000204631462A4600F0CBFE002801D0202047
:102A50002066A0680028029E07D101980690206891
:102A6000C1680691806806900698206E411E8841D4
:102A7000002139767E7607B0F0BDC0460107000020
:102A800080B501F017F980BDB0B58021415C012906
:102A900001D10220B0BD024680322421516001687C
:102AA0000B680C680125AC430C606C07A3430B60FA
:102AB000002141661170202050600846B0BD70476B
:102AC000704770B504468020205C012801D10220A7
:102AD00070BD25468035242068602068066802683D
:102AE00001239A4302602B700722520683689343A6
:102AF0000B438360204601F02BF92068066000201C
:102B000028702021696070BD70B504468020205C6B
:102B1000012801D1022070BD25468035242068603F
:102B200020680668026801239A4302602B7007221E
:102B30005207836893430B438360204601F008F9F2
:102B400020680660002028702021696070BD7047F1
:102B500070477047F0B587B006900768FA6920267D
:102B60000125E9020B462F3313403C68B868202B3F
:102B700012D123463340049222462C070440E31826
:102B80001446049A08D00698016F002900D16DE11F
:102B90000698884707B0F0BD059404950B460F339F
:102BA0001340069D5C35002B029000D186E0B04BAF
:102BB000059C2340049C24070094641C0440E318F3
:102BC0007CD0019103962946D307049D08D02B029F
:102BD000059E334004D03D620E460B6B2B430B63C6
:102BE00003462B4096070D4607D5002B05D002263D
:102BF0003E62296B04260E432E635607039907D5C0
:102C0000002B05D004233B622B6B02261E432E6350
:102C1000130708D5059B0B401C4304D008233B62D7
:102C20002C6B1C432C6301980242069E059C08D025
:102C3000049B9B06234004D001983862286B08430C
:102C40002863286B002800D110E1039802400AD0C5
:102C50000440029800990840204304D0316F0029B5
:102C600001D030468847286B2821014030688068B1
:102C700040242040401800D1E5E0304601F0B8F98A
:102C800030688068400600D4CBE0EFF310800499F0
:102C900081F3108831688A68A2438A6080F31088C3
:102CA000F06F002800D1BCE072498163FEF7DEFEC0
:102CB000002800D1DAE0F06F816B6AE7059C2046BE
:102CC0001040C3060699CB6E3DD5012B3BD1039630
:102CD00010263E62B968490644D469882A886B8800
:102CE000002B00D1C2E0511A0A0400D1BEE0EFF37C
:102CF0001082049F87F3108809235B0106980468FB
:102D0000059525689D43256082F31088EFF31082B6
:102D100087F3108803689C68584D25409D6082F3B6
:102D20001088039A059BDA6200220267C266EFF3FD
:102D3000108287F3108803681C68B4431C6082F318
:102D4000108889B259E0D3025BD5049B9B05029998
:102D50000B4056D00498000538620698FFF7F8FE3D
:102D600007B0F0BD0698C16F09684A6893B2002B9E
:102D700000D17BE02C88A34200D377E06A80096809
:102D8000890635D4EFF310812F46049D85F3108812
:102D9000394A2032069803681C6814401C6081F38D
:102DA0001088EFF3108185F3108802689368AB43B5
:102DB000936081F31088EFF3108185F31088026827
:102DC00093684024A343936081F310880399F962C8
:102DD0000021C166EFF3108185F310883D4602683B
:102DE0001368B343136081F31088C06FFEF708FEC9
:102DF00068882988081A81B20698FFF760FE07B034
:102E0000F0BD130612D580232340049CE4050299EB
:102E10002140059CCB1809D00698416F002925D088
:102E2000B6E63046FFF795FE07B0F0BD400611D478
:102E3000100214D504988007204010D00698FFF7A0
:102E400086FE07B0F0BD3046FFF783FE0020286302
:102E500007B0F0BD069801F0FBF807B0F0BDD00157
:102E600004D5002C02D50698FFF72AFE07B0F0BD66
:102E700020010004DD3E0008DFFEFFFFFEFFFFEF44
:102E8000B0B5002830D00446054680356868002873
:102E900004D100202870204600F028F82420686023
:102EA000206801680125A9430160204601F002F96C
:102EB000012817D0A06A002802D0204600F06CFF3D
:102EC0000920C00221684A6882434A6088682A2231
:102ED000904388600868012202430A60204600F09F
:102EE000C5FF05462846B0BD0120B0BD70B58CB009
:102EF000044600260B960A960996089607960696AB
:102F00000596049603960296019600683549884214
:102F100029D03549884263D102960124019401A841
:102F2000FFF75CF8002801D0FEF7E3FAA0032F4971
:102F3000CA680243CA60CA68024000920098022030
:102F400008900A6802430A600968014000910B96E4
:102F50000A960996C02007900098274807A9FEF70F
:102F6000E1FE0CB070BD2148826801210B914B0439
:102F70001A43826082681A400092009A02680A43EB
:102F800002600068084000900A96099602200890A6
:102F90000C20079000980520000707A9FEF7C2FE45
:102FA000134D2E62202080213422124B2B606A6048
:102FB000AE60EE6029616E61AE61E8612846FEF7A1
:102FC000EBFD002801D0FEF794FAAC62E5671C2403
:102FD000002120460A46FEF7D7FF2046FEF7D0FF25
:102FE0000CB070BD00440040003801403410024075
:102FF000F0010020080002400004005070B5882352
:10300000C3580225202B2BD10123002926D0002ACA
:1030100024D00124230386689E4204D10369002B37
:1030200001D1CB071ED1064680363378012B2B46C3
:1030300014D00023C366347003685B681B020AD592
:10304000EFF3108384F31088A40605682E682643E6
:103050002E6083F3108801F0F9F80346184670BD1E
:10306000284670BD204670BD10B5ACB00948016857
:10307000491C016001F0E6FA01AC204601F0E6F9D6
:103080000548AC222146FDF733F8044801210170C0
:103090002CB010BD8000002084000020D20300204E
:1030A00070470000F0B587B00E46074684203958B7
:1030B0000220202935D10125002E33D00492002A88
:1030C00030D001210C03BA68A24204D13A69002A27
:1030D00001D1F20761D103943C4680342278012A61
:1030E00005461FD0059322463C4654340025D56042
:1030F0001170212002925060FEF7E8FE06900498BD
:1031000060802080B868039988420ED13869002811
:103110000496059901D000220492002807D10646A2
:1031200005E00546284607B0F0BD049505990298CC
:10313000057007E0307839688862761C05996088E8
:10314000401E60806088002815D0009180210025F5
:1031500038462A46069B01F0CFF8002817D1002EEA
:10316000E8D1049A10880E49084039688862921C98
:1031700004922E46E2E700914021002538462A4677
:10318000069B01F0B9F8002803D00325CAE7032500
:10319000C8E7202002994860C4E70D46C2E7C04650
:1031A000FF0100007047FEE710B504460520000748
:1031B00020210122FEF782FE200A00F005FCE0B289
:1031C00000F002FC10BD00008168034A0A400121A2
:1031D0000907511881607047E8FFFF6F07208105DC
:1031E000224800680840704741690720084070473E
:1031F00081680120084070478068C000C00F704798
:1032000080684007C00F7047024A0A40816A114334
:1032100081627047FFFF0700C943034A0A43816A7E
:10322000114081627047C0460000F8FF1F230B4029
:103230009100090F99400F229A40836A93430B43F0
:1032400083627047090243698B430A400249114077
:10325000194341617047C04600FFFF0707218905F8
:10326000024A13688B4303431360704708270140E9
:1032700004230B409A400721994043698B43134331
:103280004361704707200103014800680840704708
:103290000810024070B5044600259F224F2328469F
:1032A000294600F020F92C2000F056F9502620463F
:1032B000FFF77AFF761EFAD16D1CA02DF6D170BDF6
:1032C000F0B58DB000F0FAF8FE240B94204600F023
:1032D00043F9204600F040F9204600F03DF9EF2088
:1032E00000F03AF9B32000F037F9032000F028F994
:1032F00036252846069500F02FF9682000F020F9C1
:103300003A2000F029F905200C9000F019F9B620B8
:1033100000F022F911200A9000F012F9AC2000F020
:103320001BF90B2000F00CF9B42000F015F9212056
:1033300000F006F9B12000F00FF9C02000F000F90C
:10334000E62000F009F9502000F0FAF84324204666
:1033500000F0F6F8E72000F0FFF8562000F0F0F853
:10336000204600F0EDF8F02000F0F6F81F2009905C
:1033700000F0E6F84120089000F0E2F81B200790EA
:1033800000F0DEF85520059000F0DAF8284600F04D
:10339000D7F83D20049000F0D3F83E20039000F0D1
:1033A000CFF80024204600F0CBF81620029000F061
:1033B000C7F80820019000F0C3F80920009000F041
:1033C000BFF81526304600F0BBF81425284600F05B
:1033D000B7F80F27384600F0B3F8F12000F0BCF83A
:1033E000099800F0ADF8089800F0AAF8079800F0E6
:1033F000A7F8059800F0A4F8069800F0A1F8049842
:1034000000F09EF8039800F09BF8204600F098F832
:10341000029800F095F8019800F092F8009800F0FA
:103420008FF8304600F08CF8284600F089F83846CE
:1034300000F086F80B9800F08FF8FF2000F08CF871
:10344000352000F089F8204600F07AF8442000F09A
:1034500083F8204600F074F80A9800F07DF8782090
:10346000FEF738FC292000F077F82A2000F074F8E5
:10347000204600F065F8204600F062F8204600F093
:103480005FF89F2000F05CF82B2000F065F82046E4
:1034900000F056F8182000F053F8204600F050F8DD
:1034A000672000F04DF82C2000F056F80C9800072B
:1034B00001221103FEF702FD0DB0F0BDB0B50520ED
:1034C00004071025002220462946FEF7F7FC642059
:1034D000FEF700FC012220462946FEF7EFFC3220D1
:1034E000FEF7F8FBB0BDF0B581B01C4600920D466A
:1034F00007462A2000F030F80026304600F020F879
:10350000F8B200F01DF8304600F01AF80098C0B28A
:1035100000F016F82B2000F01FF8304600F010F8ED
:103520001835E8B200F00CF8304600F009F818340D
:10353000E0B200F005F82C2000F00EF801B0F0BD6C
:1035400010B504460520000720210122FEF7B6FC35
:10355000204600F039FA10BD10B5044605200007DA
:1035600020210022FEF7AAFC204600F02DFA10BD13
:10357000B0B584B02C211548002444543C21445457
:10358000C464446284620125C56184760483042195
:103590000F4A046344638463AB071CC00460446047
:1035A00081600394029401940C38FEF7B9F8002866
:1035B0000AD1039402940195044801A9FDF79EFFE6
:1035C000002801D104B0B0BDFDF793FF3001002009
:1035D00000240140B0B582B00E48016801221143B9
:1035E00001600068104001900198092400252046E0
:1035F00029462A46FEF7C8FC2046FEF7C1FC0A24ED
:10360000204629462A46FEF7BFFC2046FEF7B8FCB6
:1036100002B0B0BD38100240F0B589B00024089463
:1036200007940694059404943148016802252943BF
:103630000160016829400295039103990168042201
:10364000114301600168114003910399016801274A
:103650003943016000683840039003980520000753
:10366000019024492246FEF729FC23482946224698
:10367000FEF724FC069411200504059578020490B9
:1036800004AE1D483146FEF74DFB06940595F80340
:1036900004901A483146FEF745FB029807900694BD
:1036A0000597832000010490019D28463146FEF7CE
:1036B00039FB079406940597412080010490284621
:1036C0003146FEF72FFB0794069405970298049065
:1036D00009483146FEF726FB0725284621462246A3
:1036E000FEF752FC2846FEF74BFC09B0F0BDC04681
:1036F0003410024070180000000400500008005010
:10370000B0B5F248082200210723016241628162BC
:10371000C362016342631022094C1B024125AD00C4
:1037200030C0FC35016043608160C1600561426169
:103730000838FFF743F8002800D1B0BDFDF7D9FEE7
:103740000030014010B5144800210C22134B0162D7
:1037500041628162E124640218C0016041608160BD
:10376000C260016141610838FFF78AFB002811D16E
:1037700009480021FFF7C8F900280BD106480021AD
:10378000FFF79FF9002805D10348FFF77DF90028CE
:1037900000D110BDFDF7ADFEB002002000380140A1
:1037A00010B50C4800210C220B4B01624162816272
:1037B000E124640218C0016041608160C26001615F
:1037C00041610838FFF75CFB002800D110BDFDF710
:1037D00090FEC0464003002000440040FEE77047D2
:1037E000F0B581B016460F4605460324E1023A467D
:1037F000334600F01BF800280FD1284639463246E0
:1038000000F086F8002808D10320410228463A46F5
:10381000334600F00BF8002806D0286E2021014323
:103820002966204601B0F0BD0024FAE7F0B589B062
:103830001E4614460F46029007A800250570FEF7A5
:1038400045FB301A06940419FEF740FB029A0490D7
:103850005C48006823214143080D059460430890AB
:10386000106803908068384226D010465C30019082
:1038700003E01068806838421CD00326700287423B
:1038800004D10398007B07A9087007980698401C8C
:10389000EFD01446FEF71AFB0499401A05998842A6
:1038A0000CD208980899491E089100282246E0D1B8
:1038B0000590DEE72E4628E02E4626E023462068C7
:1038C0004168E022914341604121890062688A4257
:1038D0000CD199680122D3039942234602D0920267
:1038E000914203D1016840229143016001214A03C2
:1038F0009B6A934205D103689343036003681343B3
:1039000003600020019A10705170304609B0F0BD7C
:10391000F0B583B016460D460446FEF7D7FA301AC6
:103920004719FEF7D3FA0646264800684001000D05
:10393000784302902068806800210191000602D43B
:10394000019803B0F0BD20465C30009003E0206891
:1039500080680006F4D5681CF9D0FEF7B7FA801B22
:10396000B84207D202980299491E02910028EED16E
:103970000746ECE720684168E0229143416041211D
:10398000890062688A420BD1A1680122D30399425F
:1039900002D09202914203D101684022914301601A
:1039A00001214A03A36A934205D10368934303604C
:1039B0000368134303600020009A107051700320C5
:1039C00003B0F0BD6400002080B582B001A908708A
:1039D00098480122024BFEF79FFF02B080BDC0460F
:1039E000FFFF000080B50520000701210903002228
:1039F000FEF764FA80BD80B505200007012211039F
:103A0000FEF75CFA80BDF0B581B01C4615460E4647
:103A1000074606980090384600F00EF80020009007
:103A2000781C80B2711C89B2AA1E92B2A31E9BB2EE
:103A300000F002F801B0F0BDF0B585B09F2843D882
:103A40000E464F2940D81C46154607461018A02898
:103A500001D9A020C51B0A980390E819401EC0B2E6
:103A60000290A019502801D95020841BA019401E93
:103A7000C0B2019000F037F8F8B2F1B2029A019B9F
:103A800000F03AF804A803994170090A0170052072
:103A9000000720210122FEF711FA200412D0654E02
:103AA00002E0641E20040DD02804FAD02F46002026
:103AB000C34304A902223046FEF72EFF7F1E3804BE
:103AC000F5D1EEE700F03DF805B0F0BD4C02002066
:103AD00080B582B000900020A02250230146FFF75D
:103AE000ABFF02B080BD80B5052000070121C902EF
:103AF0000022FEF7E3F980BDF0B583B01D461746FE
:103B00000C4601902A2000F06FF802AEF7700020FA
:103B1000B07001997170307004273046394600F05A
:103B200077F82B2000F060F81835F57018347470B1
:103B30003046394600F06CF82C2000F055F803B000
:103B4000F0BD80B5052000070122D102FEF7B6F9CD
:103B500080BDF0B589B01D4616461A18521ED2B265
:103B60001C0A63185B1EDBB2C0B2C9B2FFF7C4FF08
:103B7000E0B20290002834D0EDB20E980090109977
:103B80000F9A203E0298464301960591080A049038
:103B90001446100A06900020039005E00399491C82
:103BA0000298039181421CD0002DF7D0019803990F
:103BB0000818400000990E5A00270AE007A8059946
:103BC000417004990170022100F022F87F1CBD426F
:103BD000E4D03046B8400004F0D508A844700699F7
:103BE000F0E709B0F0BD0000B0B582B001AC2070C4
:103BF00005200007202100252A46FEF75FF9EB4348
:103C00000C4801222146FEF787FE02B0B0BDC04637
:103C1000B0B50D4604460520000720210122FEF71D
:103C20004DF9AAB20020C34302482146FEF774FEB4
:103C3000B0BDC0464C020020F0B589B008931446D0
:103C40000D460646FFF74FFF2278002A2DD008992F
:103C5000080AC0B204900E980790109806900F982A
:103C60000590671CCCB211E0079800900598019070
:103C700006980290B0B2A9B2D2B2089BFFF769FFD2
:103C80003619781C3A78002A07460ED0B0B22018B0
:103C9000A028E9D304996D18A8B208184F2804D8B1
:103CA000D0B200262028DFD1EBE7FFF74AFF09B0AA
:103CB000F0BD7047B0B5401E010E01D00120B0BD6F
:103CC000054D68600024E043032100F09FFBAC60D9
:103CD000072028602046B0BD10E000E080B5FEF768
:103CE000F9F880BDF0B591B004AC34212046FCF762
:103CF00018FA00260396029601960096012778028C
:103D0000FEF746F97807109078040F9008200E907F
:103D10000D9602250C950B954020099008963802C7
:103D2000079004952046FEF72FFB00280CD1039640
:103D3000029607200090019568462946FEF710FA82
:103D4000002801D111B0F0BDFDF7D3FB7047000092
:103D5000F0B581B004466834416E002913D0006884
:103D600085688068400F0A4E315C0A4F385CC0009D
:103D7000FCF7CDFF60802801400F315C385CC0004B
:103D8000FCF7C5FF01E001206080208001B0F0BD9C
:103D9000646F00085C6F0008B0B5816ACA070CD177
:103DA0008A0714D44A071CD40A0724D4CA062CD480
:103DB0008A0634D44A063CD44CE0012252040368FB
:103DC0005C689443C26A22435A608A07EAD501229A
:103DD000120403685C689443026B22435A604A07EA
:103DE000E2D50122920403685C689443426B22434B
:103DF0005A600A07DAD50122D20303685C6894434B
:103E0000826B22435A60CA06D2D50122120303688C
:103E10009C689443C26B22439A608A06CAD50122E9
:103E2000520303689C689443026C22439A604A06DA
:103E300010D501221305026854689C43456C2C433D
:103E400054609D4206D103235B0554689C43836CF8
:103E500023435360090607D50121C904026853684A
:103E60008B43C06C18435060B0BD000070B582B089
:103E700005468C2000242C50FEF728F806462868BA
:103E8000006800070CD5144800900120410500226D
:103E90002846334600F030FA002801D0032417E00A
:103EA0002868006840070CD50B4800900120810568
:103EB00000222846334600F01FFA002801D00324D0
:103EC00006E0284680302021416081600470EC6665
:103ED000204602B070BDC046FFFFFF0180B5806A7A
:103EE0000146563100220A8156214252FEF731FE28
:103EF00080BDF0B581B0846A842021582546843580
:103F00006F682068806826465636212907D18021AF
:103F1000084004D000203080204600F0AEF8206831
:103F20008068222F07D14021084004D00020308132
:103F3000204600F05DF8A86810210143A9602046E2
:103F4000FEF707FE01B0F0BD70B50146806A02467B
:103F50005C3209680968890632D400215180EFF388
:103F60001083012181F310880C0205682E68A64396
:103F70002E6083F31088EFF3108381F310880468B8
:103F8000A5688D43A56083F31088EFF3108381F358
:103F900010880468A5684026B543A56083F310889F
:103FA0002023D362C36E012B0AD1EFF3108381F378
:103FB000108801680C681025AC430C6083F31088EE
:103FC000C16E012903D11188FEF779FD70BDFFF79D
:103FD0004BF870BD80B5806AC16E012905D15C21A6
:103FE000415A4908FEF76BFD80BDFFF759F880BDC7
:103FF000B0B5EFF31082012181F3108809235B0132
:10400000046825689D43256082F31088EFF31082D1
:1040100081F3108803689C680C4D25409D6082F3F5
:104020001088C26E012A0AD1EFF3108281F3108842
:1040300001680B681024A3430B6082F31088882169
:104040002022425000210167C166B0BDFEFFFFEF94
:1040500010B5EFF31081012282F310880268136813
:104060004024A343136081F310888421202242500E
:1040700000214167FFF796F810BDB0B5EFF310814E
:10408000012282F3108803681C68C025AC431C60C1
:1040900081F31088EFF3108182F31088D205036852
:1040A0009C6894439C6081F31088842120224250B4
:1040B000B0BD0000F0B581B0044600680168564A02
:1040C0000A40A16823690B4365691D43E1690D43FB
:1040D000154305600322120343689343E2681A43C1
:1040E0004260A269236A134382684C4D15401D4308
:1040F0008560C26A0F239A43636A1343C362484AC6
:10410000904209D0474A904208D14748006880074A
:10411000000F46A2135802E0002300E010232646B9
:1041200068360125EA034548914211D1082B21D870
:104130000027C0467B441B795B009F44041B221B65
:10414000201B1B1B3D00FEF7C9F800281BD136E0E1
:10415000082B36D80027C0467B441B795B009F4460
:1041600004303730353030304E00FEF7B7F80028D5
:1041700030D147E000200127002804D11FE0FEF7DE
:10418000BFF800281BD0616A49002D4A515AFCF73C
:10419000BEFD400061684A081018FCF7B8FD0246F1
:1041A000103A28498A422ED201400007400F0843A6
:1041B0002168C8603D4626E010460028E3D13D4610
:1041C00021E000200127002804D11BE0FEF798F829
:1041D000002817D0616A4900194A515AFCF797FD27
:1041E00061684A081018FCF792FD01461039154A1B
:1041F000914208D2216880B2C8603D4603E0104673
:104200000028E7D13D4610483060002020676067F5
:10421000284601B0F0BDC046F369FFCFFFF4FF119F
:1042200000440040003801405410024000000000EB
:104230000400000002000000080000000024F40058
:10424000446F0008F0FF000001000100F0B581B0EC
:1042500013460A4605468C2000242C505C202B5225
:10426000882022212950AA65E86F2E468036002832
:1042700013D01F4F1F49C16207631C494163846308
:1042800029682431FDF7E2FC002806D01020F060F8
:1042900034702020B060012425E0347028690028A3
:1042A0000BD0EFF31080012181F3108809022A68F6
:1042B00013680B43136080F31088EFF31080012123
:1042C00081F310882A6893680B43936080F3108809
:1042D000EFF3108081F3108829688A684023134324
:1042E0008B6080F31088204601B0F0BDF33E0008DB
:1042F000D53F0008493F0008F0B585B004930D464E
:1043000004460068C0690840401A4142414100200B
:10431000914246D1174602902046803001900A9E75
:1043200001200090C002039007E02068C069284087
:10433000401B41424141B94232D1701CF5D0FDF7DA
:10434000C5FD002E2FD00499401AB0422BD820680A
:1043500001684907E9D5C169039A1142E5D003997B
:104360000162EFF31080009D85F310880D21490153
:10437000226813688B43136080F31088EFF310807A
:1043800085F3108821688A68AA438A6080F31088C0
:104390002020019A5060906000211170D0601FE0D1
:1043A000029805B0F0BDEFF31080009D85F31088F2
:1043B0000D214901226813688B43136080F3108834
:1043C000EFF3108085F3108821688A68AA438A6019
:1043D00080F310882020019A5060002111709060B5
:1043E000032005B0F0BD000080B57548FEF7B2FBB4
:1043F00080BDC046002805D41F210840012181400E
:10440000014801607047C04600E100E0002805D483
:104410000322034693430C4A9A1806E00F220240F7
:10442000083A03239A43074BD2188007C00E89012C
:10443000C9B28140FF23834010689843084310604D
:104440007047C0461CED00E000E400E0F0B5D3B0DA
:104450000446AC21FBF765FE3649088807280AD3D5
:1044600000200122344B9D5C6840521C0D886D1F5A
:10447000AA42F8DB00E00020304F3870304DE87A77
:104480002D4E3018401D2246A8322EA1FBF754FEB7
:10449000A8202058397888424AD168783018401CC2
:1044A00029492246FBF748FE27460C37684627492C
:1044B0003A4613680432036004300439F9D10ECC53
:1044C00028AE30460C3C00F065FCAC252046314659
:1044D0002A46FBF70DFE68461C493A46136804322B
:1044E000036004300439F9D10ECC28AE30460C3CC0
:1044F00000F0CAFA204631462A46FBF7F9FD684625
:1045000012493A680437026004300439F9D10ECCFC
:1045100028AE30460C3C00F0DBFB204631462A46F4
:10452000FBF7E6FD6169A0681834224600F054FBF1
:1045300053B0F0BDD0030020D40300207000002051
:1045400071000020257800006C6F0008A0000000BA
:10455000F0B581B01948FDF7BDFB194C194912257A
:10456000E34E20462A463346FEF79CFD7D20870019
:104570003846FDF7AFFB1449142220463346FEF7B8
:1045800091FD3846FDF7A6FB10491C222046334614
:10459000FEF788FD3846FDF79DFB0D4920462A466B
:1045A0003346FEF77FFD3846FDF794FB2349C822CA
:1045B0002046FEF723FD01B0F0BDC0468813000081
:1045C00040030020100000205000002022000020A6
:1045D0003E000020B0B500211848425C242A03D0D8
:1045E000491C9629F9D100210A46835C2A2B06D062
:1045F000521C4B239B009A42F7D1002200E0D2B21A
:10460000521A521D154D2A8041182A88154C2046F1
:10461000FBF76EFD288800280ED0002008490246CE
:1046200003E0401C2B88984206D2235C2C2BF8D147
:10463000D3B2C854521CF4E7B0BDC0464C040020AD
:104640007100002080B5FFF7C5FF044802880448C8
:104650000449A74BFEF726FD80BDC046D0030020CD
:10466000B0020020D4030020F0B585B01F20C002A6
:10467000009000240A22204621461346FFF7DCF969
:104680003448036840680294334901910D46009014
:104690000C20049031A22146FFF7CEFA0095462067
:1046A00012262E220F2731463B46FFF7ACF9009524
:1046B0007320202231463B46FFF7A5F925480368C1
:1046C000406800900195029475201521264AFFF755
:1046D000B3FA00952F463225A02203921E262046CB
:1046E00029463346FFF78FF9009750272046294681
:1046F0003A463346FFF787F91748009026250D26DE
:1047000020462946039A3346FFF77DF91248009068
:10471000204629463A463346FFF775F90D490B689E
:1047200048680D4600900C480190074602942826E0
:104730000EA204983146FFF77FFA2B686868009054
:10474000019702945C200CA23146FFF775FA05B080
:10475000F0BDC04608000020FFFF0000474E535345
:10476000204641494C0000009C6F000843535420F0
:1047700054696D6500000000506F736974696F6E55
:104780000000000084B0F0B585B00AAC0FC45648F4
:10479000009000240A22204621461346FFF74CF9D8
:1047A00052480368406802945149019100900C20DE
:1047B00050A22146FFF740FAAF48036840683F2106
:1047C000490100AA13C20AAD2A4618320F21204619
:1047D000FFF732FAA9492C9E3046FCF705FA2F461E
:1047E000883700280CD1F8493046FCF70BFA00282E
:1047F00006D100945C20152116220B23FFF71CF92B
:1048000038689E49FCF7FEF9002806D1009455202F
:10481000152116220B23FFF70FF9344F3B687868F8
:1048200000903348019002942A4698324820152679
:104830003146FFF701FA3B68786800902C480190F8
:10484000029475208E4A3146FFF7F6F93B68786886
:104850000090274E019602942A46673205203721A0
:104860000491FFF7E9F93B6878680090019602949B
:104870002A467B320D2043210391FFF7DDF93B6887
:1048800078680090019602942A46293255263046CF
:104890000499FFF7D1F93B687868009014480190BB
:1048A00002942A461F3230460399FFF7C5F93B6848
:1048B00078681F2100AA13C26A1C9726022130467D
:1048C000FFF7BAF93B68786802946E49019100904D
:1048D0000C35AB2130462A46FFF7AEF905B0F0BCE7
:1048E00001BC04B00047C046E0FF00000800002003
:1048F000FFFF0000474E535320574149540000002A
:1049000084B0F0B585B00AAC0FC43F2045010095D6
:1049100000240A22204621461346FFF78DF851480D
:104920000368406802945049019100900C204FA206
:104930002146FFF781F950480368406800900195CF
:1049400002940AAD2A4618320F212046FFF774F967
:10495000D8492C9E3046FCF747F92F468837002867
:104960000CD199493046FCF74DF9002806D1009446
:104970005C20152116220B23FFF75EF83868CD491D
:10498000FCF740F9002806D1009455201521162285
:104990000B23FFF751F8334F3B687868009032489B
:1049A000019002942A469832482015263146FFF796
:1049B00043F93B68786800902B4801900294752079
:1049C0002F4A3146FFF738F93B6878680090264E49
:1049D000019602942A466732052037210491FFF799
:1049E0002BF93B6878680090019602942A467B3246
:1049F0000D2043210391FFF71FF93B687868009071
:104A0000019602942A462932552630460499FFF72A
:104A100013F93B68786800901348019002942A4685
:104A20001F3230460399FFF707F93B6878681F216A
:104A300000AA13C26A1C972602213046FFF7FCF831
:104A40003B68786802940F49019100900C35112160
:104A500030462A46FFF7F0F805B0F0BC01BC04B0C0
:104A60000047C04608000020FFFF0000474E535398
:104A7000204F4B20200000000000002000002041BB
:104A80009C6F00081FF8000083B0F0B584B003905D
:104A900009A80EC0454EB078454F3818401C09ADE6
:104AA0002A1D44A1FBF748FBF0783818401C6A1C0B
:104AB000424C2146FBF740FB30793818401C2A460F
:104AC00010323FA1FBF738FB70793818401C2A469A
:104AD0000C322146FBF730FB3B490D98FBF7B4FE47
:104AE00006460D90FCF7CAF80446FCF7B3F80290AE
:104AF0000F462046FCF7A2F801463046FBF75FFE62
:104B0000FCF7D5F80026314B3246FBF78DFF304BD2
:104B10003246FBF7F1FF029A3B46FBF7D3FEFCF768
:104B2000DAF80E900A982849FBF78EFE04460A90A0
:104B3000FCF7A4F80746FCF78DF80290019138467F
:104B4000FCF77CF801462046FBF739FEFCF7AFF88E
:104B500032461E4BFBF768FF32461D4BFBF7CCFF7E
:104B6000029A019BFBF7AEFEFCF7B5F80B90FCF741
:104B70009EF802460B4628461F30164C214600F090
:104B80008FFA0E98FCF793F802460B462846293018
:104B9000214600F085FAAC2203982946FBF7A8FAD3
:104BA00004B0F0BC01BC03B00047C0467100002057
:104BB000D403002025303866000000006C6F000828
:104BC00025303966000000000000C842000059404E
:104BD00000004E40976F0008F0B583B016460C46B3
:104BE000002191713249FBF799FD05463149FBF7E8
:104BF0002BFEFCF743F80746413070702E492046E3
:104C0000FBF78CFD02902D49FBF71EFEFCF736F8F2
:104C100004464130307001960A2047433846FCF77D
:104C20000DF801462846FBF7CAFD0746FCF726F8B3
:104C300005463030F070142044432046FBF7FEFF59
:104C400001460298FBF7BBFD02903F210906FBF7E6
:104C5000BEFDFCF713F806463030019CA0702846D4
:104C6000FBF7ECFF01463846FBF7A9FDFCF71FF800
:104C7000134A144BFBF740FFFCF72DF8FBF7FEFF40
:104C8000613060717000FBF7D9FF01460298FBF7B5
:104C900096FDFCF70CF80C4A0C4BFBF72DFFFCF7CC
:104CA0001AF8FBF7EBFF6130207103B0F0BDC0468E
:104CB0000000B44200002041000034430000A04145
:104CC000C81BAA735655A53F1CF22AC65455B53FBA
:104CD00083B0F0B582B0019007A80EC02348807958
:104CE00023490818401C07AC254684352A4608325B
:104CF00020A1FBF721FAA868FBF7D9FF1E4A1F4B3A
:104D0000FBF792FEFBF7E7FF6860FBF7D0FF064674
:104D10000F461B4A1B4BFBF7EFFEFBF7DCFF28900F
:104D20002046983018A132463B4600F0B9F9289841
:104D3000FBF7BDFF02460B4620469030144E31462D
:104D400000F0AEF9A868FBF7B2FF02460B4620461A
:104D5000A030314600F0A4F9AC2201982146FBF7BF
:104D6000C7F902B0F0BC01BC03B0004771000020DD
:104D7000D4030020253366006F1283C0CAA1FD3F13
:104D8000CDCCCCCCCCCC0C40252E30303032660093
:104D9000916F000883B0F0B582B0019007A80EC0F3
:104DA000714F3878714D2818401C07AC22464C32A0
:104DB0006F4E3146FBF7C0F91A980F2801DC082125
:104DC00001E00F21C94308181B9038782818C01C2F
:104DD000224654323146FBF7AFF938782818401D87
:104DE000224658323146FBF7A7F9387A2818401C7A
:104DF000224644323146FBF79FF918981A991B9ABC
:104E00008A4200DA401C1990387A2818401D27463B
:104E1000343731463A46FBF78FF97D20000114996B
:104E2000081814905048007A2818C01C25463C35B4
:104E300031462A46FBF780F918981999814205D125
:104E4000616BA163E16B2164019E50E029684A1EF9
:104E50000B2A019E4BD8C0467A44127952009744DF
:104E6000050913171B1F23272B2F333A1F283BD16C
:104E700002212CE03A68930739D11D2866D103231B
:104E800023640123A36462E01F282DD104211EE0C6
:104E90001E2829D105211AE01F2825D1062116E058
:104EA0001E2821D1072112E01F281DD108210EE064
:104EB0001F2819D109210AE01E2815D10A2106E070
:104EC0001F2811D10B2102E01E280DD10C212164D5
:104ED0000121A16409E01F2806D101212164A164F8
:104EE000616B491CA16302E02164616BA163E36B08
:104EF000626B009020465C301E4D294600F0D0F8D1
:104F0000A26B236CA06C009020466730294600F00D
:104F1000C7F8E26C636DA06D009020467230164DAC
:104F2000294600F0BDF8226D636DA06D009020460B
:104F30007B30294600F0B4F8AC2230462146FBF71E
:104F4000D7F802B0F0BC01BC03B000472164A263F3
:104F50001C2805D1032121640121A164A263C6E7B5
:104F60002164A263C3E7C04671000020D40300207F
:104F70006F6F0008736F0008826F0008A8B0FCF71D
:104F8000B3FFFEF7AFFEFEF747FBFEF723FBFEF78E
:104F9000B7FBFEF7D7FBFEF703FCFEF7E9FAFEF7D7
:104FA0008FF9FEF71FFDFEF726FD00242046FEF7D1
:104FB00071F92A48036840680294294901910090D8
:104FC00028A220462146FEF737FE7D200001FCF78F
:104FD00081FE2046FEF77CFDFFF746FBFFF7B8FA9F
:104FE0002B4E2C4F2C4D00E0347030780128FCD132
:104FF0003B68786800901A48019002942A467B32F8
:105000000D204321FEF718FE287841280DD12846AF
:1050100010306946214A036804300B600431043AB9
:10502000F9D10FCD103DFFF76BFC28784128DBD07C
:10503000A8680021FBF7F4FD0028D5D128461030E0
:105040006946164A036804300B600431043AF9D10A
:105050000FCD103DFFF796FBC6E7C04600000020CD
:10506000FFFF000053544D33324730333046365043
:105070003620474E53532053797374656D206279FF
:105080002042483850484720575F4C696E7573007E
:10509000D203002008000020840000209C000000B3
:1050A0000FB410B504A9074B02AA039800F0F4F856
:1050B000044602A9002000F08BFC204610BC08BC6E
:1050C00004B01847D15900082021020C01D010214A
:1050D0001046020A01D010460839020901D01046D4
:1050E000091F820801D01046891E420801D0881E7F
:1050F0007047081A704702E008C8121F08C1002A4A
:10510000FAD170477047002001E001C1121F002A48
:10511000FBD17047F0B51FB486B00998089A030D0B
:105120000021024314D05148514A18185043051425
:105130001198012810981AD0281A401C00264D4FAB
:105140004D49009601910490002812DA444211E082
:105150001198012449A3012801D11098C143069850
:10516000119A84600360C26041600BB0F0BD4042A0
:10517000E4E70446210500203F4A001C5141039109
:10518000029012E0E00707D032463B4601990098B2
:10519000FBF74AFC0191009032463B461046194607
:1051A000FBF742FC06460F466410002CEAD1049837
:1051B000039B0028029A0999089806DAFBF734FC49
:1051C000019B009AFBF730FC05E0FBF795FC019B87
:1051D000009AFBF791FC04460E460022284BFBF791
:1051E00035FF03D80020C043014607E00022254BCD
:1051F00020463146FBF766FBFBF708FF102409E069
:10520000002C0ADB0A220023FBF7A0FD079B3032AB
:105210001A55641E02460A43F2D11122641C079BF0
:10522000121B1C19119B012B03D0012308430ED123
:105230000AE0084304D0112010900020119077E775
:105240001098151A6D1E0BE01098824202DD0023A3
:105250006D1C03E0824201DA00236D1E002BEED0AC
:10526000069811998260C16030C07EE701FCFFFFA3
:10527000104D0000000014400000F03F300000001E
:105280000000F0430000E03F30380A2801D201203E
:105290007047002070470000FFB597B00646002514
:1052A00018E2252877D100242746FD49049400E020
:1052B0000443761C32780120203A90400842F7D10E
:1052C00030782A280ED00222307801463039092958
:1052D00016D804990A235943303940181443761CD0
:1052E0000490F1E7189802C804911890002904DA94
:1052F0000120400304434842049002200443761CEA
:1053000030782E2814D1042004437078761C2A2883
:1053100009D11898761C80C8189009E00A214F43DB
:10532000303FC719761C3078014630390929F5D944
:1053300030786C2810D006DC4C281AD068280ED0A3
:105340006A2817D104E0742813D07A2812D110E00B
:105350000120400504430CE00121090501E003217F
:1053600009050C437178814203D1012000052418FE
:10537000761C761C3078119066280BD013DC5828E8
:105380007DD009DC00287BD04528F6D04628F4D013
:1053900047281AD1A5E118E0632835D0642870D0D9
:1053A000652812D19DE170286CD008DC6728F1D007
:1053B00069287BD06E280DD06F2806D1BAE07328FB
:1053C0002ED0752871D0782859D01A9A19999047FB
:1053D0006D1C7EE16002400F022809D003280DD029
:1053E0000428189801680DD00D60001D189070E118
:1053F0001898EA1701680D604A60F6E71898016886
:105400000D80F2E70D70F0E718986A460178117286
:10541000001D18900020507202A80090012005E0A5
:10542000189802C8189000200091C04361070DD55C
:10543000002101E00199491C0191B94212DA81422F
:10544000F8DB009A515C0029F4D10BE0002101E067
:105450000199491C01918142FADB019A0099895C0A
:105460000029F5D1019904981A9B471A214638461C
:10547000199A00F097FA0199401945180BE04FE08E
:105480002CE113E04EE0009800990078491C00914F
:105490001A9A199990470198401E0190401CF2D128
:1054A000214638461A9B199A10E137E00A2000215C
:1054B000009001916002410F022907D0189A01CA99
:1054C0001892C2179446032908D00AE01898C01D04
:1054D000C108C90005C91891944607E000B2C21777
:1054E0009446042902D140B2C1178C46002261467D
:1054F000944506DA0A460021404291418C462D210E
:1055000002E0210504D52B216A461173012103E035
:10551000E10701D02021F7E7029155E00A200AE0D7
:10552000102008E010200090002104200443019185
:10553000082703E008200021019100906002410F3C
:10554000022907D0189A01CA18920022944603290A
:1055500008D008E01898C01DC108C90005C91891F5
:10556000944603E080B2042900D1C0B20021029128
:10557000210729D51199702906D0009A1021019B85
:105580004A401A4305D00EE040216A4611730121BA
:1055900008E06146014306D030216A461173119933
:1055A000517302210291009A0821019B4A401A433B
:1055B0000AD16146014301D1610705D530216A4610
:1055C000117301217F1E02911199582904D035A130
:1055D0000E910DA90D910DE037A1F9E76146019BF0
:1055E000009AFBF7B3FB0E9B8C469B5C0D9A521EF8
:1055F0000D92137061460143F0D10D9805A9081A68
:1056000020300190600703D501200004844300E0AE
:1056100001270198874201DD381A00E00020019936
:1056200000904118029809180498401A0490E00369
:1056300006D421461A9B199A049800F0B3F945192B
:10564000002706E003A81A9AC05D199990476D1CBF
:105650007F1C02988742F5DBE0030CD521461A9B9C
:10566000199A049800F09EF9451904E01A9A30201E
:10567000199990476D1C0099481E00900029F5DC8F
:1056800008E00D980D990078491C0D911A9A199906
:1056900090476D1C0199481E01900029F1DC63E1DF
:1056A00009280100303132333435363738396162F8
:1056B00063646566000000003031323334353637BC
:1056C00038394142434445460000000000F05AF991
:1056D0004519761C3078002800D0E2E528461BB03A
:1056E000F0BD600700D406271898C01DC108C90086
:1056F00048680A680831C30FDB071891190001D008
:105700009CA108E0210501D59BA104E0E10701D09F
:105710009AA100E09AA1430011985B0810916528B6
:105720000CD006DC452809D046281DD0472841D199
:1057300041E0662818D067283CD13CE00021112FB9
:1057400001DB112000E0781C0191009008A911A84C
:10575000FFF7E0FC139905910021119A15927F1C27
:1057600012980197009150E00120C007039001209A
:10577000019008A9009711A8FFF7CCFC139A14997F
:1057800005920022119B009212981593059A01929E
:10579000002901D0104602E0791C40180190381A07
:1057A00001D5019804E04042401E0090781C019011
:1057B000C01B029043E0012F00DA01270021112FC6
:1057C00001DD112000E038460191009008A911A8E0
:1057D000FFF7A0FC13990591119A002112981592D8
:1057E0000091019721070CD40599B94201DB019979
:1057F00000E00191012904DD159A491E515C302910
:1058000006D0B84201DA011D05DA0121029115E046
:105810000199491EEDE7002805DC00994118009127
:105820000199091A03E0019A411C914200DD01919E
:105830000099401A401C02900120C00703902007E5
:1058400006D402990198814202DB0020C0430290F5
:1058500000206946C87707AF012103980337C907BD
:10586000884224D0022011902B2012900398002807
:105870000CDA404203902D20129007E00A21039891
:10588000FBF745FA30317F1E039039701199481E9D
:1058900011900029F2DC03980028EFD1791E1298AC
:1058A00008703078202108404530BF1E387006A8A7
:1058B000C01BC01D039010980078002800D0012064
:1058C000019941180298C0170918039809180498FB
:1058D000401A401E0490E00306D421461A9B199AF0
:1058E000049800F05FF8451910980078002803D05C
:1058F0001A9A199990476D1CE00324D521461A9BEA
:10590000199A049800F04EF845191CE000980028F8
:1059100007DB00990598884203DD1598405C1999CA
:1059200001E0199930201A9A904700986D1C401C8C
:1059300000900298401E0290002804D11A9A2E204E
:10594000199990476D1C0199481E01900029DDDCD2
:1059500005E038781A9A7F1C199990476D1C0399B5
:10596000481E03900029F4DC21461A9B199A0498DA
:10597000ACE600002D0000002B000000200000001D
:1059800000000000F8B5044600251E4617468804AE
:1059900004D405E039462020B0476D1C641EF9D5BB
:1059A0002846F8BDFFB50446002581B01E46C80351
:1059B00001D5302700E02027880404D505E03846CB
:1059C0000399B0476D1C641EF9D5284605B0F0BD9B
:1059D0000A68531C0B6010707047DDDDDDDDDCBB39
:1059E000BBDDDDDDDDDDDDDDDDDD988888888888F7
:1059F000888877777777778888888555555666665B
:105A000066666666666666688888833333322222F5
:105A10002222222222222228888D0000000000005B
:105A20000000000000000000000000000000000076
:105A30000000000000000000000000000100000065
:105A40000200000003000000040000000600000047
:105A5000070000000800000009000000000000002E
:105A60000000000000000000000000000100000035
:105A7000020000000300000004000000000000001D
:105A80000000000000000000000000000000000016
:105A90000000000000000000000000000000000006
:105AA0000000000C000C000C000C000C000C000CA2
:105AB000000C000C000C000C0000000C000C00009E
:105AC000000000000000001B001B001B001B001B4F
:105AD00000000000000000000000000000000000C6
