:020000040800F2
:1000000098090020D5000008A93400086F310008C5
:1000100000000000000000000000000000000000E0
:10002000000000000000000000000000D7390008B8
:100030000000000000000000AB340008013A000896
:10004000E700000800000000E7000008E7000008E3
:10005000E7000008E7000008E7000008A91400080E
:1000600000000000ED130008FD130008E700000881
:10007000E7000008E7000008E700000800000000B3
:10008000E70000080000000000000000E700000892
:1000900000000000E7000008E7000008E700000893
:1000A000E7000008E7000008E7000008E700000894
:1000B0000D410008000000000000000000000000EA
:1000C0000348854600F0BAFF00480047854800080D
:1000D000980900200448804704480047FEE7FEE7EF
:1000E000FEE7FEE7FEE7FEE7713A0008C100000800
:1000F00003460B439B0703D009E008C9121F08C041
:10010000042AFAD203E00B780370401C491C521EEB
:10011000F9D27047D2B201E00270401C491EFBD2F6
:1001200070470022F6E710B513460A460446194602
:10013000FFF7F0FF204610BD0FB400B58DB0099059
:100140000B9010A900200091C0430A9000200C9051
:1001500006480690064807906A4609A80F9900F0DD
:1001600059FE0DB008BC04B018470000350E000859
:10017000550E0008FFB50027FF4383B000205C68E0
:1001800001909E681D46A9697F1C049888470090CD
:10019000296A88470028F6D10098401C0CD003201B
:1001A00040028443002E19DD600614D500982B28E8
:1001B00009D02D280FD103E00020C04307B0F0BDC7
:1001C000012080020443A9697F1C04988847761E99
:1001D0000090002E02DD0098302803D005980028FA
:1001E00025D035E0012040020443A969761E7F1C1A
:1001F000049888470090002E03DD782805D0582801
:1002000003D00598002810D022E00598002801D0DE
:1002100010281DD1012040028443A969761E7F1C4D
:10022000049888470090102002E0082000E00A208F
:1002300005900DE0012149020C43059A0199761EB3
:10024000514308180190A9697F1C049888470090C1
:10025000002E05DD0599009800F0C7FD0028E9DAB9
:10026000E96904988847A00502D40120C043A5E7A6
:10027000E00722D1600611D56005019800D5404203
:1002800029680A1D2A600968220501D5087014E052
:10029000220701D5088010E008600EE02868011DE3
:1002A00029600068210502D50199017005E0210748
:1002B000019901D5018000E0016038467EE7FFB575
:1002C000002083B000905068019091691446002688
:1002D00097680498884705460C990698084305D006
:1002E00009E0A169761C049888470546216A2846DA
:1002F00088470028F5D1681C03D00198C00704D0B6
:1003000017E00020C04307B0F0BD2068011D216048
:10031000006800900DE00198C00704D100980570B6
:100320000098401C0090A169761C7F1E04988847A5
:100330000546002F1CDD681C1AD0069800280FD037
:10034000E817C00E401941118A000699400951185A
:1003500040012A1A0968012090400142DBD107E0E0
:100360000C980028D7D1216A284688470028D2D087
:10037000E169049888470C98002807D1002E05DD14
:100380000198C00702D1009800210170A068B8420E
:1003900004DD0C98002804D0002F02D00120C043B7
:1003A000B1E73046AFE70000FFB5087889B01546E1
:1003B000FF2805D0491C2D2804D00022002407E086
:1003C00000240BE00122F9E70A235C430419491CCD
:1003D0000878FF28F8D1002A00D064420020049059
:1003E0002A7801462D2A01D02B2A0FD16D1C2D2AE7
:1003F00002D00022049209E00122FBE700260A2233
:1004000033466D1C00F0B6FC381871412F78FF2F71
:10041000F4D10C9AA218069202460A4304D0FF2394
:10042000069A9133DA4205DA002109980A4606C095
:100430000DB0F0BD0024B74AB54D2646079200F036
:10044000BBFD029006980391002801DA474200E0C4
:10045000074639050020AF4A001C51410191009028
:1004600012E0F80707D022462B463046079900F0E5
:10047000DBFA0646079122462B461046194600F045
:10048000D3FA04460D467F10002FEAD10698019B4F
:100490000028009A0399029806DA00F02DFB3246F4
:1004A000079B00F029FB05E000F0BEFA3246079BEF
:1004B00000F0BAFA049A002A02D00122D207514071
:1004C000099A03C2B4E7FFB591B000200990002556
:1004D000ED432E209E685C681F460190B9696D1C33
:1004E000129888470090396A88470028F6D100980A
:1004F000401C0AD00D20C0018443002E12DD00985C
:100500002B2809D02D280DD103E00020C04315B0C1
:10051000F0BD012080020443B9696D1C1298884720
:10052000761E009003A9600501D52D2000E02B2048
:100530006A461073491C0CA80F9102900AE0B96931
:100540006D1C1298884700900120400204431398C4
:10055000761E0560002E02DD00983028EFD001994C
:100560000098884245D18020044308E00998401E45
:1005700009900120400204431399681C0860B9697E
:100580006D1C761E1298884700903028EED030E01F
:100590000199884205D1200603D480200443761EA9
:1005A0001DE0009804F048FC002825D001214902F4
:1005B0000C43009807AA0F9903323038761E9142F7
:1005C00008D208700F98401C0F90200607D5099894
:1005D000401E03E0200602D40998401C0990A005A3
:1005E00002D51399681C0860B9696D1C1298884778
:1005F0000090002ECCDC59E0002E57DD00986528D5
:1006000001D0452852D1A00550D5032000028443D3
:10061000B9696D1C761E129888470090002E0CDD7B
:100620002B2804D02D2808D1FF2001300443B969BC
:100630006D1C12988847761E0090E00501D52D218B
:1006400000E02B21029801700298401C029001905A
:1006500025E00120400204430EA902980131761ED4
:1006600088420ED20098029930380006000E0870B9
:1006700003D10299019881420AD90298401C029044
:1006800006E0E00501D5244801E0234840420990F6
:10069000B9696D1C12988847009013980560002E68
:1006A00004DD009804F0C8FB0028D2D1F969129843
:1006B00088470F99FF200870029903AA087000204C
:1006C0000A900B900CA90AA8099BFFF76DFEA005E4
:1006D00002D40120C0431AE72420044209D0E007D5
:1006E00013D138680B9A0A99031D3B60006806C055
:1006F0000BE00B990A9800F0D2FA0146E00704D10A
:100700003868021D3A60006801602846FFE6000074
:10071000000014400000F03FF1D8FFFFF8B502469A
:100720004A40D40F42004B0052085B089A4202D262
:100730000246084611464A0023D0C30D4A00DDB2E6
:10074000120EAD1A202D35DA49020126490AF605A6
:100750008A19002C00D0524220214F1B1146B9406B
:100760002A411018C20D9A4221D0002C17D0012D19
:1007700008DCDA05801AD20F8019D207DBB200F04C
:1007800083FBF8BDDA05801A012340001B06C01860
:1007900080185A428018CA0F1043490007E04908E0
:1007A000C2071143DA05801A80194008801800F04A
:1007B00063FBF8BD61000122511A001BF7E701221B
:1007C000D2075140AAE70122D2075040A6E70246CD
:1007D00070B54A40D30FDB0740002DD04A002AD025
:1007E000010E140E000212020919400A520A84185E
:1007F000E50104465443000A120A2E045043A4198A
:100800004219200CC543AA18120C0125AD03521C35
:10081000521912047F39240400D0521C104301D411
:100820004000491EC2B20C06C0092018401C4008F6
:10083000802A02D003E0002070BD4008400000295B
:1008400000DA0020184370BD70B502464A40D50F4B
:1008500040004A00ED0740085208002814D0002A42
:1008600012D0C40DD30D41020120C0055202490A25
:10087000520AE41A091812187D34914201D3641CFB
:1008800000E04900002C01DA002070BD00239142F5
:1008900001D3891A0343400849000028F7D10029F1
:1008A0000AD0914202D10121C90705E0914201D24B
:1008B000012101E00121C943E005C018401900F001
:1008C000DBFA70BDF0B507460846584087B0C00F48
:1008D000049048000E46590040084908BC1A884157
:1008E00005D2384631461E4617460B46024658008A
:1008F000400810434CD0300D039040055900400D86
:10090000490D0590401A0290402872DA180301211F
:10091000000B09050843019004980092002805D0B7
:100920000199524200208841009201900298402192
:100930000A1A0199009800F035FA05460C466B46F4
:1009400007CB00F03FFAC0197141039A0E0D002346
:10095000D71756401A467A40164344D0049A002AC4
:100960002DD0029A012A039A15DC1205C01A914172
:1009700001263605001C7141D20F059ED207009357
:10098000019202962A46234600F0C4FA07B0F0BD51
:1009900038463146FAE71605224A0F46B218C01A01
:1009A000B74101210905001C4F4100187F41114644
:1009B00018187941E20F10436D19644113E0E20702
:1009C0006D0815436408C2071443039A01261205F3
:1009D000C01A91413605001C7141CE0740083043D2
:1009E0004908C01851412A46234600F086FACDE74F
:1009F000FFE7049801224000C117121A00238B411F
:100A000004983146C417381AA141EEE730B40124E6
:100A1000E407634030BC55E730B40124E40761408B
:100A200030BC4FE70000E0FFF0B51FB488B00B9971
:100A30000998002448400999C00F490049080991C4
:100A4000C0070B990090490049080B910999089833
:100A5000A64608431CD00B990A98084318D0099859
:100A600001244000420D4800410D0998240500036F
:100A7000000B204309900B980003000B20430B90C0
:100A800050181C494018002201901446104605E0F9
:100A9000002001460DB0F0BD032801DA034600E056
:100AA00003239C46C11A0AAE0AE05F0008ADED5B65
:100AB0004F00F75B7D430027AA187C41491C5B1E51
:100AC0006145F2DD410004AB5A522104120C0A4385
:100AD000240C401C0828DFDB019802900099704626
:100AE00001910090059B049A0799069800F012FA6C
:100AF000D0E700000DFCFFFFF0B50C465C4085B070
:100B0000E40FE40703944C0000266408590094465F
:100B1000490802460296224321D062460A431ED06B
:100B20006200570D4A000E032303550D01240246AF
:100B30002C492405781B1B0B360B401823432643F6
:100B4000614600901C46501AB44103D30098401CE3
:100B5000009002E0921800985B41002803DA002020
:100B6000014605B0F0BD0020012109050746864673
:100B700011E064461D46141BB54106D36546521B61
:100B8000B341744607430C43A646CD0740084908C5
:100B9000284392185B4105460D43EAD1104618439D
:100BA00013D06046194650407140084306D0604655
:100BB000101AB34106D20122002306E000220123CD
:100BC000DB0702E00122D24353100098744601056E
:100BD000381C6141029C039D0019694100F08DF9A8
:100BE000BFE70000FD0300000122D207002800DB60
:100BF000101A002900DB511A814201D101207047EF
:100C000000207047C217C10F504010B54018CA07E6
:100C10009623002100F038F910BD00000EB5C21770
:100C2000C10F5040CA0740180021054B02930192A2
:100C300000910A460B4600F06DF903B000BD0000BC
:100C400033040000C20F410040020123400ADB05CB
:100C5000D207090EC0187F2901DA002070479629B3
:100C600003DC9623591AC84001E096398840002ACF
:100C7000F4D040427047C20FD207400040080BD06A
:100C8000C10D0723DB01C91840020905400A1143C1
:100C9000C208400711437047002001467047CB0F40
:100CA000DB07490010B5490802460A4307D00A0D80
:100CB00007240903E401090B121B002A01DC0020B0
:100CC00010BDC900440F0C43C100E018D2058018C4
:100CD00000F0D2F810BD70B50446002903D0002002
:100CE0002022012310E0002801D00020C043C0468C
:100CF000C0460DE02546D5408D4205D30D469540B2
:100D0000641B1D46954040191546521E002DF1DC0E
:100D1000214670BDF0B51FB40646002082B00546DE
:100D20004024019100901BE0019922460F46304675
:100D300000F096F9049A059B801A994110D3104649
:100D40001946224600F02EF8361A8F4101972246A6
:100D500001200021009F00F025F838184D41009037
:100D60002046641E0028DFDC019B0098294632469D
:100D700007B0F0BD30B5434351435C18010C130C70
:100D80000D465D432C1980B292B20546554351433E
:100D90000A0C09044D1962415843010C0004401922
:100DA000514130BD10B5202A04DB0146203A914064
:100DB000002010BD914020239C1A0346E3401943B4
:100DC000904010BD10B5202A06DBCB170846203A0C
:100DD0001041C1170B4306E00B461341D0402024BD
:100DE000A21A91400843194610BD3A2800D2303863
:100DF000202302469A43412A01D3104637388842BD
:100E000001D30020C0437047026813785118016075
:100E10001846704710B5D160044951610449116208
:100E200000211161114600F033F910BD090E0008D0
:100E3000831000084268002A08D001680B78491C1A
:100E4000002B03D0521E06C0184670470121C16016
:100E5000881E70474268002A0BD0C3680168002BC7
:100E600007D183688B4204D0491E521C06C0002063
:100E700070470020C0437047002904DA401C490035
:100E800001D140084000704770B40024050C05D122
:100E90001024000402D1002921D01124050E01D113
:100EA00000020834050F01D10001241D850F01D176
:100EB0008000A41C002801DB4000641C002908D02D
:100EC00020252E1B0D46F540A14000D001212943CD
:100ED000084301061B1B000ADB1D02D5002070BC65
:100EE0007047DB05181880180029F8DA401C490003
:100EF000F5D170BC40084000704710B5002B08DAEF
:100F00000024401C614192185B411A4301D1400802
:100F1000400010BDF0B51FB482B005460C0003D0F0
:100F2000084603F0A9FE02E003F0A6FE20300246C8
:100F3000009021462846FFF735FF049B059A04469A
:100F40000F4618431143084314D0184610431BD0D2
:100F5000009840210A1A1846059900F081F80546C4
:100F60000E46009A05990498FFF71CFF084305D028
:100F7000012004E02046394607B0F0BD0020C1172B
:100F800005430E432C43374300990E986305401ADE
:100F90007905E40A00220C43FD0A0A3002D500203C
:100FA0000146E9E70105101969410C9C0D9D0019E6
:100FB0006941FFF7A2FFDFE70EB5054A0292002262
:100FC000009213460192FFF7A5FF03B000BD000099
:100FD000330400004A0009030123090B1B051943D0
:100FE0000A4B10B5520D9A4202DA0020014610BD9C
:100FF000064B34339A4203DC9A1A00F031F810BDE4
:10100000034BD218FFF7CEFE10BD0000FF03000017
:10101000CDFBFFFF10B5002904DB0124E4074042AB
:101020008C412146002B04DB1C460123DB07524286
:10103000A341994200D1904210BD0000064C012509
:10104000064E05E0E36807CC2B430C3C9847103470
:10105000B442F7D3FFF738F8C06B0008E06B000824
:1010600010B5202A04DB0846203AD040002110BDEC
:101070000B46D340D0402024A21A91400843194681
:1010800010BD10B50F21C0B2490200F09DF910BD8E
:10109000F3B58DB000200A9001200B900026084681
:1010A0000C300C4609906269012109989047051E91
:1010B0002ED0252D2DD0216A8847002818D06269AE
:1010C000012109989047216A88470028F7D1411EDD
:1010D00062690998904700E0761CA1690D988847DD
:1010E000216A88470028F7D1E1690D988847DAE737
:1010F000A1690D9888470746A84201D1761CD2E71E
:10110000E1690D9888477F1C02D10A98002877D0A2
:1011100049E1002762693D463946099890472A28E7
:101120000CD16269012109989047012506E00A2146
:101130004F433F18303FEBD4102005436269012133
:1011400009989047014630390A2903D29B498F42BA
:10115000DEDCECE7E90600D4994F6C280AD04C2875
:1011600010D0682824D06A282ED074280CD07A2871
:101170000AD00DE062690121099890476C2823D0BC
:1011800004211CE020200543626901210998904751
:10119000A760656065284FD026DC582839D01ADC56
:1011A000452849D012DC252834D04128B0D143E06D
:1011B0006269012109989047682802D008210D43EF
:1011C000E6E70120C002DEE70220DCE7462833D054
:1011D00047282CD130E05B2870D061282CD06328C0
:1011E0006CD0642823D161E06F284FD009DC6628D9
:1011F00022D0672820D0692826D06E2817D12EE06B
:10120000CDE070284DD073286FD075284ED0782847
:101210000DD154E0A1690D9888470546252800D1D5
:101220006CE7E1690D9888476D1C00D16DE7BAE065
:101230000A224CE00A2252E0012023466A46C043BB
:101240000D99FFF740F9A3E028464021084360606C
:10125000A807234601D5002239E000223FE0E80735
:1012600000D020E72068011D21600068290501D514
:10127000067018E7290701D5068014E7A90703D5EA
:10128000F117066041600EE706600CE72846402132
:1012900008436060A807234601D5082217E008220A
:1012A0001DE0484928460840606016E02846402175
:1012B00008436060A8072346BCD5B9E715E0284677
:1012C000402108436060A80707D52346102201206B
:1012D000C0430D99C046C0465AE023461022012063
:1012E000C0430D99FEF746FF52E000210C910B46DA
:1012F0000091632802D05B2807D043E0E80601D4C0
:101300000120A060012000903CE062690121099861
:1013100090475E2805D101200C900146626909982A
:1013200090472169002906D10B4601AA8F00491C6C
:10133000D3510829FADB002835D0216900290ED1C4
:10134000C117C90E09184A11930001AA9A18490930
:101350004901411A01201368884003431360626900
:101360000121099890475D28E5D10C98002808D004
:10137000002001AB81005A58401CD2435A50082823
:10138000F8DB01AB01202246C0430D99FEF797FF21
:1013900000280ADA401C06D10B98002803D0002050
:1013A000C0430FB0F0BD0A98FBE7E90702D10A99E4
:1013B000491C0A91361800200B9074E6CCCCCC0C5A
:1013C000FFFFFF7FF1F7FFFF7F2801D9002207E031
:1013D000054B42089A5CC00700D112091207120F90
:1013E00001209040084070478A55000880B50248A7
:1013F00000F05AFB80BDC0460802002080B50248BC
:1014000000F052FB80BDC046AC01002010B5044680
:101410000948216C09188030032291436164A0645B
:10142000207808381421FFF756FC1F2101400120C5
:101430008840E06410BDC0460008024010B508496D
:1014400042683F2313405A1E0323134001249C404B
:1014500092005218403102654165846510BDC04656
:101460000009024070B5846CC56C6560046D002C89
:1014700002D0446D856D6560046C1C2525400124F7
:10148000AC40084D2E6826432E6004686360806877
:101490001028134600D00B46A360102800D0114638
:1014A000E16070BD0400024010B50124600200F04C
:1014B00007FCE00300F004FC10BDEFF3108072B6EF
:1014C000FEE70000F0B587B00C4605460021069106
:1014D0005420285C012801D102260FE005912F46F7
:1014E000543701263E70286801F05EFE002808D0BF
:1014F000A86D20210143A96505993970304607B0D0
:10150000F0BD2869616802291DD104210843724990
:10151000884203D12168286801F052FE2068002625
:101520000028E9D501F02EFE21686D4A914200D1D4
:1015300090E06C4A914200D18FE0684A9142DBD141
:101540000121C9058BE004263043634A90422ED125
:101550002168286801F02CFEA2682168286801F043
:1015600045FE206800260028C6D5012501F00AFEA8
:1015700021685A4A91425FD1EA05034613405BD184
:10158000104301F03FFEDC480068DC49FFF7A3FB95
:101590000C2141430C31069106980028ACD00599E6
:1015A0000698401E069006980028F9D1A5E71F204E
:1015B00008400F23029383402A6E9A4304922268C4
:1015C0005303039243D00193D307059B5DD1039A44
:1015D000930755D4530755D4130755D4D306334630
:1015E00053D4039A93065ED453065ED413065ED496
:1015F000039AD3055DD4039A93055CD4039A5305EB
:101600005BD4039A13055AD4039AD30459D4039A8A
:10161000930458D4039A530457D4039A1304029B97
:1016200033D4039AD30352D4039A930351D4019A27
:10163000D6171223334028E0294A914213D12A06B3
:10164000034613400FD1104301F0DCFD54E7530073
:10165000DB0E1AE00121090601E00121890588431A
:1016600001F0D0FD48E71F4A914200D044E7A905A8
:1016700002460A4000D03FE7084301F0C3FD3BE7C4
:10168000012302E0022300E0032383400498034384
:101690002B668808EA69824200D85DE72868039AC9
:1016A00001F098FD58E70523EFE70623EDE7072350
:1016B000EBE70823E9E70923E7E70A23E5E70B233C
:1016C000E3E70C23E1E70D23DFE70E23DDE710233B
:1016D000DBE71123D9E7C04604000080001000B00A
:1016E000004000B8002000B4F0B589B00024089490
:1016F00000282BD00546806D002807D12E46543691
:10170000284600F005F900203070E865286801F0EF
:1017100047FD00281CD0286801F042FD002807D1B1
:10172000A86D10210143A965E86D01242043E865F7
:101730002F465837286801F037FDA96D1022114057
:101740000143A86D15D01043012479E0012478E00D
:10175000286801F00DFD684800686849FFF7BBFA8A
:101760004000801C089008980028D4D00898401E9B
:10177000F8E706920F210591C9430791F339084014
:10178000801CA865286801F007FD002816D06A6B48
:1017900028680021059101F03FFDAA6B28685B498C
:1017A00001F03AFD286901267105884222D00028FF
:1017B0002DD12868816A079A114326E02A462032F3
:1017C000286B411E88410303A868297E89030143D1
:1017D000687EC6030E43A87E029040033043E9684A
:1017E000014319430126F0072B69002B03902BDAE4
:1017F00083432AE02868816AE96989001C311C2238
:101800000A40079B9340296E1943283001602868DD
:1018100001F0BEFC696B884207D10598E865A96DA7
:1018200001200843022188430AE0A86D0699084375
:1018300002218843A865E86D30435C352F46344665
:101840003860204609B0F0BD73051943107B430092
:101850000B43107801280CD10298002807D0A86DFE
:1018600020210143A965E86D3043E86501E03004BB
:101870000343686A0028049605D0072189010840BF
:101880001843AB6A03432968C8681D4E06401E43CF
:10189000CE60032080076E68334602900340E86CF8
:1018A000127F0343012A0CD1286C6A6C0092AA6C47
:1018B00001921843009A1043019A1043049A10436E
:1018C000034608690F4A02401A430A610398864298
:1018D00000D15CE70298864200D158E7049880075F
:1018E000864200D153E705988004064006490A68FD
:1018F0008243901908604AE764000020400D03000D
:101900000102FEFF02FCFF1F0827014004FFFF0742
:10191000F0B58DB000260C960B960A96099608969F
:101920000796069605960496039602960268224943
:101930008A4201D00DB0F0BD009006960127B80391
:10194000029002A800F02EFB002801D0FFF7B5FDA1
:101950001A48C16808973A051143C160C16811402F
:101960000191019901683943016000683840019094
:101970000A960320099001980524200708A900F081
:10198000B5F90F4D2E622020B9023A0280230D4F87
:101990002F606C60AE60EE602B616A61A961E861E6
:1019A000284600F0DDF8002801D0FFF786FD0098FA
:1019B000A86205650DB0F0BD00240140341002405E
:1019C000AC0100201C00024070B500282AD001465E
:1019D00024314A78022A27D1046822680E239A43C8
:1019E0002260426C15682F4B1D401560256801224E
:1019F00095432560046C1C2525401446AC40574D8A
:101A00002E6826432E60846CC56C6560046D002CC6
:101A100005D025681D402560436D806D58604A7073
:101A2000002004E0012070BD0422C26301200022D6
:101A30000A7070BD70B52521415C02292DD1014687
:101A4000243103681A680E24A2431A601C6801221C
:101A500094431C60446C2568124B1D402560046C47
:101A60001C2525401446AC403C4D2E6826432E6074
:101A7000846CC56C6560046D002C05D025681D4024
:101A80002560436D846D5C6000240C704A70816B2E
:101A9000002900D08847204670BD0421C16301247D
:101AA000204670BDFFFEFFFFF0B581B0016C1C2425
:101AB0000C402A490A1F156802681668730714D576
:101AC00004210F46A7403B462B400ED013689B06CF
:101AD00002D413688B431360204A116839431160A4
:101AE000016B00291CD101B0F0BD03462433B107BE
:101AF00019D50227A7403946294014D01168890614
:101B000005D411680A24A1431160012159700021F4
:101B10001970124A116839431160C16A0029E2D074
:101B2000884701B0F0BD3107DDD50821A14029402B
:101B3000D9D011680E25A943116001210A46A2409F
:101B4000064D2C6814432C60C16300221A70597032
:101B5000416B0029C7D0884701B0F0BD04000240A6
:101B6000F0B583B0002843D004460146243102205A
:101B70000291487026683068244901403160244849
:101B800030181421FFF7A7F880002064A1682746C9
:101B90000C378DCFE5690095256A01950843104300
:101BA00018433843009908430199084331680143B9
:101BB00031602046FFF72AFC0126B003A16881426C
:101BC00001D10020606060683F210140626C1160BB
:101BD000A16CE26C4A60401E03280CD82046FFF737
:101BE0002DFC206D00210160606DA16D416006E05B
:101BF000012003B0F0BD002020656065A0650020D5
:101C0000E063029908704E7003B0F0BD0F80FFFFD3
:101C1000F8FFFDBFF0B581B005462420285C0128FF
:101C200001D1022437E0284624300124047046788C
:101C3000012E12D1022444700024EC632868076846
:101C40000126B74307602846FFF70CFC28680168A7
:101C50002A6B002A06D00E2209E0002101708020A4
:101C6000E86318E004229143016002680A211143ED
:101C700001603002696C0A68D20302D50A68024327
:101C80000A60296D002902D00A6802430A602868A8
:101C9000016831430160204601B0F0BDB0B5044693
:101CA00000F0F8F80546601C02D09B480078041943
:101CB00000F0F0F8401BA042FAD3B0BD704700001E
:101CC000B0B50446074D2868204203D02C6020465A
:101CD00000F00AF86868204203D06C602046FFF7E5
:101CE000EDFFB0BD0C18024070470000F0B588B0A1
:101CF0000B460968002900D1B7E002465C488242E1
:101D000001D0052000E003200090012400200546BA
:101D100006900746019407920FE03843039F564907
:101D2000086019680846E040069E361D0696AD1C00
:101D30000837641C002800D197E0661E01980596BC
:101D4000B04001400291ECD0039719465B6803262E
:101D50001F46049637407E1E012E13D8049EAE40C7
:101D6000079A9268B243CE68AE401643079A9660CF
:101D7000DA06D20F059B9A40079B5B6883431343A7
:101D8000079A5360032F0B46049E1ED03046A8408E
:101D9000079AD26882439868A8401043079AD06097
:101DA000022F12D11C20069A10400F268640059A59
:101DB000D2089200079B9A18136AB3430E698640B3
:101DC0001E430B461662049E079A3046A8401168CF
:101DD0008143586882033040A8400843079908604F
:101DE000900F079A039F9CD0182139400F208840FC
:101DF000059FB7431F4EF619376E8743603605209F
:101E0000000782420AD01D48824205D01C48824207
:101E1000009804D1022002E0012000E00020884068
:101E200038433060134800685E68F10202D5029FB3
:101E3000384301E0029FB8430E4908604868B10288
:101E400001D5384300E0B8430A4948600A48406871
:101E5000B10301D5384300E0B8430749486008683A
:101E6000F10300D559E7B84358E708B0F0BDC046C4
:101E7000000C00500018024080180240000400507E
:101E800000080050002A02D01822815070472822F2
:101E900081507047054800687047C0461E4800786A
:101EA00002490A68101808607047C0469005002073
:101EB00010B501242002F4490A6802430A60032095
:101EC00000F00AF8002801D0204610BD00F026F8E6
:101ED0000024204610BDC046B0B505460E48017826
:101EE0000124002916D07D20C000FEF7F4FE014633
:101EF000EB480068FEF7EFFE00F0A6FD032D09D8C1
:101F0000002807D10024E0432946224600F020F8AB
:101F1000E04805602046B0BD7C00002082B0094842
:101F200041680122114341604168114001910199CA
:101F3000110702680A430260006808400090009898
:101F400002B070473C10024080B502F0E5F880BD59
:101F500080B502F0EDF880BDF0B581B003256902CF
:101F60006E4E32688A430243326001214A020024E5
:101F7000904212D1CA480268706940050DD58F029F
:101F8000062050430649FEF7A6FE801C401E03D0E3
:101F900071693942FAD100E02C46204601B0F0BD0B
:101FA00040420F00F0B587B00646807880075A4F50
:101FB00001D400253EE0059601221107203F386834
:101FC0000840049006D138680843386038680840F3
:101FD0000690069802970391019216024F4C2068D2
:101FE00030432060FFF756FF05462768374006D18B
:101FF000FFF750FF401B0328F7D3032500E000251F
:10200000059E002F01D1444F0CE003242102424FD2
:102010003868084055D07269904256D1C00761D1E6
:10202000002D70D00498002804D1029A10680399FA
:10203000884310603068C10707D0394608390A68FC
:1020400003239A43736813430B60810608D5032169
:1020500009033A46083A13688B43B1681943116083
:102060000121420417D53A46083A13682D4C234003
:102070000C4629463546366933431360294A521CBB
:1020800096422E460D46214605D10A043B46503B5A
:102090001C6814431C60000510D5880303229203BA
:1020A0003B46083B1C689443F26814431C60824220
:1020B00004D10804503F396801433960284607B00D
:1020C000F0BD0020C007ABD00CE03868019A1204C4
:1020D0003B6813433B603B6893433B6088433860F5
:1020E000C0079DD00194FFF7D5FE06460C4C38681A
:1020F000800705D4FFF7CEFE801BA042F7D3019DD9
:10210000059E002D8ED1032000023968814370693D
:1021100008433860002585E75C10024000700040ED
:1021200089130000FFFFFF3FF0B583B00D4601218A
:10213000002800D1A5E001910290534800680724CF
:102140002040A84214D250490868A04328430860A0
:102150004E4EFFF79FFE07464B4800682040A842BE
:1021600006D0FFF797FEC01BB042F5D9032188E0E7
:10217000029B18688107734E0CD5410703D52103D4
:1021800032680A4332600F21090232688A43996833
:1021900011433160C00719D13B4800682040A84274
:1021A00029D939490868A04328430860374FFFF709
:1021B00071FE0646344800682040A8421BD0FFF755
:1021C00069FE801BB842F5D903215AE058680328FC
:1021D0002FD8810001A251585A4A8F46ED2100089C
:1021E00039220008432200084D2200081146083910
:1021F000096849052CE0029A10784007514D05D531
:10220000200329688143D0680843286000F05CF807
:10221000296889093C220A401D4989581F220A4021
:10222000D0401F4908601B480068FFF755FE014673
:1022300027E0444A516D0AE01146083909688903CC
:1022400006E0114608390968890101E0916D8907A6
:10225000019916D51168A143014311600B4FFFF797
:1022600019FE064637480068382101400298406848
:10227000C000814290D0FFF70DFE801BB842F1D91B
:102280000321084603B0F0BD00200240881300007F
:10229000CC55000880000020014800687047C04607
:1022A0006400002010B5FFF7F7FF044600F0BEFF02
:1022B000000B8000034908581F210140CC402046F4
:1022C00010BDC0460C56000810B51E4C2068800694
:1022D000400F06D0226838210A401B48082A07D13F
:1022E00010BD083C20688004410F1848C84010BD4C
:1022F00022680A40102A15D1616803220A40032A85
:1023000000D0124861684906490F491CFEF7E3FCFA
:1023100061684904490E48436168490F491CFEF74A
:10232000DAFC10BD20680840202802D10120C0033B
:1023300010BD20680840182801D0002010BD7D2065
:10234000000210BD0810024000127A000024F400C0
:10235000F0B587B00127002800D1F8E10497059077
:102360000078C007FD4E2CD10598007880074CD42A
:102370000598007800070DD5B0683821014018296C
:1023800000D0A6E0306E800704D50598806900284B
:1023900000D1E1E105980078400700D45FE1B06822
:1023A00038210140202900D0AAE0F06D800700D438
:1023B00052E105988068002800D04DE100200127F7
:1023C0004BE1B068F16803273A468A43382101405F
:1023D00010204840821850425041082945D000281A
:1023E00043D105984268052000048242039200D13F
:1023F000B8E0012001048A4200D1B9E032688A4382
:102400003260810430688843B4E0B1683820084005
:1024100010214140F26803273A4002235340CA1872
:102420005142514100282BD0002929D13068012187
:102430008C02059BDA68002A00D1B8E00722D2029C
:1024400090431A69024332600802316801433160E7
:10245000FFF720FD05463068204200D0B7E0FFF7C7
:1024600019FD401B0228F6D971E13068800300D4C1
:102470007AE705984068002800D075E7049F66E178
:1024800031684905059B03D5D968002900D1B9E019
:102490007F21090272688A435969090211437160F8
:1024A00000280DD10720C002316881431869084314
:1024B000306030688004400FAB49C140AB480160D8
:1024C000AB480068FFF708FD002800D150E7049FE3
:1024D0003DE1306E05998969002900D181E0012133
:1024E00008433066FFF7D6FC0546306E800700D5FE
:1024F00050E7FFF7CFFC401B03270228F5D926E160
:10250000012003900107F06B0840029006D1F06BA8
:102510000843F063F06B0840069006980191954CD3
:102520002068C00510D40398070220683843206053
:10253000FFF7B0FC05462068384205D1FFF7AAFC3A
:10254000401B0228F7D975E005988468052C5BD0FC
:10255000012C5DD0F06D03998843F065F06D042186
:10256000884358E00120810432680A433260010444
:1025700030680843306001204404FFF78BFC0546B7
:10258000039800280FD03068204200D0ECE6FFF717
:1025900081FC401B6428F6D9D9E0FFF77BFC401B87
:1025A000642800D9D3E030682042F6D1DCE6090285
:1025B00088433060FFF76EFC05463068204200D14A
:1025C000D6E6FFF767FC401B0228F6D9BFE07F2064
:1025D00000027168814305984069000208437060F9
:1025E000C6E6012188433066FFF754FC0546306E8D
:1025F000800700D4CEE6FFF74DFC401B03270228DE
:10260000F5D9A4E0049FA2E0F06D04210143F16537
:10261000F06D03990843F065574FFFF73BFC054603
:10262000002C0FD0F06D80070FD4FFF733FC401B58
:10263000B842F7D9002003270FE0FFF72BFC401B1F
:10264000B842F7D8F06D8007F7D40298002803D17C
:10265000F06B01998843F0630120002877D005983A
:10266000C469002C72D0B06838210140102903D110
:10267000012C18D1049F6AE00127390630680491C3
:1026800088433060FFF706FC0546022C2CD10397E7
:102690007C063068204232D0FFF7FCFB401B03274A
:1026A0000228F6D953E0F06803210140059B1A6A1D
:1026B00091424FD1702101405A6A914250D17F21FD
:1026C000090201409A6A120291424BD11F2149042A
:1026D0000140DA6A9142049F39D107214907084035
:1026E000196B884233D131E07C063068204229D012
:1026F000FFF7D0FB401B03270228F6D927E0F0683C
:102700001F490140059F2037ADCF084310431902F0
:10271000014329433943F16030680499084330602C
:1027200003980007F1680143F160FFF7B3FB05462A
:10273000306820420AD1FFF7ADFB401B0327022877
:10274000F6D904E0F0680D490140F1600027F8B2C5
:1027500007B0F0BD049FFAE7049FF8E700100240BD
:10276000049FF4E7049FF2E70024F40064000020D3
:10277000800000200070004088130000FCFFFEEF86
:102780008C80C11FF0B585B000280CD004460546EA
:102790005C3541208600606A002807D00020206157
:1027A0002046143007E0012005B0F0BD6068B0425B
:1027B00003D020461C30002101600027A762687802
:1027C000002804D100202870204600F057F802208D
:1027D000049501906870206801684022914303903D
:1027E0000160E168974A012591422A4600D33A46A2
:1027F0001203ED020D430F2738020290854201D0EB
:102800000025A5626568A768354021239B023B40EF
:102810005B192569019805401D4360690123184033
:102820002843FC36A7693E400643E0693825054049
:102830003543206A802606402E435803A56A05408A
:102840003543039E3560380C04250540029801404D
:102850000A432A43606A102101401143606B082239
:1028600002400A437260D802F1698143F16100209D
:10287000206604994B7005B0F0BDC04610B586B017
:102880000021059104910391029101910068124A7F
:10289000904201D006B010BD012002030F4BDC684E
:1028A0001443DC60DC6814400094009A1A68024308
:1028B0001A601A6802400092059104910391022067
:1028C00002908220019005200007009901A9FFF7DE
:1028D0000DFA06B010BDC046003001403410024071
:1028E000F0B587B004465C20205C012802D10220AC
:1028F00007B0F0BD154605910493274644370126DD
:102900003E76FFF7C7FA0390787E012842D10599F9
:102910000029304600D18FE0002D304600D18BE0F9
:10292000029603200090787600202066E587A58730
:10293000A16320643880E0642065019078800120E4
:10294000C103A2688A4208D121680A6840239A43D9
:102950000A6080030A6802430A6020680168490629
:10296000049E03D4016840220A43026061684A421F
:102970004A416B1E594259411143E268314B9A4218
:102980000AD30029039D10D0A16B0988C160059866
:10299000801C06E002204FE00029039D21D005990C
:1029A00017E0A063E08F401EE087E08F00282BD067
:1029B00020688168890707D4FFF76CFA711CF4D08E
:1029C000401BB042F1D31AE0A16B0A88C260881C98
:1029D000E7E709780173A06B401CA063E08F401EFD
:1029E000E087E08F00280FD020688168890709D42C
:1029F000FFF750FA711CF4D0401BB042F1D3029E95
:102A0000009819E0A16BE4E7204631462A4600F021
:102A10004DFD002801D020202066A0680028029EDD
:102A200007D1019806902068C168069180680690D9
:102A30000698206E411E8841002139767E7607B0C7
:102A4000F0BDC0460107000080B500F0C5FF80BDA5
:102A5000B0B58021415C012901D10220B0BD024600
:102A600080322421516001680B680C680125AC4359
:102A70000C606C07A3430B6000214166117020209D
:102A800050600846B0BD7047704770B5044680205E
:102A9000205C012801D1022070BD2546803524200C
:102AA000686020680668026801239A4302602B7000
:102AB00007225206836893430B438360204600F04D
:102AC000D9FF20680660002028702021696070BD51
:102AD00070B504468020205C012801D1022070BD21
:102AE0002546803524206860206806680268012336
:102AF0009A4302602B7007225207836893430B436B
:102B00008360204600F0B6FF206806600020287031
:102B10002021696070BD704770477047F0B587B07D
:102B200006900768FA6920260125E9020B462F3333
:102B300013403C68B868202B12D1234633400492DE
:102B400022462C070440E3181446049A08D006983D
:102B5000016F002900D16DE10698884707B0F0BDEC
:102B6000059404950B460F331340069D5C35002BEE
:102B7000029000D186E0B04B059C2340049C2407C2
:102B80000094641C0440E3187CD00191039629460C
:102B9000D307049D08D02B02059E334004D03D622C
:102BA0000E460B6B2B430B6303462B4096070D46DB
:102BB00007D5002B05D002263E62296B04260E4362
:102BC0002E635607039907D5002B05D004233B62DB
:102BD0002B6B02261E432E63130708D5059B0B4063
:102BE0001C4304D008233B622C6B1C432C630198CC
:102BF0000242069E059C08D0049B9B06234004D0FD
:102C000001983862286B08432863286B002800D19C
:102C100010E1039802400AD004400298009908404D
:102C2000204304D0316F002901D030468847286BFB
:102C3000282101403068806840242040401800D19D
:102C4000E5E0304601F066F830688068400600D460
:102C5000CBE0EFF31080049981F3108831688A6823
:102C6000A2438A6080F31088F06F002800D1BCE096
:102C700072498163FEF7DEFE002800D1DAE0F06FD2
:102C8000816B6AE7059C20461040C3060699CB6E0F
:102C90003DD5012B3BD1039610263E62B96849060B
:102CA00044D469882A886B88002B00D1C2E0511A6D
:102CB0000A0400D1BEE0EFF31082049F87F310886E
:102CC00009235B0106980468059525689D432560E6
:102CD00082F31088EFF3108287F3108803689C68F2
:102CE000584D25409D6082F31088039A059BDA6257
:102CF00000220267C266EFF3108287F31088036830
:102D00001C68B4431C6082F3108889B259E0D30276
:102D10005BD5049B9B0502990B4056D00498000597
:102D200038620698FFF7F8FE07B0F0BD0698C16F4D
:102D300009684A6893B2002B00D17BE02C88A3423B
:102D400000D377E06A800968890635D4EFF31081F3
:102D50002F46049D85F31088394A2032069803686F
:102D60001C6814401C6081F31088EFF3108185F318
:102D7000108802689368AB43936081F31088EFF387
:102D8000108185F31088026893684024A343936000
:102D900081F310880399F9620021C166EFF3108175
:102DA00085F310883D4602681368B343136081F3CE
:102DB0001088C06FFEF708FE68882988081A81B25B
:102DC0000698FFF760FE07B0F0BD130612D580230A
:102DD0002340049CE40502992140059CCB1809D0AE
:102DE0000698416F002925D0B6E63046FFF795FEDC
:102DF00007B0F0BD400611D4100214D50498800726
:102E0000204010D00698FFF786FE07B0F0BD304690
:102E1000FFF783FE0020286307B0F0BD069800F09E
:102E2000A9FF07B0F0BDD00104D5002C02D506984B
:102E3000FFF72AFE07B0F0BD20010004013C0008A6
:102E4000DFFEFFFFFEFFFFEFB0B5002830D00446E5
:102E5000054680356868002804D100202870204687
:102E600000F028F824206860206801680125A94343
:102E70000160204600F0B0FF012817D0A06A0028AA
:102E800002D0204600F01AFE0920C00221684A68DC
:102E900082434A6088682A22904388600868012239
:102EA00002430A60204600F073FE05462846B0BD86
:102EB0000120B0BD70B58CB0044600260B960A9672
:102EC0000996089607960696059604960396029626
:102ED000019600683549884229D03549884263D136
:102EE00002960124019401A8FFF75CF8002801D0A4
:102EF000FEF7E3FAA0032F49CA680243CA60CA6812
:102F0000024000920098022008900A6802430A607A
:102F10000968014000910B960A960996C020079017
:102F20000098274807A9FEF7E1FE0CB070BD2148C4
:102F3000826801210B914B041A43826082681A4017
:102F40000092009A02680A430260006808400090FC
:102F50000A960996022008900C20079000980520F8
:102F6000000707A9FEF7C2FE134D2E622020802124
:102F70003422124B2B606A60AE60EE6029616E6194
:102F8000AE61E8612846FEF7EBFD002801D0FEF7B0
:102F900094FAAC62E5671C24002120460A46FEF73D
:102FA000D7FF2046FEF7D0FF0CB070BD00440040B4
:102FB000003801403410024008020020080002409E
:102FC0000004005070B58823C3580225202B2BD154
:102FD0000123002926D0002A24D001242303866857
:102FE0009E4204D10369002B01D1CB071ED10646B6
:102FF00080363378012B2B4614D00023C3663470FF
:1030000003685B681B020AD5EFF3108384F3108812
:10301000A40605682E6826432E6083F3108800F00E
:10302000A7FF0346184670BD284670BD204670BDF8
:1030300010B5ACB009480168491C016001F090F975
:1030400001AC204601F094F80548AC222146FDF77A
:103050004FF80448012101702CB010BD98000020E9
:103060009C000020EA03002070470000F0B587B004
:103070000E460746842039580220202935D10125E3
:10308000002E33D00492002A30D001210C03BA68FC
:10309000A24204D13A69002A01D1F20761D1039416
:1030A0003C4680342278012A05461FD005932246EB
:1030B0003C4654340025D5601170212002925060A6
:1030C000FEF7E8FE0690049860802080B8680399B7
:1030D00088420ED1386900280496059901D0002253
:1030E0000492002807D1064605E00546284607B0A9
:1030F000F0BD049505990298057007E030783968AD
:103100008862761C05996088401E6080608800286F
:1031100015D000918021002538462A46069B00F0F4
:103120007DFF002817D1002EE8D1049A10880E499F
:10313000084039688862921C04922E46E2E70091AA
:103140004021002538462A46069B00F067FF0028EC
:1031500003D00325CAE70325C8E720200299486069
:10316000C4E70D46C2E7C046FF0100007047FEE716
:103170008168034A0A40012109075118816070479C
:10318000E8FFFF6F0720810522480068084070476C
:103190004169072008407047816801200840704756
:1031A0008068C000C00F704780684007C00F70473C
:1031B000024A0A40816A114381627047FFFF07009B
:1031C000C943034A0A43816A114081627047C0467D
:1031D0000000F8FF1F230B409100090F99400F22B8
:1031E0009A40836A93430B438362704709024369A1
:1031F0008B430A4002491140194341617047C04660
:1032000000FFFF0707218905024A13688B43034328
:10321000136070470827014004230B409A400721A0
:10322000994043698B43134343617047072001036F
:10323000014800680840704708100240B0B584B0EB
:103240002C211548002444543C214454C464446255
:1032500084620125C5618476048304210F4A0463D6
:1032600044638463AB071CC00460446081600394C2
:10327000029401940C38FEF737FA00280AD103941F
:1032800002940195044801A9FEF71CF9002801D118
:1032900004B0B0BDFEF711F9480100200024014040
:1032A000B0B582B00E480168012211430160006888
:1032B00010400190019809240025204629462A46FD
:1032C000FEF746FE2046FEF73FFE0A24204629462A
:1032D0002A46FEF73DFE2046FEF736FE02B0B0BDA0
:1032E00038100240F0B589B0002408940794069481
:1032F000059404943148016802252943016001685E
:103300002940029503910399016804221143016049
:103310000168114003910399016801273943016055
:103320000068384003900398052000070190244965
:103330002246FEF7A7FD234829462246FEF7A2FDB6
:1033400006941120050405957802049004AE1D48EA
:103350003146FEF7CBFC06940595F80304901A4815
:103360003146FEF7C3FC0298079006940597832028
:1033700000010490019D28463146FEF7B7FC0794F2
:103380000694059741208001049028463146FEF7B7
:10339000ADFC0794069405970298049009483146BD
:1033A000FEF7A4FC0725284621462246FEF7D0FD5D
:1033B0002846FEF7C9FD09B0F0BDC04634100240F2
:1033C000701800000004005000080050B0B5F2482A
:1033D000082200210723016241628162C362016306
:1033E00042631822094C1B024125AD0030C0FC3558
:1033F000016043608160C160056142610838FFF788
:10340000C1F9002800D1B0BDFEF757F800300140E7
:1034100010B5144800210C22134B016241628162F5
:10342000E124640218C0016041608160C2600161F2
:1034300041610838FFF708FD002811D10948002133
:10344000FFF746FB00280BD106480021FFF71DFBC4
:10345000002805D10348FFF7FBFA002800D110BD72
:10346000FEF72BF8C80200200038014010B50C48C8
:1034700000210C220B4B016241628162E124640253
:1034800018C0016041608160C2600161416108381B
:10349000FFF7DAFC002800D110BDFEF70EF8C04699
:1034A0005803002000440040FEE77047F0B581B0AB
:1034B00016460F4605460324E1023A46334600F01D
:1034C0001BF800280FD128463946324600F086F80E
:1034D000002808D10320410228463A46334600F02E
:1034E0000BF8002806D0286E2021014329662046CB
:1034F00001B0F0BD0024FAE7F0B589B01E461446CD
:103500000F46029007A800250570FEF7C3FC301A8D
:1035100006940419FEF7BEFC029A04905C48006809
:1035200023214143080D05946043089010680390DF
:103530008068384226D010465C30019003E0106865
:10354000806838421CD003267002874204D1039859
:10355000007B07A9087007980698401CEFD0144616
:10356000FEF798FC0499401A059988420CD20898F5
:103570000899491E089100282246E0D10590DEE70F
:103580002E4628E02E4626E0234620684168E022A9
:10359000914341604121890062688A420CD1996857
:1035A0000122D3039942234602D09202914203D1D1
:1035B000016840229143016001214A039B6A9342C2
:1035C00005D103689343036003681343036000203D
:1035D000019A10705170304609B0F0BDF0B583B05B
:1035E00016460D460446FEF755FC301A4719FEF7FD
:1035F00051FC0646264800684001000D78430290C1
:103600002068806800210191000602D4019803B06F
:10361000F0BD20465C30009003E020688068000622
:10362000F4D5681CF9D0FEF735FC801BB84207D2F0
:1036300002980299491E02910028EED10746ECE754
:1036400020684168E022914341604121890062681D
:103650008A420BD1A1680122D303994202D092027F
:10366000914203D1016840229143016001214A0344
:10367000A36A934205D1036893430360036813432D
:1036800003600020009A10705170032003B0F0BD59
:103690006400002080B505200007012109030022F5
:1036A000FEF7F0FB80BD80B5052000070122110365
:1036B000FEF7E8FB80BDF0B581B00678002E1ED085
:1036C000441C04E0FEF7EAFA641C300617D02078A8
:1036D00000F01CF967787F253D40A41C002D04D024
:1036E0002046294600F026F96419761E78B2002893
:1036F000EBD52078FF28E5D17D208000E2E701B0FE
:10370000F0BD0000F0B585B09F2843D80E467F2954
:1037100040D81C46154607461018A02801D9A020FD
:10372000C51B0A980390E819401EC0B20290A01968
:10373000802801D98020841BA019401EC0B20190AE
:1037400000F062F8F8B2F1B2029A019B00F065F85D
:1037500004A803994170090A01700520000720217F
:103760000122FEF78FFB200412D07B4E02E0641E84
:1037700020040DD02804FAD02F460020C34304A90A
:1037800002223046FFF7ACF87F1E3804F5D1EEE791
:1037900000F069F805B0F0BD6402002080B582B089
:1037A00000900020A02280230146FFF7ABFF02B06B
:1037B00080BD000080B500F027F800F013F806483F
:1037C000FFF779FF0548FFF776FF0548FFF773FF1E
:1037D00000F049F880BDC0461C6B0008576B00081C
:1037E000646B000870B505242507102600222846C2
:1037F0003146FEF747FB2046FEF750FA01222846E5
:103800003146FEF73FFB70BD80B505200007012162
:10381000C9020022FEF736FB80BDF0B581B01D461F
:1038200016460C4607462A2000F070F8701C6E46BB
:10383000F0700020B070791C717030700427304631
:10384000394600F077F82B2000F060F8A81CF070E3
:10385000A01C70703046394600F06CF82C2000F047
:1038600055F801B0F0BD80B5052000070122D10256
:10387000FEF708FB80BDF0B589B01D4616461A1844
:10388000521ED2B21C0A63185B1EDBB2C0B2C9B2B0
:10389000FFF7C3FFE0B20290002834D0EDB20E98DB
:1038A000009010990F9A203E029846430196059188
:1038B000080A04901446100A06900020039005E0C0
:1038C0000399491C0298039181421CD0002DF7D026
:1038D000019803990818400000990E5A00270AE041
:1038E00007A80599417004990170022100F022F89F
:1038F0007F1CBD42E4D03046B8400004F0D508A893
:1039000044700699F0E709B0F0BD0000B0B582B090
:1039100001AC207005200007202100252A46FEF773
:10392000B1FAEB430C4801222146FEF7D9FF02B061
:10393000B0BDC046B0B50D460446052000072021A5
:103940000122FEF79FFAAAB20020C3430248214693
:10395000FEF7C6FFB0BDC04664020020F0B589B0D6
:10396000089314460D460646FFF74EFF2278002ABC
:103970002DD00899080AC0B204900E9807901098AC
:1039800006900F980590671CCCB211E00798009044
:103990000598019006980290B0B2A9B2D2B2089BE5
:1039A000FFF769FF3619781C3A78002A07460ED0CF
:1039B000B0B22018A028E9D304996D18A8B208184D
:1039C0007F2804D8D0B200262028DFD1EBE7FFF70C
:1039D0004AFF09B0F0BD7047B0B5401E010E01D0DE
:1039E0000120B0BD054D68600024E043032100F0D4
:1039F0009FFBAC60072028602046B0BD10E000E0CF
:103A000080B5FEF74BFA80BDF0B591B004AC34211F
:103A10002046FCF786FB0026039602960196009648
:103A200001277802FEF798FA7807109078040F9033
:103A300008200E900D9602250C950B9540200990BC
:103A400008963802079004952046FEF781FC00286E
:103A50000CD10396029607200090019568462946EE
:103A6000FEF762FB002801D111B0F0BDFDF725FD86
:103A700070470000F0B581B004466834416E0029FB
:103A800013D0006885688068400F0A4E315C0A4F89
:103A9000385CC000FDF71FF960802801400F315CE1
:103AA000385CC000FDF717F901E00120608020803C
:103AB00001B0F0BD146B00080C6B0008B0B5816A52
:103AC000CA070CD18A0714D44A071CD40A0724D485
:103AD000CA062CD48A0634D44A063CD44CE00122CF
:103AE000520403685C689443C26A22435A608A079E
:103AF000EAD50122120403685C689443026B2243F6
:103B00005A604A07E2D50122920403685C68944334
:103B1000426B22435A600A07DAD50122D2030368B6
:103B20005C689443826B22435A60CA06D2D5012254
:103B3000120303689C689443C26B22439A608A060E
:103B4000CAD50122520303689C689443026C224345
:103B50009A604A0610D501221305026854689C43F6
:103B6000456C2C4354609D4206D103235B05546889
:103B70009C43836C23435360090607D50121C90484
:103B8000026853688B43C06C18435060B0BD00009E
:103B900070B582B005468C2000242C50FEF77AF9CF
:103BA00006462868006800070CD5144800900120DC
:103BB000410500222846334600F030FA002801D0A3
:103BC000032417E02868006840070CD50B480090D4
:103BD0000120810500222846334600F01FFA002804
:103BE00001D0032406E02846803020214160816016
:103BF0000470EC66204602B070BDC046FFFFFF01B6
:103C000080B5806A0146563100220A81562142520F
:103C1000FEF783FF80BDF0B581B0846A842021580F
:103C2000254684356F6820688068264656362129E7
:103C300007D18021084004D000203080204600F0C9
:103C4000AEF820688068222F07D14021084004D0B8
:103C500000203081204600F05DF8A8681021014363
:103C6000A9602046FEF759FF01B0F0BD70B50146CE
:103C7000806A02465C3209680968890632D40021EC
:103C80005180EFF31083012181F310880C02056845
:103C90002E68A6432E6083F31088EFF3108381F320
:103CA00010880468A5688D43A56083F31088EFF33E
:103CB000108381F310880468A5684026B543A56089
:103CC00083F310882023D362C36E012B0AD1EFF354
:103CD000108381F3108801680C681025AC430C60D8
:103CE00083F31088C16E012903D11188FEF7CBFE42
:103CF00070BDFFF79DF970BD80B5806AC16E012966
:103D000005D15C21415A4908FEF7BDFE80BDFFF791
:103D1000ABF980BDB0B5EFF31082012181F31088BB
:103D200009235B01046825689D43256082F31088A0
:103D3000EFF3108281F3108803689C680C4D2540D6
:103D40009D6082F31088C26E012A0AD1EFF31082BF
:103D500081F3108801680B681024A3430B6082F381
:103D6000108888212022425000210167C166B0BD21
:103D7000FEFFFFEF10B5EFF31081012282F31088F0
:103D8000026813684024A343136081F310888421E0
:103D90002022425000214167FFF7E8F910BDB0B57D
:103DA000EFF31081012282F3108803681C68C0259C
:103DB000AC431C6081F31088EFF3108182F310880C
:103DC000D20503689C6894439C6081F31088842129
:103DD00020224250B0BD0000F0B581B0044600681A
:103DE0000168564A0A40A16823690B4365691D436F
:103DF000E1690D43154305600322120343689343B1
:103E0000E2681A434260A269236A134382684C4DF8
:103E100015401D438560C26A0F239A43636A1343AA
:103E2000C362484A904209D0474A904208D1474865
:103E300000688007000F46A2135802E0002300E04C
:103E40001023264668360125EA034548914211D1E0
:103E5000082B21D80027C0467B441B795B009F4478
:103E6000041B221B201B1B1B3D00FEF71BFA002816
:103E70001BD136E0082B36D80027C0467B441B797F
:103E80005B009F4404303730353030304E00FEF751
:103E900009FA002830D147E000200127002804D18A
:103EA0001FE0FEF711FA00281BD0616A49002D4A75
:103EB000515AFCF710FF400061684A081018FCF7DF
:103EC0000AFF0246103A28498A422ED201400007D2
:103ED000400F08432168C8603D4626E01046002890
:103EE000E3D13D4621E000200127002804D11BE05A
:103EF000FEF7EAF9002817D0616A4900194A515AB9
:103F0000FCF7E9FE61684A081018FCF7E4FE014678
:103F10001039154A914208D2216880B2C8603D46E6
:103F200003E010460028E7D13D46104830600020ED
:103F300020676067284601B0F0BDC046F369FFCF37
:103F4000FFF4FF11004400400038014054100240CB
:103F50000000000004000000020000000800000053
:103F60000024F400F46A0008F0FF000001000100E2
:103F7000F0B581B013460A4605468C2000242C502B
:103F80005C202B52882022212950AA65E86F2E46FA
:103F90008036002813D01F4F1F49C16207631C4998
:103FA0004163846329682431FDF734FE002806D07C
:103FB0001020F06034702020B060012425E03470BF
:103FC000286900280BD0EFF31080012181F31088BD
:103FD00009022A6813680B43136080F31088EFF31B
:103FE0001080012181F310882A6893680B43936045
:103FF00080F31088EFF3108081F3108829688A68B5
:10400000402313438B6080F31088204601B0F0BD3D
:10401000173C0008F93C00086D3C0008F0B585B07D
:1040200004930D4604460068C0690840401A4142A6
:1040300041410020914246D11746029020468030EF
:1040400001900A9E01200090C002039007E02068C2
:10405000C0692840401B41424141B94232D1701CE5
:10406000F5D0FDF717FF002E2FD00499401AB0426B
:104070002BD8206801684907E9D5C169039A114224
:10408000E5D003990162EFF31080009D85F310885D
:104090000D214901226813688B43136080F3108857
:1040A000EFF3108085F3108821688A68AA438A603C
:1040B00080F310882020019A5060906000211170D8
:1040C000D0601FE0029805B0F0BDEFF31080009DB6
:1040D00085F310880D214901226813688B43136012
:1040E00080F31088EFF3108085F3108821688A68C8
:1040F000AA438A6080F310882020019A5060002132
:1041000011709060032005B0F0BD000080B57448C8
:10411000FEF704FD80BDC046002805D41F210840DD
:1041200001218140014801607047C04600E100E084
:10413000002805D40322034693430C4A9A1806E04C
:104140000F220240083A03239A43074BD2188007F4
:10415000C00E8901C9B28140FF2383401068984393
:10416000084310607047C0461CED00E000E400E02A
:10417000F0B5D3B00446AC21FBF7D3FF364908882D
:1041800007280AD300200122344B9D5C6840521C52
:104190000D886D1FAA42F8DB00E00020304F387018
:1041A000304DE87A2D4E3018401D2246A8322EA1FF
:1041B000FBF7C2FFA8202058397888424AD1687896
:1041C0003018401CBC492246FBF7B6FF27460C3787
:1041D000684626493A4613680432036004300439BD
:1041E000F9D10ECC28AE30460C3C00F051FAAC258B
:1041F000204631462A46FBF77BFF68461B493A4674
:1042000013680432036004300439F9D10ECC28AEAF
:1042100030460C3C00F0B6F8204631462A46FBF703
:1042200067FF684611493A68043702600430043970
:10423000F9D10ECC28AE30460C3C00F0C7F9204630
:1042400031462A46FBF754FF6169A06818342246BC
:1042500000F040F953B0F0BDE8030020EC0300206B
:10426000880000208900002025780000A0000000C0
:10427000F0B581B01948FDF711FD194C1949122507
:104280003F4E20462A463346FEF7F0FE7D2087004B
:104290003846FDF703FD1449142220463346FEF745
:1042A000E5FE3846FDF7FAFC10491C22204633464D
:1042B000FEF7DCFE3846FDF7F1FC0D4920462A46A4
:1042C0003346FEF7D3FE3846FDF7E8FC2349C82203
:1042D0002046FEF777FE01B0F0BDC046881300000F
:1042E00058030020520000203E0000201000002053
:1042F0002C000020B0B500211848425C242A03D0CD
:10430000491C9629F9D100210A46835C2A2B06D044
:10431000521C4B239B009A42F7D1002200E0D2B2FC
:10432000521A521D144D2A8041182A88CF4C20461B
:10433000FBF7DEFE288800280ED00020CA4902467E
:1043400003E0401C2B88984206D2235C2C2BF8D12A
:10435000D3B2C854521CF4E7B0BDC0466404002078
:1043600080B5FFF7C7FF044802880448BF49044BE3
:10437000FEF77CFE80BDC046E8030020C802002096
:10438000FFFF000083B0F0B584B0039009A80EC011
:10439000454EB078454F3818401C09AD2A1D44A140
:1043A000FBF7CAFEF0783818401C6A1C424C2146C4
:1043B000FBF7C2FE30793818401C2A4610323FA164
:1043C000FBF7BAFE70793818401C2A460C32214699
:1043D000FBF7B2FE3B490D98FCF736FA06460D9006
:1043E000FCF730FC0446FCF719FC02900F4620460F
:1043F000FCF708FC01463046FCF7E1F9FCF73BFC12
:104400000026314B3246FCF70FFB304B3246FCF7AF
:1044100073FB029A3B46FCF755FAFCF740FC0E9002
:104420000A982849FCF710FA04460A90FCF70AFC9F
:104430000746FCF7F3FB029001913846FCF7E2FBDC
:1044400001462046FCF7BBF9FCF715FC32461E4B33
:10445000FCF7EAFA32461D4BFCF74EFB029A019B31
:10446000FCF730FAFCF71BFC0B90FCF704FC02464F
:104470000B4628461F30164C214600F0E9FB0E98EB
:10448000FCF7F9FB02460B4628462930214600F08E
:10449000DFFBAC2203982946FBF72AFE04B0F0BCF0
:1044A00001BC03B00047C04689000020EC03002097
:1044B00025303866000000008F6B00082530396613
:1044C000000000000000C8420000594000004E40BB
:1044D000BA6B0008F0B583B016460C460021917106
:1044E0003249FCF71BF905463149FCF7ADF9FCF7F9
:1044F000A9FB0746413070702E492046FCF70EF9A3
:1045000002902D49FCF7A0F9FCF79CFB04464130D2
:10451000307001960A2047433846FCF773FB01468A
:104520002846FCF74CF90746FCF78CFB0546303073
:10453000F070142044432046FCF764FB01460298C7
:10454000FCF73DF902903F210906FCF740F9FCF722
:1045500079FB06463030019CA0702846FCF752FBE0
:1045600001463846FCF72BF9FCF785FB134A144B40
:10457000FCF7C2FAFCF793FBFCF764FB6130607157
:104580007000FCF73FFB01460298FCF718F9FCF7B6
:1045900072FB0C4A0C4BFCF7AFFAFCF780FBFCF704
:1045A00051FB6130207103B0F0BDC0460000B44241
:1045B00000002041000034430000A041C81BAA7342
:1045C0005655A53F1CF22AC65455B53F83B0F0B5E9
:1045D00082B0019007A80EC02348807923490818AB
:1045E000401C07AC254684352A46083220A1FBF73B
:1045F000A3FDA868FCF73FFB1E4A1F4BFCF714FA0B
:10460000FCF74DFB6860FCF736FB06460F461B4A7D
:104610001B4BFCF771FAFCF742FB289020469830C0
:1046200018A132463B4600F013FB2898FCF723FB09
:1046300002460B4620469030144E314600F008FBEF
:10464000A868FCF718FB02460B462046A03031460E
:1046500000F0FEFAAC2201982146FBF749FD02B0BA
:10466000F0BC01BC03B0004789000020EC0300202F
:10467000253366006F1283C0CAA1FD3FCDCCCCCCE0
:10468000CCCC0C40252E303030326600B46B0008A4
:1046900083B0F0B582B0044607A80EC07448007815
:1046A000744D2818401C07AF3A464C32724E3146C2
:1046B000FBF742FD1A980F28019401DC082101E064
:1046C0000F21C94308181B90694C20782818C01C7A
:1046D0003A4654323146FBF72FFD20782818401D0A
:1046E0003A4658323146FBF727FD207A2818401CFD
:1046F0003A4644323146FBF71FFD18981A991B9A27
:1047000034468A4200DA401C19905948007A281829
:10471000401D3E46343621463246FBF70DFD7D20D6
:1047200000011499081814905148007A2818C01CE8
:104730003D463C3521462A46FBF7FEFC1898199960
:1047400081423C4604D1796BB963F96B396451E01D
:1047500029684A1E0B2A4DD87A4412795200974490
:10476000050913171B1F23272B2F333B1F283DD170
:1047700002212CE0326893073CD11D286AD1012325
:104780002546A364032368E01F282FD104211EE0DF
:104790001E282BD105211AE01F2827D1062116E05B
:1047A0001E2823D1072112E01F281FD108210EE067
:1047B0001F281BD109210AE01E2817D10A2106E073
:1047C0001F2813D10B2102E01E280FD10C212246F5
:1047D00021640121A1640DE01F2807D10121224697
:1047E0002164A164616B491CA16303E0224621643A
:1047F000616BA1632546E36B626B009020465C30E1
:104800001E4C214600F024FAAA6B2B6CA86C009079
:1048100028466730214600F01BFAEA6C6B6DA86DE4
:10482000009028467230164C214600F011FA2A6D8D
:104830006B6DA86D009028467B30214600F008FA89
:10484000AC2201982946FBF753FC02B0F0BC01BC36
:1048500003B000472546A2630B462B641C2804D1F5
:10486000032129640121A964C4E72964AA63C1E77B
:1048700089000020EC030020926B0008966B000872
:10488000A56B00088AB0FDF713FBFFF7BDF8FEF734
:1048900029FDFEF705FDFEF799FDFEF7B9FDFEF7D0
:1048A000E5FDFEF7CBFCFEF7F5FEFEF783FFFEF716
:1048B000FAFE00242046FEF771FFC14803684068F5
:1048C0000294C04901910F460090BFA220462146A4
:1048D000FFF744F87D200001FDF7E0F92046FEF7E0
:1048E0005DFF1F20C00200900A2220462146134689
:1048F000FEF708FFBB4D2B68686800900197029493
:104900000C26B94A30462146FFF728F82B6868681C
:10491000009001970294B5A220463146FFF71EF899
:104920002B686868009001970294B24A1F321E20DB
:1049300031460892FFF712F82B68686800900197DB
:104940003E4602941627ACA220463946FFF706F8E9
:104950002B686868009001960294A64A29322326A3
:10496000304639460792FEF7F9FF2B6868680090D9
:104970009448019002942027A1A220463946FEF7D0
:10498000EDFF2B68686800908E4801900294994A68
:1049900067323046059639460692FEF7DFFF2B68F0
:1049A000686800908748019002942A2796A22046C2
:1049B0003946FEF7D3FF2B68686800908148019064
:1049C00002948C4A7B32304639460992FEF7C6FF84
:1049D0002B68686800907B480190029434278CA271
:1049E00020463946FEF7BAFF2B6868680090754E7E
:1049F000019602947F4A1832059839463746059247
:104A0000FEF7ACFF2B6868680090019602943E2682
:104A100081A220463146FEF7A1FF2B68686800900E
:104A200001970294734A9832282031460492FEF787
:104A300095FFFFF71DFC7A49039401E078490C705B
:104A400008780128FCD12B686868009001970294CF
:104A500023202A21099AFEF781FF66480078412821
:104A600050D13F20400100900A22204621461346A3
:104A7000FEF748FE2B6868680090019702940C26A8
:104A80003046214667A2FEF769FF2B6868680090F0
:104A9000019702941E203146089AFEF75FFF2B68AB
:104AA0006868009001970294232616213046079AE1
:104AB000FEF754FF2B68686800900197029420214C
:104AC0003046069AFEF74AFF2B6868680090019707
:104AD00002942A213046099AFEF740FF2B68686845
:104AE00000900197029434213046059AFEF736FF74
:104AF0002B68686800900197029428203E21049A50
:104B0000FEF72CFF3B480078412897D03948806851
:104B100000263146FCF768F800288FD138461F3848
:104B200080B200900A22304631461346FEF7EAFD75
:104B30002B6868680090019702963C460C2738461F
:104B400031463DA2FEF70AFF2B68686800A951C1F3
:104B50001E203946089AFEF701FF2B68686800A9F5
:104B600051C1232716213846079AFEF7F7FE2B6816
:104B7000686800A951C120213846069AFEF7EEFE6A
:104B80002B68686800A951C12A213846099AFEF7A6
:104B9000E5FE2B68686800A951C1342138462746D4
:104BA000039C059AFEF7DAFE2B686868009001976F
:104BB000029628203E21049AFEF7D0FE3EE7C0462A
:104BC00000000020FFFF000053544D3332473033C4
:104BD000304636503620474E535320537973746510
:104BE0006D00000008000020680000206C61743A2D
:104BF000000000009C0000206C6F6E673A0000000F
:104C0000446174653A0000004353543A00000000C8
:104C1000477269643A00000053706565643A0000A9
:104C2000EA030020506F736974696F6E696E6720C4
:104C30007375636365737300496E76616C69642094
:104C4000474E5353206461746120202020200000CF
:104C50000FB410B504A9074B02AA039800F0F4F8AA
:104C6000044602A9002000F08BFC204610BC08BCC2
:104C700004B01847815500082021020C01D01021F2
:104C80001046020A01D010460839020901D0104628
:104C9000091F820801D01046891E420801D0881ED3
:104CA0007047081A704702E008C8121F08C1002A9E
:104CB000FAD170477047002001E001C1121F002A9D
:104CC000FBD17047F0B51FB486B00998089A030D60
:104CD0000021024314D05148514A1818504305147A
:104CE0001198012810981AD0281A401C00264D4F00
:104CF0004D49009601910490002812DA444211E0D7
:104D00001198012449A3012801D11098C1430698A4
:104D1000119A84600360C26041600BB0F0BD4042F4
:104D2000E4E70446210500203F4A001C514103915D
:104D3000029012E0E00707D032463B460199009806
:104D4000FBF772FE0191009032463B461046194631
:104D5000FBF76AFE06460F466410002CEAD1049861
:104D6000039B0028029A0999089806DAFBF75CFE73
:104D7000019B009AFBF758FE05E0FBF7BDFE019B87
:104D8000009AFBF7B9FE04460E460022284BFCF7BA
:104D900041F903D80020C043014607E00022254B1B
:104DA00020463146FBF78EFDFCF714F9102409E08C
:104DB000002C0ADB0A220023FBF7ACFF079B3032F2
:104DC0001A55641E02460A43F2D11122641C079B45
:104DD000121B1C19119B012B03D0012308430ED178
:104DE0000AE0084304D0112010900020119077E7CA
:104DF0001098151A6D1E0BE01098824202DD0023F8
:104E00006D1C03E0824201DA00236D1E002BEED000
:104E1000069811998260C16030C07EE701FCFFFFF7
:104E2000104D0000000014400000F03F3000000072
:104E30000000F0430000E03F30380A2801D2012092
:104E40007047002070470000FFB597B00646002568
:104E500018E2252877D100242746FD49049400E074
:104E60000443761C32780120203A90400842F7D162
:104E700030782A280ED002223078014630390929AC
:104E800016D804990A235943303940181443761C24
:104E90000490F1E7189802C804911890002904DAE8
:104EA0000120400304434842049002200443761C3E
:104EB00030782E2814D1042004437078761C2A28D8
:104EC00009D11898761C80C8189009E00A214F4330
:104ED000303FC719761C3078014630390929F5D999
:104EE00030786C2810D006DC4C281AD068280ED0F8
:104EF0006A2817D104E0742813D07A2812D110E060
:104F00000120400504430CE00121090501E00321D3
:104F100009050C437178814203D101200005241852
:104F2000761C761C3078119066280BD013DC58283C
:104F30007DD009DC00287BD04528F6D04628F4D067
:104F400047281AD1A5E118E0632835D0642870D02D
:104F5000652812D19DE170286CD008DC6728F1D05B
:104F600069287BD06E280DD06F2806D1BAE073284F
:104F70002ED0752871D0782859D01A9A199990474F
:104F80006D1C7EE16002400F022809D003280DD07D
:104F90000428189801680DD00D60001D189070E16C
:104FA0001898EA1701680D604A60F6E718980168DA
:104FB0000D80F2E70D70F0E718986A4601781172DB
:104FC000001D18900020507202A80090012005E0FA
:104FD000189802C8189000200091C04361070DD5B1
:104FE000002101E00199491C0191B94212DA814284
:104FF000F8DB009A515C0029F4D10BE0002101E0BC
:105000000199491C01918142FADB019A0099895C5E
:105010000029F5D1019904981A9B471A2146384670
:10502000199A00F097FA0199401945180BE04FE0E2
:105030002CE113E04EE0009800990078491C0091A3
:105040001A9A199990470198401E0190401CF2D17C
:10505000214638461A9B199A10E137E00A200021B0
:10506000009001916002410F022907D0189A01CAED
:105070001892C2179446032908D00AE01898C01D58
:10508000C108C90005C91891944607E000B2C217CB
:105090009446042902D140B2C1178C4600226146D1
:1050A000944506DA0A460021404291418C462D2162
:1050B00002E0210504D52B216A461173012103E08A
:1050C000E10701D02021F7E7029155E00A200AE02C
:1050D000102008E0102000900021042004430191DA
:1050E000082703E008200021019100906002410F91
:1050F000022907D0189A01CA18920022944603295F
:1051000008D008E01898C01DC108C90005C9189149
:10511000944603E080B2042900D1C0B2002102917C
:10512000210729D51199702906D0009A1021019BD9
:105130004A401A4305D00EE040216A46117301210E
:1051400008E06146014306D030216A461173119987
:10515000517302210291009A0821019B4A401A438F
:105160000AD16146014301D1610705D530216A4664
:10517000117301217F1E02911199582904D035A184
:105180000E910DA90D910DE037A1F9E76146019B44
:10519000009AFBF7BFFD0E9B8C469B5C0D9A521E3E
:1051A0000D92137061460143F0D10D9805A9081ABC
:1051B00020300190600703D501200004844300E003
:1051C00001270198874201DD381A00E0002001998B
:1051D00000904118029809180498401A0490E003BE
:1051E00006D421461A9B199A049800F0B3F9451980
:1051F000002706E003A81A9AC05D199990476D1C14
:105200007F1C02988742F5DBE0030CD521461A9BF0
:10521000199A049800F09EF9451904E01A9A302072
:10522000199990476D1C0099481E00900029F5DCE3
:1052300008E00D980D990078491C0D911A9A19995A
:1052400090476D1C0199481E01900029F1DC63E133
:10525000092801003031323334353637383961624C
:105260006364656600000000303132333435363710
:1052700038394142434445460000000000F05AF9E5
:105280004519761C3078002800D0E2E528461BB08E
:10529000F0BD600700D406271898C01DC108C900DA
:1052A00048680A680831C30FDB071891190001D05C
:1052B0009CA108E0210501D59BA104E0E10701D0F4
:1052C0009AA100E09AA1430011985B08109165280B
:1052D0000CD006DC452809D046281DD0472841D1EE
:1052E00041E0662818D067283CD13CE00021112F0E
:1052F00001DB112000E0781C0191009008A911A8A1
:10530000FFF7E0FC139905910021119A15927F1C7B
:1053100012980197009150E00120C00703900120EE
:10532000019008A9009711A8FFF7CCFC139A1499D3
:1053300005920022119B009212981593059A0192F2
:10534000002901D0104602E0791C40180190381A5B
:1053500001D5019804E04042401E0090781C019065
:10536000C01B029043E0012F00DA01270021112F1A
:1053700001DD112000E038460191009008A911A834
:10538000FFF7A0FC13990591119A0021129815922C
:105390000091019721070CD40599B94201DB0199CD
:1053A00000E00191012904DD159A491E515C302964
:1053B00006D0B84201DA011D05DA0121029115E09B
:1053C0000199491EEDE7002805DC0099411800917C
:1053D0000199091A03E0019A411C914200DD0191F3
:1053E0000099401A401C02900120C007039020073A
:1053F00006D402990198814202DB0020C04302904A
:1054000000206946C87707AF012103980337C90711
:10541000884224D0022011902B201290039800285B
:105420000CDA404203902D20129007E00A210398E5
:10543000FBF751FC30317F1E039039701199481EE3
:1054400011900029F2DC03980028EFD1791E129800
:1054500008703078202108404530BF1E387006A8FB
:10546000C01BC01D039010980078002800D00120B8
:10547000019941180298C01709180398091804984F
:10548000401A401E0490E00306D421461A9B199A44
:10549000049800F05FF8451910980078002803D0B0
:1054A0001A9A199990476D1CE00324D521461A9B3E
:1054B000199A049800F04EF845191CE0009800284D
:1054C00007DB00990598884203DD1598405C19991F
:1054D00001E0199930201A9A904700986D1C401CE1
:1054E00000900298401E0290002804D11A9A2E20A3
:1054F000199990476D1C0199481E01900029DDDC27
:1055000005E038781A9A7F1C199990476D1C039909
:10551000481E03900029F4DC21461A9B199A04982E
:10552000ACE600002D0000002B0000002000000071
:1055300000000000F8B5044600251E461746880402
:1055400004D405E039462020B0476D1C641EF9D50F
:105550002846F8BDFFB50446002581B01E46C803A5
:1055600001D5302700E02027880404D505E038461F
:105570000399B0476D1C641EF9D5284605B0F0BDEF
:105580000A68531C0B6010707047DDDDDDDDDCBB8D
:10559000BBDDDDDDDDDDDDDDDDDD9888888888884B
:1055A00088887777777777888888855555566666AF
:1055B000666666666666666888888333333222224A
:1055C0002222222222222228888D000000000000B0
:1055D00000000000000000000000000000000000CB
:1055E00000000000000000000000000001000000BA
:1055F000020000000300000004000000060000009C
:105600000700000008000000090000000000000082
:105610000000000000000000000000000100000089
:105620000200000003000000040000000000000071
:10563000000000000000000000000000000000006A
:10564000000000000000000000000000000000005A
:105650000000000C000C000C000C000C000C000CF6
:10566000000C000C000C000C0000000C000C0000F2
:10567000000000000000001B001B001B001B001BA3
:10568000000000000000000000000000000000001A
:10569000000000000000000000008019801980193F
:1056A0008019C07FC07F80190033C07FC07F003366
:1056B0000033003300330000000000000000001E33
:1056C000003F807580650074003C001E0007800567
:1056D000806580658075003F001E000400040000A6
:1056E0000000007000D840D8C0D880D900730006F0
:1056F000000C801BC036C066C046C0068003000098
:10570000000000000000001E003F003300330033A3
:10571000001E000CC03CC066806380618063C03E98
:10572000801C0000000000000000000C000C000CB9
:10573000000C000C00000000000000000000000051
:1057400000000000000000000000000080000001D8
:105750000003000600060004000C000C000C000C06
:10576000000C000C0004000600060003000180008D
:10577000002000100018000C000C000400060006B9
:1057800000060006000600060004000C000C0018CD
:10579000001000200000000C002D003F001E003310
:1057A00000000000000000000000000000000000F9
:1057B0000000000000000000000000000000000CDD
:1057C000000C000C000CC0FFC0FF000C000C000C13
:1057D000000C0000000000000000000000000000BD
:1057E00000000000000000000000000000000000B9
:1057F000000000000000000C000C00040004000881
:105800000000000000000000000000000000000098
:105810000000001E001E000000000000000000004C
:105820000000000000000000000000000000000078
:105830000000000000000000000000000000000C5C
:10584000000C000000000000000000030003000343
:105850000006000600060006000C000C000C000C00
:105860000018001800180000000000000000001ED2
:10587000003F0033806180618061806D806D806158
:10588000806180610033003F001E000000000000C6
:1058900000000006000E001E00360026000600066E
:1058A00000060006000600060006000600060000CE
:1058B000000000000000001E003F807380618061D6
:1058C000800100030006000C001800300060807F9B
:1058D000807F0000000000000000001C003E00630C
:1058E00000630003000E000E000380018001806150
:1058F0008073003F001E0000000000000000000652
:10590000000E000E001E001E001600360036006657
:10591000807F807F00060006000600000000000077
:105920000000007F007F006000600060006E007F6C
:1059300080638001800180618073003F001E000051
:10594000000000000000001E003F80338061006006
:10595000006E007F80738061806180618033003FD2
:10596000001E0000000000000000807F807F80019A
:105970000003000300060006000C000C000C0008E9
:105980000018001800180000000000000000001EB1
:10599000003F8063806180610021001E003F8061C4
:1059A000806180618061003F001E000000000000F7
:1059B0000000001E003F0073806180618061807381
:1059C000803F801D800180610073003F001E000049
:1059D0000000000000000000000000000000000CBB
:1059E000000C000000000000000000000000000C9F
:1059F000000C00000000000000000000000000009B
:105A000000000000000C000C00000000000000007E
:105A10000000000C000C000400040008000000005E
:105A20000000000080008003000E00380060003895
:105A3000000E800380000000000000000000000055
:105A400000000000000000000000807F807F000058
:105A50000000807F807F0000000000000000000048
:105A60000000000000000000000000000040007086
:105A7000001C000780010007001C007000400000AF
:105A800000000000000000000000001F803FC07107
:105A9000C060C000C00180030007000E000C000CB5
:105AA0000000000C000C0000000000000000001EC0
:105AB000003F803180718063806F806D806D806F6A
:105AC000806700600032003E001C00000000000003
:105AD0000000000E000E001B001B001B001B80318D
