:020000040800F2
:10000000F80B0020D5000008FD380008FB38000878
:1000100000000000000000000000000000000000E0
:10002000000000000000000000000000D53D0008B6
:100030000000000000000000FF380008D73D000865
:10004000E700000800000000E7000008E7000008E3
:10005000E700000819170008E70000082317000848
:10006000000000005D1600086D160008E70000089B
:10007000E7000008E7000008E700000800000000B3
:10008000E70000080000000000000000493E0008F2
:1000900000000000E7000008E7000008E700000893
:1000A000E7000008E7000008E7000008E700000894
:1000B000C144000800000000000000000000000033
:1000C0000348854601F016F80048004735500008FF
:1000D000F80B00200448804704480047FEE7FEE78D
:1000E000FEE7FEE7FEE7FEE7453E0008C100000828
:1000F00003460B439B0703D009E008C9121F08C041
:10010000042AFAD203E00B780370401C491C521EEB
:10011000F9D27047D2B201E00270401C491EFBD2F6
:1001200070470022F6E710B513460A460446194602
:10013000FFF7F0FF204610BD0FB400B58DB0099059
:100140000B9010A900200091C0430A9000200C9051
:1001500006480690064807906A4609A80F9900F0DD
:10016000B5FE0DB008BC04B018470000ED0E000845
:100170000D0F0008FFB50027FF4383B000205C6827
:1001800001909E681D46A9697F1C049888470090CD
:10019000296A88470028F6D10098401C0CD003201B
:1001A00040028443002E19DD600614D500982B28E8
:1001B00009D02D280FD103E00020C04307B0F0BDC7
:1001C000012080020443A9697F1C04988847761E99
:1001D0000090002E02DD0098302803D005980028FA
:1001E00025D035E0012040020443A969761E7F1C1A
:1001F000049888470090002E03DD782805D0582801
:1002000003D00598002810D022E00598002801D0DE
:1002100010281DD1012040028443A969761E7F1C4D
:10022000049888470090102002E0082000E00A208F
:1002300005900DE0012149020C43059A0199761EB3
:10024000514308180190A9697F1C049888470090C1
:10025000002E05DD0599009800F023FE0028E9DA5C
:10026000E96904988847A00502D40120C043A5E7A6
:10027000E00722D1600611D56005019800D5404203
:1002800029680A1D2A600968220501D5087014E052
:10029000220701D5088010E008600EE02868011DE3
:1002A00029600068210502D50199017005E0210748
:1002B000019901D5018000E0016038467EE7FFB575
:1002C000002083B000905068019091691446002688
:1002D00097680498884705460C990698084305D006
:1002E00009E0A169761C049888470546216A2846DA
:1002F00088470028F5D1681C03D00198C00704D0B6
:1003000017E00020C04307B0F0BD2068011D216048
:10031000006800900DE00198C00704D100980570B6
:100320000098401C0090A169761C7F1E04988847A5
:100330000546002F1CDD681C1AD0069800280FD037
:10034000E817C00E401941118A000699400951185A
:1003500040012A1A0968012090400142DBD107E0E0
:100360000C980028D7D1216A284688470028D2D087
:10037000E169049888470C98002807D1002E05DD14
:100380000198C00702D1009800210170A068B8420E
:1003900004DD0C98002804D0002F02D00120C043B7
:1003A000B1E73046AFE70000FFB5087889B01546E1
:1003B000FF2805D0491C2D2804D00022002407E086
:1003C00000240BE00122F9E70A235C430419491CCD
:1003D0000878FF28F8D1002A00D064420020049059
:1003E0002A7801462D2A01D02B2A0FD16D1C2D2AE7
:1003F00002D00022049209E00122FBE700260A2233
:1004000033466D1C00F012FD381871412F78FF2F14
:10041000F4D10C9AA218069202460A4304D0FF2394
:10042000069A9133DA4205DA002109980A4606C095
:100430000DB0F0BD0024B74AB54D2646079200F036
:1004400017FE029006980391002801DA474200E067
:10045000074639050020AF4A001C51410191009028
:1004600012E0F80707D022462B463046079900F0E5
:10047000DBFA0646079122462B461046194600F045
:10048000D3FA04460D467F10002FEAD10698019B4F
:100490000028009A0399029806DA00F02DFB3246F4
:1004A000079B00F029FB05E000F0BEFA3246079BEF
:1004B00000F0BAFA049A002A02D00122D207514071
:1004C000099A03C2B4E7FFB591B000200990002556
:1004D000ED432E209E685C681F460190B9696D1C33
:1004E000129888470090396A88470028F6D100980A
:1004F000401C0AD00D20C0018443002E12DD00985C
:100500002B2809D02D280DD103E00020C04315B0C1
:10051000F0BD012080020443B9696D1C1298884720
:10052000761E009003A9600501D52D2000E02B2048
:100530006A461073491C0CA80F9102900AE0B96931
:100540006D1C1298884700900120400204431398C4
:10055000761E0560002E02DD00983028EFD001994C
:100560000098884245D18020044308E00998401E45
:1005700009900120400204431399681C0860B9697E
:100580006D1C761E1298884700903028EED030E01F
:100590000199884205D1200603D480200443761EA9
:1005A0001DE0009805F056FD002825D001214902E4
:1005B0000C43009807AA0F9903323038761E9142F7
:1005C00008D208700F98401C0F90200607D5099894
:1005D000401E03E0200602D40998401C0990A005A3
:1005E00002D51399681C0860B9696D1C1298884778
:1005F0000090002ECCDC59E0002E57DD00986528D5
:1006000001D0452852D1A00550D5032000028443D3
:10061000B9696D1C761E129888470090002E0CDD7B
:100620002B2804D02D2808D1FF2001300443B969BC
:100630006D1C12988847761E0090E00501D52D218B
:1006400000E02B21029801700298401C029001905A
:1006500025E00120400204430EA902980131761ED4
:1006600088420ED20098029930380006000E0870B9
:1006700003D10299019881420AD90298401C029044
:1006800006E0E00501D5244801E0234840420990F6
:10069000B9696D1C12988847009013980560002E68
:1006A00004DD009805F0D6FC0028D2D1F969129833
:1006B00088470F99FF200870029903AA087000204C
:1006C0000A900B900CA90AA8099BFFF76DFEA005E4
:1006D00002D40120C0431AE72420044209D0E007D5
:1006E00013D138680B9A0A99031D3B60006806C055
:1006F0000BE00B990A9800F02EFB0146E00704D1AD
:100700003868021D3A60006801602846FFE6000074
:10071000000014400000F03FF1D8FFFFF8B502469A
:100720004A40D40F42004B0052085B089A4202D262
:100730000246084611464A0023D0C30D4A00DDB2E6
:10074000120EAD1A202D35DA49020126490AF605A6
:100750008A19002C00D0524220214F1B1146B9406B
:100760002A411018C20D9A4221D0002C17D0012D19
:1007700008DCDA05801AD20F8019D207DBB200F04C
:10078000DFFBF8BDDA05801A012340001B06C01804
:1007900080185A428018CA0F1043490007E04908E0
:1007A000C2071143DA05801A80194008801800F04A
:1007B000BFFBF8BD61000122511A001BF7E70122BF
:1007C000D2075140AAE70122D2075040A6E70246CD
:1007D00070B54A40D30FDB0740002DD04A002AD025
:1007E000010E140E000212020919400A520A84185E
:1007F000E50104465443000A120A2E045043A4198A
:100800004219200CC543AA18120C0125AD03521C35
:10081000521912047F39240400D0521C104301D411
:100820004000491EC2B20C06C0092018401C4008F6
:10083000802A02D003E0002070BD4008400000295B
:1008400000DA0020184370BD70B502464A40D50F4B
:1008500040004A00ED0740085208002814D0002A42
:1008600012D0C40DD30D41020120C0055202490A25
:10087000520AE41A091812187D34914201D3641CFB
:1008800000E04900002C01DA002070BD00239142F5
:1008900001D3891A0343400849000028F7D10029F1
:1008A0000AD0914202D10121C90705E0914201D24B
:1008B000012101E00121C943E005C018401900F001
:1008C00037FB70BDF0B507460846584087B0C00FEB
:1008D000049048000E46590040084908BC1A884157
:1008E00005D2384631461E4617460B46024658008A
:1008F000400810434CD0300D039040055900400D86
:10090000490D0590401A0290402872DA180301211F
:10091000000B09050843019004980092002805D0B7
:100920000199524200208841009201900298402192
:100930000A1A0199009800F091FA05460C466B4698
:1009400007CB00F09BFAC0197141039A0E0D0023EA
:10095000D71756401A467A40164344D0049A002AC4
:100960002DD0029A012A039A15DC1205C01A914172
:1009700001263605001C7141D20F059ED207009357
:10098000019202962A46234600F020FB07B0F0BDF4
:1009900038463146FAE71605224A0F46B218C01A01
:1009A000B74101210905001C4F4100187F41114644
:1009B00018187941E20F10436D19644113E0E20702
:1009C0006D0815436408C2071443039A01261205F3
:1009D000C01A91413605001C7141CE0740083043D2
:1009E0004908C01851412A46234600F0E2FACDE7F3
:1009F000FFE7049801224000C117121A00238B411F
:100A000004983146C417381AA141EEE730B40124E6
:100A1000E407634030BC55E730B40124E40761408B
:100A200030BC4FE70000E0FFF0B51FB488B00B9971
:100A30000998002448400999C00F490049080991C4
:100A4000C0070B990090490049080B910999089833
:100A5000A64608431CD00B990A98084318D0099859
:100A600001244000420D4800410D0998240500036F
:100A7000000B204309900B980003000B20430B90C0
:100A800050181C494018002201901446104605E0F9
:100A9000002001460DB0F0BD032801DA034600E056
:100AA00003239C46C11A0AAE0AE05F0008ADED5B65
:100AB0004F00F75B7D430027AA187C41491C5B1E51
:100AC0006145F2DD410004AB5A522104120C0A4385
:100AD000240C401C0828DFDB019802900099704626
:100AE00001910090059B049A0799069800F06EFA10
:100AF000D0E700000DFCFFFFF0B50C465C4085B070
:100B0000E40FE40703944C0000266408590094465F
:100B1000490802460296224321D062460A431ED06B
:100B20006200570D4A000E032303550D01240246AF
:100B30002C492405781B1B0B360B401823432643F6
:100B4000614600901C46501AB44103D30098401CE3
:100B5000009002E0921800985B41002803DA002020
:100B6000014605B0F0BD0020012109050746864673
:100B700011E064461D46141BB54106D36546521B61
:100B8000B341744607430C43A646CD0740084908C5
:100B9000284392185B4105460D43EAD1104618439D
:100BA00013D06046194650407140084306D0604655
:100BB000101AB34106D20122002306E000220123CD
:100BC000DB0702E00122D24353100098744601056E
:100BD000381C6141029C039D0019694100F0E9F94C
:100BE000BFE70000FD0300000122D207002800DB60
:100BF000101A002900DB511A814201D201207047EE
:100C0000002070470122D207002800DB101A0029BB
:100C100000DB511A814201D3012070470020704748
:100C20000122D207002800DB101A002900DB511A2C
:100C3000814201D1012070470020704710B5002982
:100C400004DB0C460121C9074042A141002B04DB13
:100C50001C460123DB075242A341101A8B4101D2EB
:100C6000012010BD002010BD10B5002904DB0C468A
:100C70000121C9074042A141002B04DB1C4601238E
:100C8000DB075242A341101A8B4101D3012010BD52
:100C9000002010BDC217C10F504010B54018CA0740
:100CA0009623002100F04CF910BD10B500229623C8
:100CB000114600F045F910BD0EB5C217C10F5040E6
:100CC000CA0740180021054B0293019200910A4681
:100CD0000B4600F07BF903B000BD000033040000B8
:100CE0000EB505490291002100910A460B4601917B
:100CF00000F06CF903B000BD33040000C20F4100E6
:100D000040020123400ADB05D207090EC0187F29E3
:100D100001DA00207047962903DC9623591AC8404F
:100D200001E096398840002AF4D040427047C20F53
:100D3000D207400040080BD0C10D0723DB01C918C2
:100D400040020905400A1143C20840071143704799
:100D5000002001467047CB0FDB07490010B549085A
:100D600002460A4307D00A0D07240903E401090BD0
:100D7000121B002A01DC002010BDC900440F0C43E7
:100D8000C100E018D205801800F0D2F810BD70B58F
:100D90000446002903D000202022012310E000286F
:100DA00001D00020C043C046C0460DE02546D540D6
:100DB0008D4205D30D469540641B1D469540401954
:100DC0001546521E002DF1DC214670BDF0B51FB452
:100DD0000646002082B005464024019100901BE0A9
:100DE000019922460F46304600F096F9049A059B79
:100DF000801A994110D310461946224600F02EF869
:100E0000361A8F410197224601200021009F00F0F1
:100E100025F838184D4100902046641E0028DFDC7C
:100E2000019B00982946324607B0F0BD30B54343D8
:100E300051435C18010C130C0D465D432C1980B214
:100E400092B20546554351430A0C09044D196241BB
:100E50005843010C00044019514130BD10B5202AFF
:100E600004DB0146203A9140002010BD9140202330
:100E70009C1A0346E3401943904010BD10B5202A48
:100E800006DBCB170846203A1041C1170B4306E09A
:100E90000B461341D0402024A21A91400843194622
:100EA00010BD3A2800D23038202302469A43412A06
:100EB00001D310463738884201D30020C043704721
:100EC00002681378511801601846704710B5D16058
:100ED000044951610449116200211161114600F079
:100EE00033F910BDC10E00083B1100084268002A0A
:100EF00008D001680B78491C002B03D0521E06C095
:100F0000184670470121C160881E70474268002A58
:100F10000BD0C3680168002B07D183688B4204D0D3
:100F2000491E521C06C0002070470020C043704775
:100F3000002904DA401C490001D1400840007047F4
:100F400070B40024050C05D11024000402D100293E
:100F500021D01124050E01D100020834050F01D162
:100F60000001241D850F01D18000A41C002801DB95
:100F70004000641C002908D020252E1B0D46F5409A
:100F8000A14000D001212943084301061B1B000A90
:100F9000DB1D02D5002070BC7047DB0518188018D7
:100FA0000029F8DA401C4900F5D170BC4008400027
:100FB000704710B5002B08DA0024401C61419218DC
:100FC0005B411A4301D14008400010BDF0B51FB489
:100FD00082B005460C0003D0084604F05BFF02E037
:100FE00004F058FF20300246009021462846FFF7C3
:100FF00035FF049B059A04460F46184311430843E6
:1010000014D0184610431BD0009840210A1A1846E5
:10101000059900F081F805460E46009A0599049856
:10102000FFF71CFF084305D0012004E020463946A5
:1010300007B0F0BD0020C11705430E432C433743D2
:1010400000990E986305401A7905E40A00220C43C2
:10105000FD0A0A3002D500200146E9E70105101912
:1010600069410C9C0D9D00196941FFF7A2FFDFE764
:101070000EB5054A02920022009213460192FFF734
:10108000A5FF03B000BD0000330400004A000903BF
:101090000123090B1B0519430A4B10B5520D9A4247
:1010A00002DA0020014610BD064B34339A4203DCBD
:1010B0009A1A00F031F810BD034BD218FFF7CEFE9C
:1010C00010BD0000FF030000CDFBFFFF10B500299D
:1010D00004DB0124E40740428C412146002B04DB61
:1010E0001C460123DB075242A341994200D19042A2
:1010F00010BD0000064C0125064E05E0E36807CC54
:101100002B430C3C98471034B442F7D3FEF7DCFF76
:10111000E07D0008007E000810B5202A04DB0846A8
:10112000203AD040002110BD0B46D340D0402024AF
:10113000A21A91400843194610BD10B50F21C0B244
:10114000490200F09DF910BDF3B58DB000200A9062
:1011500001200B90002608460C300C46099062696D
:10116000012109989047051E2ED0252D2DD0216AEA
:101170008847002818D06269012109989047216AA0
:1011800088470028F7D1411E62690998904700E01E
:10119000761CA1690D988847216A88470028F7D1F5
:1011A000E1690D988847DAE7A1690D9888470746F5
:1011B000A84201D1761CD2E7E1690D9888477F1CCF
:1011C00002D10A98002877D049E1002762693D469C
:1011D0003946099890472A280CD16269012109985B
:1011E0009047012506E00A214F433F18303FEBD4DA
:1011F0001020054362690121099890470146303962
:101200000A2903D29B498F42DEDCECE7E90600D4D1
:10121000994F6C280AD04C2810D0682824D06A280E
:101220002ED074280CD07A280AD00DE062690121F2
:10123000099890476C2823D004211CE02020054306
:101240006269012109989047A760656065284FD0C1
:1012500026DC582839D01ADC452849D012DC25284C
:1012600034D04128B0D143E0626901210998904708
:10127000682802D008210D43E6E70120C002DEE71E
:101280000220DCE7462833D047282CD130E05B2809
:1012900070D061282CD063286CD0642823D161E001
:1012A0006F284FD009DC662822D0672820D0692813
:1012B00026D06E2817D12EE0CDE070284DD07328AF
:1012C0006FD075284ED078280DD154E0A1690D98C3
:1012D00088470546252800D16CE7E1690D988847C5
:1012E0006D1C00D16DE7BAE00A224CE00A2252E000
:1012F000012023466A46C0430D99FFF7E4F8A3E0B6
:101300002846402108436060A807234601D50022F3
:1013100039E000223FE0E80700D020E72068011D07
:1013200021600068290501D5067018E7290701D555
:10133000068014E7A90703D5F117066041600EE7A0
:1013400006600CE72846402108436060A807234652
:1013500001D5082217E008221DE048492846084028
:10136000606016E02846402108436060A8072346D5
:10137000BCD5B9E715E02846402108436060A807BE
:1013800007D5234610220120C0430D99C046C04610
:101390005AE0234610220120C0430D99FEF7EAFED1
:1013A00052E000210C910B460091632802D05B288B
:1013B00007D043E0E80601D40120A060012000909E
:1013C0003CE062690121099890475E2805D101201F
:1013D0000C9001466269099890472169002906D15D
:1013E0000B4601AA8F00491CD3510829FADB0028BB
:1013F00035D0216900290ED1C117C90E09184A112B
:10140000930001AA9A1849094901411A0120136859
:1014100088400343136062690121099890475D2861
:10142000E5D10C98002808D0002001AB81005A5863
:10143000401CD2435A500828F8DB01AB0120224659
:10144000C0430D99FEF73BFF00280ADA401C06D185
:101450000B98002803D00020C0430FB0F0BD0A98BD
:10146000FBE7E90702D10A99491C0A9136180020C6
:101470000B9074E6CCCCCC0CFFFFFF7FF1F7FFFFA5
:101480007F2801D9002207E0054B42089A5CC0077B
:1014900000D112091207120F012090400840704736
:1014A000A667000810B50146806A836D826D5024DE
:1014B000234206D0D20621D4006D426B08469047E5
:1014C00010BD01214B021A4382650268D3681B05D7
:1014D0009B0F1DD1837E002B1AD113681B0717D5D4
:1014E00093685B070DD451680C2399435160FF2129
:1014F0000231826D8A43511C816509E000F0EAFAED
:1015000010BD826D202313438365C26D0A43C265FB
:1015100000F0DEFA10BD80B5806A816D40220A437A
:101520008265C16D04220A43C26500F0D3FA80BD12
:1015300080B5806A00F0CDFA80BD000070B5044629
:10154000016888688A680026800725D40120024047
:1015500022D08A6805231340012B1FD18868C14A15
:101560000240901C88600320086000F0E7FE0546FA
:1015700020688068C0070FD000F0E0FE401B032801
:10158000F6D320688068C007F2D0A06D1021014317
:10159000A165E16D012006E0304670BDA16D10220D
:1015A0000A43A265E16D0143E16570BDF8B50446EB
:1015B0000027009700688168C9071AD18168A94B84
:1015C0001A462F32114208D0A06D10210143A165A7
:1015D000E06D01252843E0650CE081681940012594
:1015E000294381601A480068000205D4607E012802
:1015F0000FD13D462846F8BD164800681649FFF74A
:10160000C6FB401C009000980028EFD00098401EB8
:10161000F8E700F093FE064620680168C907E8D1A4
:101620008168C90705D181688E4A114001220A43A9
:10163000826000F083FE801B0328EDD320680068E1
:10164000C007E9D1A06D10210143A165E06DC1E79C
:101650000827014078000020400D030080B50248B3
:1016600000F06EFC80BDC0463802002080B5024804
:1016700000F066FC80BDC046DC01002010B50446C9
:101680000948216C09188030032291436164A064E9
:10169000207808381421FFF77AFB1F210140012030
:1016A0008840E06410BDC0460008024010B50849FB
:1016B00042683F2313405A1E0323134001249C40D9
:1016C00092005218403102654165846510BDC046E4
:1016D0000009024070B5846CC56C6560046D002C17
:1016E00002D0446D856D6560046C1C252540012485
:1016F000AC40084D2E6826432E6004686360806805
:101700001028134600D00B46A360102800D01146C5
:10171000E16070BD0400024080B5012000F022FDB0
:1017200080BD80B5402000F01DFD80BDEFF310802E
:1017300072B6FEE7F0B587B0044600250695542042
:10174000205C012801D102204CE0274654370120BB
:10175000059038702046FFF7F1FE2668B268A16D4B
:10176000D20730D103970290812252009143891C05
:10177000A165F168F268394B1340F36038480840BE
:1017800001903046B4300490364A37492F462B46F4
:10179000082F29D01846B368134018321A43B26094
:1017A000B268002A06D5069A521C0692069A8A4208
:1017B000F6D30DE0049A12687F23134018180346ED
:1017C0007F1C284AE4E7102211433D70A16509E01F
:1017D000002003990870A06D10210143022081436D
:1017E000A165059807B0F0BDB168114001200590D2
:1017F0000143B1601F46049B196810467F22914344
:10180000FA080A431A60B168014002273943B160FF
:1018100000F094FD064620688168C90712D000F0E8
:101820008DFD801B0328F6D320688068C007F2D0A6
:10183000A06D10210143A165E06D05990843E065A5
:101840000846CFE7C168019A1143C160A06D01212C
:101850000143B9430298039FB7E7C046FC7FFFFFEF
:1018600003800000E8FFFF7F00F20200F0B589B0BE
:10187000002508955422825C012A01D10224E4E06B
:101880000646543601243470026893685B0711D40D
:1018900004694B68022B12D1042004438648844219
:1018A00052D18448C0430B68D9430143906A084031
:1018B00090624AE0816D20220A438265C4E0079667
:1018C0000693042634437B4B7B4FBC424DD10F68BB
:1018D0003B40906A18431346283318603802536916
:1018E00083438968014075480840184350610024CB
:1018F000002F01D4079EA7E0012671483B460768E8
:1019000007208205394611406E480293834273D105
:10191000F0053B4603406FD1FA4F3B6893431943B0
:1019200001433960F2480068F249FFF730FA0C21B0
:1019300041430C310891079E0898002800D183E0AC
:101940000898401E0890F7E70B680024002B7BD511
:10195000EC4801685C4A93426AD05C4A93426AD080
:10196000584A934270D1052263E0029605951F27DD
:10197000069C27400F2500950397BD40046E0195F6
:10198000AC4304940F681F424ED0FB07059D2C46C4
:1019900063D1BB075CD47B075CD43B075CD4FB06FC
:1019A000029C5AD4BB066BD47B066BD43B066BD42B
:1019B000FB056BD40297BB056AD4029B5B0569D417
:1019C000029B1B0568D4029BDB0467D4029B9B042B
:1019D00066D4029B5B0465D4029F3B04009C059D7A
:1019E0003BD4FB0361D4029B9B0360D4029F7B0327
:1019F000DB1712241C4019E03348029B834203D1B9
:101A000030063B46034008D03048029B834200D05A
:101A100070E7B005074000D06CE7BA4F3B689343CE
:101A200019430143396065E77B00DC0E059D14E036
:101A30000322920501E00322D205114007229205FC
:101A400003689343591801603570204609B0F0BD12
:101A5000012402E0022400E00324039EB440049B1E
:101A60001C430466069B9B08C069984200D835E772
:101A70000198C043936A0340B800000FB04029E7C3
:101A80000524EAE70624E8E70724E6E70824E4E774
:101A9000092408E00A2406E00B2404E00C2402E0F8
:101AA0000D2400E00E24029FC0E71024FBE7112460
:101AB000F9E7C046FFFF07000400008000FFFF07B2
:101AC00008270140001000B0004000B8002000B41A
:101AD0007047704770470000F0B589B0002608963F
:101AE00000283FD00546806D002807D12C4654348D
:101AF000284600F009F900202070E86501273C071E
:101B00002B689868C000079313D498687749014000
:101B100021439960764800687649FFF738F9079BBA
:101B20004000801C08900898002802D00898401EA9
:101B3000F8E7284658309968214207D1A96D10224C
:101B40000A43AA65E96D01263143E9659A68194699
:101B50000368102423405207D20F9A18026803D05A
:101B60002243BFE00127BEE0634B1A40921C026093
:101B70008A68D207069605941BD12F4620372A6B18
:101B8000531E9A411203AB682C7EA4031C436B7E48
:101B9000DE032643A97E01914B033343EC681C43CB
:101BA00014430121CE072A69002A029203DAB243C4
:101BB00002E02F6953E04A0514433A7B5200224366
:101BC0003B78012B0CD1019B002B07D0AB6D20245F
:101BD0001C43AC65EB6D0B43EB6501E00B041A4352
:101BE0006B6A002B0491039605D00724A4012340BF
:101BF0001343AA6A1A430799CB68404C1C4014430C
:101C0000CC60032293076A6816461E40EC6C34438E
:101C10003E7F012E07D12E6C6F6CA96C34433C4380
:101C20000C4304990C4307990E69354F37402743FD
:101C30000F6103998A4210D09A420ED004998B0703
:101C40009A42029F07D00F239B041A402D4C26680E
:101C50009E43B2182260079901E00799029F4C69E0
:101C600007239C436A6B14434C614C697026B44350
:101C7000AE6B360126434E6101267405A74209D09A
:101C8000002F16D104961C49F331079EB46A0C4309
:101C900031460BE00496EC69A4001C341C26264057
:101CA000154FF337B7402C6E3C438E6A28310C60D9
:101CB000049E07994C691C40944208D10021E965B3
:101CC000A96D01220A4302218A43069F0AE0A86DFA
:101CD0000599084302218843A865EA6D32435C35C3
:101CE000284637460260384609B0F0BDE8FFFF6F6E
:101CF00078000020400D0300FDFEFFFF0102FEFF03
:101D000002FCFF1F08270140F0B58DB0044608A86B
:101D100014252946FEF705FA02A8001D2946FEF7FC
:101D200000FA2068214988423ED100940026069698
:101D30000127B803029002A800F0C0FB002801D0E0
:101D4000FFF7F4FC1A48C16808973A051143C160CF
:101D5000C16811400191019901683943016000682F
:101D6000384001900A960320099001980524200725
:101D700008A900F00DFA0F4D2E622020F9027A0218
:101D800080230D4F2F606C60AE60EE602B616A6146
:101D9000A961E861284600F023F9002801D0FFF787
:101DA000C5FC0098A86205650DB0F0BD0024014097
:101DB00034100240DC0100201C000240F8B50E4641
:101DC000044601688B6802205B071BD400925422F2
:101DD000A25C012A16D02746543701253D70C868F9
:101DE000C0070AD18868C00704D08868174A024033
:101DF000901C8860C8682843C8602046FFF7D6FB5F
:101E0000002800D0F8BDA06D114901402802081833
:101E1000A0650020E06521681C220A603870206DF2
:101E20000C4A0D4B0D4DC562036342634A68102393
:101E300013434B6040313246009B00F029F9216882
:101E40008A68024B13401A1D8A60F8BDE8FFFF7FC5
:101E5000FEF0FFFF1715000831150008A514000853
:101E600070B500282AD0014624314A78022A27D1A9
:101E7000046822680E239A432260426C15682F4B37
:101E80001D4015602568012295432560046C1C25C2
:101E900025401446AC40514D2E6826432E60846C7C
:101EA000C56C6560046D002C05D025681D4025605B
:101EB000436D806D58604A70002004E0012070BDC1
:101EC0000422C263012000220A7070BD70B5252172
:101ED000415C02292CD10146243103681A680E2482
:101EE000A2431A601C68012294431C60446C25685C
:101EF000124B1D402560046C1C2525401446AC4047
:101F0000364D2E6826432E60846CC56C6560046D6A
:101F1000002C05D025681D402560436D846D5C60F4
:101F200000240C704A70816B002904D0884702E0BD
:101F30000421C1630124204670BDC046FFFEFFFF9F
:101F4000F8B5016C1C240C4004263346A3402349F9
:101F50000A1F1768026815683B4201D069071DD443
:101F6000034624330226A6403E4201D0A90721D4CD
:101F7000E740390731D529072FD511680E25A94328
:101F8000116001210A46A240144D2C6814432C60B4
:101F9000C16300221A705970416B1BE011688906F9
:101FA00002D41168B14311600C4A116819431160E1
:101FB000016B0FE01168890605D411680A24A1435A
:101FC00011600121597000211970044A11683143D0
:101FD0001160C16A002900D08847F8BD04000240A2
:101FE000FEB500282FD0044601462431022002917C
:101FF0004870266830682449014031602348301811
:102000001421FEF7C4FE80002064A16827460C3727
:102010008DCFE5690095256A019508431043184363
:1020200038430099084301990843316801433160FE
:102030002046FFF723FB0126B003A168814204D1AB
:102040000020606002E00120FEBD60683F21014089
:10205000626C1160A16CE26C4A60401E032809D8D2
:102060002046FFF723FB206D00210160606DA16D0C
:10207000416003E0002020656065A0650020E0630A
:10208000029908704E70FEBD0F80FFFFF8FFFDBF84
:10209000F8B505462420285C012801D1022436E049
:1020A00028462430012404704678012E12D10224DF
:1020B00044700024EC63286807680126B743076072
:1020C0002846FFF707FB286801682A6B002A06D01C
:1020D0000E2209E0002101708020E86317E004224D
:1020E0009143016002680A211143016031026A6C68
:1020F0001368DB0302D513680B4313602A6D002AB3
:1021000002D013680B43136001683143016020461D
:10211000F8BD0000B0B5044600F010F90546601C9B
:1021200002D0C2480078041900F008F9401BA04210
:10213000FAD3B0BD402807D0012809D1084841781A
:10214000042906D3002106E004480168491C016007
:1021500070474178491C41707047C04674000020A8
:1021600094000020B0B50446074D2868204203D0F3
:102170002C60204600F00AF86868204203D06C60AA
:102180002046FFF7D7FFB0BD0C1802407047000093
:10219000F0B588B007465C48874201D0052000E0D2
:1021A00003200090002605960796334606970D6893
:1021B0002846D84000D1A4E0012402949C40254048
:1021C00000D195E0049303964E68032332461A40EB
:1021D000501E01281AD803230196079EB340B86801
:1021E0009843CF68B7400743069887600198C006B8
:1021F000C00F049EB040069F7F68A7430743069820
:102200004760069FD8437400019E08E01846079C6B
:10221000A040C043032A02D1079C1A461CE0FB6879
:1022200003408F68A7401F43069BDF60069F022A7A
:1022300012D11C22059B1A400F239340049EF608DE
:10224000B600BE19376A9F430B6993403B43069F14
:1022500033624E6803223240A2403B68034013437E
:102260003B60B003800F039E049B41D01824344090
:102270000F20A04003229343244AD218136E8343B5
:10228000603205200007874208D02248874207D0E5
:1022900021488742009804D1022002E0002000E09B
:1022A0000298A04018431060184800684B68DA0292
:1022B00001D5284300E0A843144A106050689A02F0
:1022C00001D5284300E0A843104A506010484068F8
:1022D0009A0301D5284300E0A8430D4A50601068D6
:1022E000DA0301D5284300E0A843049B084A1060A4
:1022F00008360598001D05900798801C07905B1C08
:1023000055E708B0F0BDC046000C00500018024070
:1023100080180240000400500008005042690B463B
:1023200093430A401104C91881617047002A01D003
:10233000182200E0282281507047000021480068E0
:102340007047C046B0B5002822D004460068134943
:1023500001601349016061684160A1688160FFF715
:10236000EDFF05462068C16849070AD0FFF7E6FF80
:10237000401B3228F6D32068C0684007F2D0032003
:10238000B0BDE16802698A4204D10949016002E0F6
:102390000120B0BD01610020B0BDC046CCCC000022
:1023A0005555000000680249016000207047C04692
:1023B000AAAA00001D48007802490A68101808609F
:1023C0007047C046F007002010B501242002E14903
:1023D0000A6802430A60032000F008F8002802D1CE
:1023E00000F026F80024204610BDC04670B50F4E00
:1023F00031780124002916D005467D20C000FEF763
:10240000C6FC0146DE480068FEF7C1FC00F058FD3E
:10241000032D08D8002806D10024E043294622468F
:1024200000F028F87560204670BDC04614000020FA
:1024300082B009484168012211434160416811405E
:1024400001910199110702680A430260006808407F
:102450000090009802B070473C100240002805D45C
:102460001F21084001218140014801607047C0469A
:1024700000E100E080B502F029F880BD70B50325C9
:1024800069025A4E32688A4302433260012149028E
:10249000002488420DD1BA48016806204843064905
:1024A000FEF775FC801C7169490502D5401EFAD102
:1024B0002C46204670BDC04640420F00F0B585B0A6
:1024C000044680788007484F01D4002548E0012267
:1024D0001107386B0840039006D1386B0843386306
:1024E000386B0840049004980291019216023F4F05
:1024F000386830433860FFF721FF054638683042BE
:1025000007D1FFF71BFF401B0228F7D90325364FE1
:102510001FE0032529023448006D084011D061698D
:1025200088420CD0304B186D019909041A6D0A438A
:102530001A651A6D8A431A652D4908401865C00747
:1025400043D1294F386D2A490840616901433965F3
:1025500000250398002803D1386B0299884338631B
:102560002068C10705D0B96C0322914362680A4311
:10257000BA64810606D503210903BA6C8A43A168AF
:102580001143B964012142040CD5BA6C194B1A40AD
:1025900026693243BA645A1C964203D10A043B6846
:1025A00013433B6000050DD5880303229203BB6CE7
:1025B0009343E2681343BB64824203D10804396841
:1025C00001433960284605B0F0BDFFF7B7FE064667
:1025D000614F0548006D8007B3D4FFF7AFFE801B45
:1025E000B842F6D993E7C0460C1002400070004094
:1025F000FFFCFFFFFFFFFF3FFEB50D460121002856
:1026000000D1A4E0019102905248006807242040C4
:10261000A84213D24F490868A043284308604E4E91
:10262000FFF78CFE07464B4800682040A84205D0C3
:10263000FFF784FEC01BB042F5D987E0029B186803
:102640008107704E0CD5410703D5210332680A4338
:1026500032600F21090232688A4399681143316060
:10266000C00718D13B4800682040A84229D9394901
:102670000868A04328430860374FFFF75FFE06460F
:10268000344800682040A8421BD0FFF757FE801B4B
:10269000B842F5D95AE05868032830D8810002A220
:1026A0005158584A8F46C046B926000805270008E9
:1026B0000F2700081927000811460839096849053D
:1026C0002CE0029A107840074E4D05D5200329686A
:1026D0008143D0680843286000F056F829688909CA
:1026E0003C220A401D4989581F220A40D0402449F3
:1026F00008601B480068FFF779FE014627E0414A61
:10270000516D0AE0114608390968890306E011464F
:1027100008390968890101E0916D8907019916D589
:102720001168A143014311600B4FFFF707FE0646F6
:10273000344800683821014002984068C000814256
:1027400090D0FFF7FBFD801BB842F1D9032108466A
:10275000FEBDC0460020024088130000E867000864
:10276000180000200648006826490968890A1C22CA
:102770000A40044989581F220A40D0407047C04689
:10278000780000202868000810B51E4C20688006DC
:10279000400F06D0226838210A401B48082A07D17A
:1027A00010BD083C20688004410F1848C84010BD87
:1027B00022680A40102A15D1616803220A40032AC0
:1027C00000D0124861684906490F491CFEF7DFFA3C
:1027D00061684904490E48436168490F491CFEF786
:1027E000D6FA10BD20680840202802D10120C0037D
:1027F00010BD20680840182801D0002010BD7D20A1
:10280000000210BD0810024000127A000024F400FB
:10281000F0B587B00125002800D1E7E104950590C7
:102820000078C007F34F14D0B96838200840F96821
:102830000325102802D12940032902D0082800D0FE
:1028400097E03868800304D505984068002800D1D7
:1028500080E105980078800724D405980078000767
:102860000CD5B8683821014018296DD1386E800721
:1028700004D505988069002800D16BE1059A10788D
:10288000400700D43BE1B86838210140202900D03E
:1028900082E0F86D800700D431E19068002800D014
:1028A0002DE157E1B96838200840F9680325102860
:1028B00002D12940022920D000281ED03868059A6C
:1028C000D168002900D1AFE00721C902884311690E
:1028D00001433960012001023A680A433A608402E8
:1028E000FFF72CFD06463868204200D0AEE0FFF727
:1028F00025FD801B0228F6D978E139684905059B3A
:1029000003D5D968002900D124E17F2109027A6822
:102910008A43596909021143796000280DD10720C3
:10292000C0023968814318690843386038688004F8
:10293000400FB149C140B1480160B1480068FFF79C
:1029400055FD002889D005E1386E0599896900296F
:1029500059D0012108433866FFF7F0FC0646386E6F
:1029600080078BD4FFF7EAFC801B03250228F6D9E9
:102970003CE105984168012254041004814207D0CB
:1029800005231B0499426BD191043A680A433A60CB
:102990003968014339606CE0012003900107F86B4E
:1029A0000840029006D1F86B0843F863F86B0840C2
:1029B00006900698019193480068C00513D40398C7
:1029C00004029049086820430860FFF7B7FC0646F8
:1029D0008C480068204206D1FFF7B0FC801B03251D
:1029E0000228F5D902E105988068874C012805D0B6
:1029F00005284BD1F86D04210143F965F86D039961
:102A00000843F8654CE0012188433866FFF796FCDF
:102A10000646386E800700D430E7FFF78FFC801B36
:102A200003250228F5D9E1E001210A02904338602C
:102A30008C02FFF783FC06463868204200D10CE781
:102A4000FFF77CFC801B0228F6D9CFE07F20000234
:102A50007968814305984069000208437860FCE684
:102A60003B6883433B6090043A6882433A600029A4
:102A700023D0FFF763FC06463868204200D0E8E622
:102A8000FFF75CFC801B6428F6D9AFE0F96D039A70
:102A90009143F965F96D04229143F965002819D035
:102AA000FFF74CFC0646F86D800720D4FFF746FC84
:102AB000801B0325A042F6D998E0FFF73FFC0646AD
:102AC0003868204200D1C4E6FFF738FC801B642838
:102AD000F6D98BE0FFF732FC0646F86D800706D585
:102AE000FFF72CFC801B0325A042F6D97EE002985C
:102AF0000028059A03D1F86B01998843F863D469DB
:102B0000002C72D0B86838210140102924D1012C42
:102B100020D0F86803210140059B1A6A914219D11F
:102B2000702101405A6A914214D17F21090201406B
:102B30009A6A120291420DD11F2149040140DA6ABA
:102B40009142049D52D1072149070840196B8842E0
:102B50004BD04BE0049D49E00125290638680491DB
:102B600088433860FFF7EAFB0646022C0BD1039539
:102B70006C063868204211D0FFF7E0FB801B03256C
:102B80000228F6D932E06C063868204229D0FFF7D7
:102B9000D5FB801B03250228F6D927E0F8681C49DD
:102BA0000140059E20366DCE0843104319020143B3
:102BB00029433143F9603868049908433860039821
:102BC0000007F9680143F960FFF7B8FB064638686B
:102BD00020420AD1FFF7B2FB801B03250228F6D959
:102BE00004E0F86809490140F9600025284607B06B
:102BF000F0BDC046001002400024F4007800002020
:102C0000180000200070004088130000FCFFFEEF59
:102C10008C80C11FF0B585B000280CD00446054655
:102C20005C3541208600606A002806D000202061C3
:102C30002046143006E0012064E06068B04203D012
:102C400020461C30002101600027A7626878002818
:102C500004D100202870204600F056F80220049588
:102C600001906870206801684022914303900160E0
:102C7000E168924A012591422A4600D33A4612035E
:102C8000ED020D430F2738020290854201D0002546
:102C9000A5626568A768354021239B023B405B190C
:102CA0002569019805401D436069012318402843A8
:102CB000FC36A7693E400643E069382505403543A8
:102CC000206A802606402E435803A56A05403543F6
:102CD000039E3560380C04250540029801400A43E4
:102CE0002A43606A102101401143606B08220240B0
:102CF0000A437260D802F1698143F16100202066C5
:102D000004994B7005B0F0BDFEB5006811498842CA
:102D10001DD101200103104AD3680B43D360D3684F
:102D20000B40019301991168014311601168014042
:102D300000910020059004900390022002908220D0
:102D4000019005200007009901A9FFF721FA06B0BC
:102D500080BDC0460030014034100240F0B587B05D
:102D600004465C20205C012801D10225A2E00D462A
:102D7000059203932746443701263E76FFF7DEFA95
:102D8000797E01293ED10295002D3546059900D165
:102D90008DE00029354600D189E004900196032595
:102DA0007D7600202066E187A1870299A1632064D7
:102DB0003880E06420650090788020680121CA0393
:102DC000A368934207D1026840239A4302608903B3
:102DD00002680A43026001684906039E03D4016841
:102DE00040220A4302606168E268344B9A420BD386
:102DF000002902D00599012911D1029A1188C160D8
:102E0000901C08E0022552E0002902D00599012912
:102E100022D1029918E0A063E08F401EE087E08F86
:102E200000282CD020688168890708D4FFF786FA2B
:102E3000711CF4D00499401AB042F0D31BE0A16B8E
:102E40000A88C260881CE6E709780173A06B401C01
:102E5000A063E08F401EE087E08F00280FD020683D
:102E60008168890709D4FFF769FA711CF4D00499C5
:102E7000401AB042F0D3019E19E0A16BE4E720466E
:102E80003146049A00F03CFD002801D02020206645
:102E9000A0680028019E07D1009806902068C168AC
:102EA0000691806806900698256E681E8541002070
:102EB00038767E76284607B0F0BDC0460107000090
:102EC000401E010E01D0012070470749074A50609B
:102ED000074803680B400321890759180160002047
:102EE0009060072111607047FFFFFF0010E000E0D5
:102EF00020ED00E0704770477047B0B500281FD044
:102F0000044605463C356878002804D10020287026
:102F1000204600F017F80220687001CC214600F02E
:102F20009BFF01202873A870E87028716871A87150
:102F3000E87128726872A872E87268700020B0BDEB
:102F40000120B0BD1CB500680B49884200D01CBDF3
:102F50000120C00309490A6802430A600968014068
:102F6000019101981324002120460A46FFF782FAB6
:102F70002046FFF773FA1CBD0020004040100240BD
:102F800010B53D21415C01291BD101463D31022292
:102F90000A700168C86801221043C8600C48814269
:102FA00002D00C4881420ED188680B4B03400020B0
:102FB000062B0CD01404A34209D00B6813430B60FA
:102FC00010BD012010BD086810430860002010BD2E
:102FD000002C014000040040070001007047000081
:102FE000B0B50446006801698907554D17D5C16819
:102FF000890714D52946FE310161012121778069B5
:10300000800703D02046FFF7E9FF05E0204600F0E7
:1030100099F8204600F097F8002020772068016991
:10302000490718D5C168490715D52946FC31016102
:103030000221217780698005800F03D02046FFF7A9
:10304000CDFF05E0204600F07DF8204600F07BF83B
:103050000020207720680169090717D5C168090792
:1030600014D52946F831016104212177C069800710
:1030700003D02046FFF7B2FF05E0204600F062F8DB
:10308000204600F060F80020207720680169C9061A
:1030900018D5C168C90615D52946F0310161082146
:1030A0002177C0698005800F03D02046FFF796FF87
:1030B00005E0204600F046F8204600F044F80020E5
:1030C000207720680169C90709D0C168C90706D0FF
:1030D0002946FF310161204600F036F82068016979
:1030E000090609D5C168090606D52946803101615E
:1030F0002046FFF700FF20680169C90507D5C168B0
:10310000090604D505612046FFF7F4FE2068016931
:10311000490609D5C168490606D52946C03101616D
:10312000204600F037F820680169890607D5C16894
:10313000890604D5E03505612046FFF7DDFEB0BD08
:10314000FFFEFFFF70477047B0B501218C030C4DA7
:103150000C4988420ED10C488068FDF7E8FD0B4A07
:103160000B4BFDF781FD002804D128462146FFF7CF
:10317000D5F8B0BD012228462146FFF7D7F8B0BDEB
:1031800000080050F802002094000020C3F5285CDD
:103190008FC20D407047B0B58421415C012901D137
:1031A000022111E0024684322421516001680B683B
:1031B0000C680125AC430C606C07A3430B60002135
:1031C00041661170202050600846B0BD70477047BE
:1031D00070B504468420205C012801D1022070BD16
:1031E000254684352420686020680668026801232B
:1031F0009A4302602B7007225206836893430B4365
:103200008360204600F06AFE206806600020287077
:103210002021696070BD70B504468420205C0128BF
:1032200001D1022070BD25468435242068602068C5
:103230000668026801239A4302602B700722520736
:10324000836893430B438360204600F047FE206869
:103250000660002028702021696070BD70477047AB
:1032600070470000F0B585B005460168CA69086876
:1032700003955C3504958B680125EE0237460F37C0
:103280003A42029500D185E0B94C04402D076F1CED
:103290001F403C1900D18BE00195D4070AD0C4052A
:1032A00008D5009002980862049D6C6B0298044354
:1032B00000986C6394070BD5DC0709D002240C62DC
:1032C000049C646B00940424009D2C43049D6C6357
:1032D00054070BD5DC0709D004240C62049C646BF2
:1032E00000940224009D2C43049D6C63140709D5AF
:1032F00020240440274305D008240C62049D6F6BF2
:1033000027436F63324207D0440105D50E62049D06
:103310006C6B202626436E63049C646B002C039C1C
:1033200000D123E192060BD520221040019A1340D0
:10333000034305D0626F002A02D0204690472168DF
:103340000498406B2822024088684026304080184C
:1033500067D0204600F002FF2068806840065CD5F8
:10336000EFF31080029981F3108821688A68B243D4
:103370008A6080F310880498406A00284DD07D4907
:103380008163FEF7A3FD002800D1EFE00498406AB6
:10339000816B27E096060BD520260640029C270766
:1033A0001F40BE1904D00398416F00291AD1DDE0F7
:1033B000039FFC6E012C03D1D40601D5C40637D47B
:1033C000D40201D55C0221D4029EF10514060BD56E
:1033D000802404400B40234306D0B96F002900D15C
:1033E000C4E038468847C1E0530601D543065BD4A4
:1033F0000A4201D041006BD4D10100D4B6E00028CC
:1034000000D4B3E03846FFF7E2FEAFE002980005D3
:1034100008623846FFF723FFA8E02046FFF720FFA9
:10342000A4E02046FFF71CFF0020049948639DE0BC
:1034300010200862896849064ED4049D69882A884C
:103440006B88002B00D191E0511A0A0400D18DE065
:10345000EFF310820191029981F3108809235B0137
:103460003C6826689E43266082F31088EFF3108242
:1034700081F310883B689C68404E26409E6082F332
:10348000108820222A6300227A67FA66EFF31082FE
:1034900081F310883B681C6884431C6082F31088A9
:1034A0000220386701985DE0EFF3108086F3108802
:1034B00039680A6840239A430A6080F31088002024
:1034C000B86720200499C862384600F015FA4DE02C
:1034D0003846FFF7C3FE49E0049D696A0A685368ED
:1034E0009EB2002E42D029888E423FD26B80126855
:1034F000920633D4EFF31081029E86F310881E4AA1
:1035000020323B681C6814401C6081F31088EFF384
:10351000108186F310883A689368B343936081F30F
:103520001088EFF3108186F310883A68936840247E
:10353000A343936081F31088202129630021F96659
:10354000EFF3108186F310883A68136883431360A1
:1035500081F31088686AFEF783FC298802203867A7
:103560006888081A81B23846FFF730FE05B0F0BD12
:103570002001000445400008DFFEFFFFFEFFFFEFD3
:10358000B0B500282FD00446054684356868002869
:1035900004D100202870204600F028F8242068601C
:1035A000206801680125A9430160204600F022FE41
:1035B000012819D0A06A002802D0204600F0B2FCF1
:1035C0000920C00221684A6882434A6088682A222A
:1035D000904388600868012202430A60204600F098
:1035E000FDFC054600E001252846B0BDF0B58DB0D4
:1035F000044608A81421FCF794FD02A81821FCF742
:1036000090FD20683749884229D03749884266D1E1
:10361000002403940125029502A8FEF74FFF00281D
:1036200001D0FEF783F8A8033049CA680243CA6094
:10363000CA68024001920198022009900A68024378
:103640000A600968014001910C940B940A94C0200F
:1036500008900198284808A9FEF79AFD3FE0234802
:10366000826801210C914B041A43826082681A40DF
:103670000192019A02680A430260006808400190C2
:1036800000260B960A96022009900C2008900198BB
:103690000520000708A9FEF77BFD03200003144D59
:1036A0002862202080273421124A2A606960AE6097
:1036B000EE602F616E61AE61E8612846FEF790FC16
:1036C000002801D0FEF732F8E551AC621C2400213D
:1036D00020460A46FEF7CEFE2046FEF7BFFE0DB09E
:1036E000F0BDC046004400400038014034100240A4
:1036F00038020020080002400004005070B58C23FE
:10370000C358202B23D10123002921D0002A1FD008
:1037100001231C038568A54204D10469002C01D152
:10372000CC0715D10024C4660468646824020AD555
:10373000EFF3108483F310889B0605682E681E4300
:103740002E6084F3108800F003FE034600E002239D
:10375000184670BD70B5ACB02B4E30461830FEF731
:1037600021FE7069401C706100F0A2FF01AC204690
:1037700000F0CCFE2548AC222146FCF7B9FCF068ED
:103780002349FDF73FFA002805D1F0680021FDF735
:1037900039FA002809D1F068FDF7C9FA02460B464C
:1037A0001C480E301CA102F061FBF0680021FDF7FF
:1037B0001BFA00280FD1F0681549FDF723FA0028FD
:1037C00009D1F068FDF7B3FA02460B4611480E30F6
:1037D000134902F04BFB3069FDF7A9FA02460B468C
:1037E0000C4C201D0E4D294602F040FBB068FDF741
:1037F0009EFA02460B4609342046294602F036FB63
:10380000012030702CB070BD94000020CC0000204E
:103810000000204100000020252E316C66000000D1
:10382000AB7D000870470000F0B585B007468820E2
:103830003858202827D10125002958D0002A56D0F1
:1038400001252C03B868A04204D13869002801D1B1
:10385000C8074CD10291039301943C46543400258F
:10386000E563212060631646FEF768FD04906680DC
:103870002680B8680199884202D13869002804D0AE
:10388000029E029502E0022531E00026039960883D
:1038900000281ED000918021002538462A46049B2E
:1038A00000F0A6FD00281ED1002E04D03078396823
:1038B0008862761C08E0029A10880E490840396830
:1038C0008862921C02922E4603996088401E608096
:1038D000DDE700914021002538462A46049B00F090
:1038E00087FD002801D0032501E0202060632846E1
:1038F00005B0F0BDFF0100007047FEE7FEE770472E
:10390000F8B516460F4605460324E1023A4633460B
:1039100000F01AF800280FD128463946324600F048
:103920007DF8002808D10320410228463A46334654
:1039300000F00AF8002805D0286E202101432966EE
:103940002046F8BD0024FBE7F0B587B01D461646BB
:103950000F46044605A8002103910170FEF7EEFC16
:10396000281A8519FEF7EAFC03465448006823210B
:103970004143080D04956843069020465C30009052
:10398000029424682046816839421BD003256902CD
:103990008F4203D1217B05AA11700599711CF2D0C9
:1039A0000193FEF7CBFC019BC01A049988420DD20B
:1039B00006980699491E0691002800D104900298A5
:1039C0000068E0E7039D284607B0F0BD029C206830
:1039D0004168E022914341604121890062688A4246
:1039E0000BD1A1680122D303994202D092029142E5
:1039F00003D1016840229143016001214A03A36A77
:103A0000934205D103689343036003681343036043
:103A10000020009A10705170D5E7C046FEB51646DA
:103A20000D460446FEF78AFC301A4719FEF786FC5D
:103A30000646224800684001000D78430290204667
:103A40005C3001902068816809060ED5691CFAD0A7
:103A5000FEF774FC801BB84209D202980299491EF5
:103A600002910028EED10746ECE70020FEBD206859
:103A70004168E022914341604121890062688A42A5
:103A80000BD1A1680122D303994202D09202914244
:103A900003D1016840229143016001214A03A36AD6
:103AA000934205D1036893430360036813430360A3
:103AB0000020019A107051700320FEBD7800002094
:103AC00080B50520000701221103FEF72FFC80BD01
:103AD00080B505200007012109030022FEF726FC1E
:103AE00080BDF8B50678441C30061AD0207800F066
:103AF000DFF867787F253D40A41C002D04D02046C8
:103B0000294600F0E7F86419761E78B20028EBD554
:103B10002078FF2801D17D208000FEF7FBFA641C8D
:103B2000E2E7F8BDF8B51C4615460E46074606986E
:103B30000090384600F00EF800200090781C80B20B
:103B4000711C89B2AA1E92B2A31E9BB200F002F8A9
:103B5000F8BD0000F0B585B09F283FD80E464F292C
:103B60003CD81C46154607461018A02801D9A020AD
:103B7000C51B0A980390E819401EC0B20290A01914
:103B8000502801D95020841BA019401EC0B20190BA
:103B900000F056F8F8B2F1B2029A019B00F05AF820
:103BA00004A803994170090A01700520000720212B
:103BB0000122FEF7BBFB504E20040DD02F463804E7
:103BC00008D00020C34304A902223046FFF7C6F8FC
:103BD0007F1EF4E7641EEFE700F062F805B0F0BD69
:103BE000E0B500900020A02250230146FFF7B2FF6D
:103BF0008CBD000070B500F023F8052425071026C1
:103C0000002228463146FEF791FB2046FEF782FA55
:103C1000012228463146FEF789FB0548054CA0479E
:103C20000548A0470548A04700F03AF870BDC046D7
:103C3000387D0008E33A0008737D0008807D0008A5
:103C400080B5052000070121C9020022FEF76EFBA6
:103C500080BD0000F8B51D4616460C4607462A20D2
:103C60000E498847701C6E46F0700020B070791CB9
:103C70007170307004273046394600F02BF82B2045
:103C8000064988471A35F5701A347470304639463B
:103C900000F020F82C2001498847F8BDB13C00080D
:103CA00080B5052000070122D102FEF73FFB80BD51
:103CB000BCB501AC207005200007202100252A4654
:103CC000FEF734FBEB430C4801222146FFF746F890
:103CD000BCBDC046B0B50D460446052000072021F6
:103CE0000122FEF723FBAAB20020C343024821466B
:103CF000FFF734F8B0BDC04694020020F0B58FB095
:103D00001D46144605910746FFF79AFF224616986E
:103D10000B90000A0A9015980646000A0C90ECB227
:103D20000295280A0190C0B2089014980690157860
:103D3000002D4BD0B8B220189F280BD905980899B0
:103D40004018059080B209184F293FD80027202D30
:103D500002D139E0059880B204920299C919491E2E
:103D6000CAB201990818401EC3B20397F8B2059968
:103D7000C9B2FFF76FFF203D089845430021079522
:103D8000089881421DD009914819400006990D5AA2
:103D90000027BC4211D02846B840000403D50EA825
:103DA00046700C9903E00DA80B9941700A990170B7
:103DB0000221FFF78FFF7F1CEBE70999491C079D44
:103DC000DEE7039F3F19049A521CB0E7FFF768FF34
:103DD0000FB0F0BD704780B5FEF7ECFA80BD70B54E
:103DE00092B00025079506950495039502950195D7
:103DF00001267002FEF742FB7007119070041090CC
:103E000008200F900E9502240D940C940B964020E0
:103E10000A900995300208900A20059005A8FEF73F
:103E2000F7FC00280CD1049503950720019002941B
:103E300001A82146FEF7E0FB002801D112B070BDB9
:103E4000FDF774FC7047000080B50248FFF7C8F822
:103E500080BDC046F802002010B504681A4A90429E
:103E600004D01A4B984201D0234605E070239C43AE
:103E70004B68234390420CD0144CA04209D0144C00
:103E8000A04206D0134CA04203D0134CA0421C46C3
:103E900004D103242402A343CC681C4380239C4305
:103EA0004B69234303608B68C3620B688362904253
:103EB00005D0084A904202D0074A904201D10969D0
:103EC00001630121416110BD002C0140000400404C
:103ED000002000400048014000440140F8B505467C
:103EE0006835416E002914D0006886688068400FEC
:103EF0000A49095C0A4F385CC000FCF748FF0446D9
:103F00003001400F0549095C385CC000FCF73FFFF9
:103F100001E00124204628806C80F8BD307D000837
:103F2000287D0008B0B5816ACA0707D00122520473
:103F300003685C689443C26A22435A608A0707D5C3
:103F40000122120403685C689443026B22435A60A6
:103F50004A0707D50122920403685C689443426BC8
:103F600022435A600A0707D50122D20303685C681E
:103F70009443826B22435A60CA0607D5012212037A
:103F800003689C689443C26B22439A608A0607D5F3
:103F90000122520303689C689443026C22439A6096
:103FA0004A0610D501221305026854689C43456CEB
:103FB0002C4354609D4206D103235B0554689C4307
:103FC000836C23435360090607D50121C9040268A5
:103FD00053688B43C06C18435060B0BD7CB5054638
:103FE000902000242C50FEF7A9F9064628680168A5
:103FF00009070BD5124800900120410500222846F0
:10400000334600F0F5F900280ED128680068400713
:104010000CD50B480090012081050022284633462C
:1040200000F0E6F9002801D0032407E02846843098
:10403000202141608160EC6604702C6720467CBDC5
:10404000FFFFFF0180B5806A0146563100220A81D8
:1040500056214252FFF704F980BDF8B5846A8820E2
:104060002258254688356F6820688168264656366E
:10407000212A08D18022114005D00020308020461E
:1040800000F09CF820688068222F07D1402108406A
:1040900004D000203081204600F060F8A86810218C
:1040A0000143A9602046FFF7DBF8F8BD70B5014673
:1040B000806A02465C3209680968890632D40021A8
:1040C0005180EFF31083012181F310880C02056801
:1040D0002E68A6432E6083F31088EFF3108381F3DC
:1040E00010880468A5688D43A56083F31088EFF3FA
:1040F000108381F310880468A5684026B543A56045
:1041000083F3108820231363C36E012B0AD1EFF3CE
:10411000108381F3108801680C681025AC430C6093
:1041200083F3108800210167C16E012903D1118832
:10413000FFF74CF870BDFFF70DFB70BD80B5806ACE
:1041400001210167C16E012905D15C21415A49084D
:10415000FFF73CF880BDFFF765FB80BDB0B5EFF31E
:104160001082012181F3108809235B01046825680E
:104170009D43256082F31088EFF3108281F310884D
:1041800003689C680C4D25409D6082F31088C26EC8
:10419000012A0AD1EFF3108281F3108801680B68BD
:1041A0001024A3430B6082F310888C2120224250FC
:1041B00000214167C166B0BDFEFFFFEFB0B5EFF370
:1041C0001081012282F3108803681C68C025AC436B
:1041D0001C6081F31088EFF3108182F31088D20500
:1041E00003689C6894439C6081F310888821202296
:1041F0004250B0BDF8B5044600680168474B0B401B
:10420000A16822690A4361691143E26911431943B4
:1042100001600321090343688B43E168194341604E
:10422000A169236A0B4381683D4D0D401D438560A4
:10423000C36A0F218B43616A0B43C362394B9842B7
:1042400009D0394B984208D1384800688007000FE0
:1042500037A31F5802E0002700E0102726466836E3
:104260000125EB0336489A420ED1082F4FD8C0469D
:104270007F443F797F00BF44044A1C4A154A4A4A9A
:104280001B00FEF76FFA0FE0082F40D87F443F79FC
:104290007F00BF44043C2A3C233C3C3C2900FEF701
:1042A00061FA1DE0FEF770FA00282FD0616A00E085
:1042B00018464900234A515AFCF769FD40006168DD
:1042C0004A081018FCF763FD0246103A1E498A425C
:1042D0001DD201400007400F084315E0FEF754FAD5
:1042E000002813D0616A00E018464900154A515A67
:1042F000FCF74DFD61684A081018FCF748FD0146BF
:104300001039114A914202D22168C86000250F4835
:10431000306000206067A0672846F8BDF369FFCFD2
:10432000FFF4FF11004400400038014054100240E7
:10433000000000000400000002000000080000006F
:104340000024F400107D0008F0FF000001000100CF
:10435000F8B5134605465C202A522E465C360024EA
:104360007463A96522203063706A002813D00A465E
:104370001D4F1E49C16207631A494163846329685E
:104380002431FDF785FE002805D010207063202021
:104390003063012424E0286900280BD0EFF310805B
:1043A000012181F3108809022A6813680B43136006
:1043B00080F31088EFF31080012181F310882A68C0
:1043C00093680B43936080F31088EFF3108081F3C0
:1043D000108829688A68402313438B6080F3108813
:1043E0002046F8BD5B4000083D410008AD40000894
:1043F000FEB516460F460468014684310191089DBA
:10440000E1693940C91B4A424A41B24233D1691C71
:10441000F6D004460293FDF791FF029BC01AA84212
:104420002BD8002D29D02046246821684907E7D5DC
:10443000E1690905E4D50121CA022262EFF3108483
:1044400081F310880D22520103681D6895431D6099
:1044500084F31088EFF3108481F310880268936866
:104460008B43936084F310882020019A5060906001
:1044700010460C301DE00020FEBDEFF3108101203E
:1044800080F310880D22520123681D6895431D603A
:1044900081F31088EFF3108180F31088226893680D
:1044A0008343936081F310882020019A5060104666
:1044B000083000211170202101600320FEBD0000A2
:1044C00080B56048FEF7CEFE80BDC046002805D40A
:1044D0000322034693430C4A9A1806E00F22024037
:1044E000083A03239A43074BD2188007C00E89016C
:1044F000C9B28140FF23834010689843084310608D
:104500007047C0461CED00E000E400E0F0B5D3B019
:104510000446AC21FBF705FE01210020324D334E4D
:104520006A88521F914203DA725C5040491CF7E7D7
:104530002870E87B3018401D2246A8322CA1FBF7DA
:10454000FBFDA8202058297888424AD16879301884
:10455000401C28492246FBF7EFFD27460C376846EA
:1045600025493A4613680432036004300439F9D10E
:104570000ECC28AE30460C3C00F012FCAC25204698
:1045800031462A46FBF7B4FD68461B493A46136894
:104590000432036004300439F9D10ECC28AE304621
:1045A0000C3C00F085FA204631462A46FBF7A0FD78
:1045B000684611493A680437026004300439F9D179
:1045C0000ECC28AE30460C3C00F090FB2046314625
:1045D0002A46FBF78DFD6169A0681834224600F079
:1045E0000BFB53B0F0BDC046800000206C040020DF
:1045F00025780000B17D0008A0000000F8B5114842
:10460000114E0F22D04B114D3146A8476427104C54
:104610003846A0473146203127220A48CA4BA847CE
:104620003846A0470F361122064804463146C64B8D
:10463000A847384606498847284996222046FFF76A
:104640005DF8F8BDD80300201C00002029380008C0
:104650001521000870B5002120480A46642A05D0BB
:10466000835C242B01D0521CF8E711460A46002532
:10467000C72A04D8835C2A2B02D0521CF7E72A46AB
:10468000521A521D124E728041187288124C2046E6
:10469000FBF72EFD28467188884208D2215C2C2920
:1046A00003D1E9B2711808716D1C401CF3E770BDAD
:1046B00080B5FFF7CFFF06484288064806496423C5
:1046C000FFF7B2F84B20C1000448FBF72AFD80BD7C
:1046D00080000020440300206C0400209805002086
:1046E000F0B587B01F20C002009000240A222046A7
:1046F00021461346FFF72EFA3348036840680294B8
:10470000324901910E4600900C200690012130A202
:10471000324DA8470096462012262E220F27304DF4
:1047200031463B46A8472948009073202022314655
:104730003B46A8472448036840680090234F0197F0
:10474000029475201521274A244EB047009732263F
:10475000A02205921E25204631462B46204FB84701
:104760001A48009050220492204631462B46B84702
:104770001648009026250D2620462946059A3346E0
:10478000174FB84711480090074620462946049A1B
:104790003346134DA8470C490B6848680D460090F6
:1047A00001970294282610A2069831460B4FB8476D
:1047B0002B68686800900548019002945C200DA267
:1047C0003146B84707B0F0BD6C000020FFFF000085
:1047D000474E5353204641494C000000FD3C000821
:1047E000253B0008DB7D00084353542054696D6568
:1047F00000000000506F736974696F6E0000000064
:1048000084B0F0B585B00AAC0FC4A2480368426812
:1048100000203F2149010092019102900AAA14460A
:1048200018320F210546FFF769FA9B492C9E304646
:10483000FCF7DAF9002810D1EB493046FCF7E2F931
:1048400000280AD12746883400955C2015211622BD
:104850000B23FFF77FF926683C468F493046FCF76B
:10486000D1F9002806D100955520152116220B23D9
:10487000FFF770F9894803684068029588490191FB
:10488000009022469832482015263146854FB84779
:10489000824F3B68786800908148019002957520AE
:1048A000814A31467F4EB0473B68786800907C482B
:1048B0000190029522466732052037210491B047C6
:1048C0003B687868009076480190029522467B32DA
:1048D0000D2043210391B0473B68786800907048F1
:1048E00001900295224629325526304604996D4F93
:1048F000B8476A4F3B687868009069480190029514
:1049000022461F3230460399664EB0473B687868AE
:104910001F2100AA23C2621C97260B2130462F4676
:10492000604DA8475D480368406802975F49019160
:1049300000900C341A21304622465A4CA04705B04C
:10494000F0BC01BC04B00047FFFF000084B0F0B52C
:1049500085B00AAC0FC44F480368426800203F216D
:1049600049010092019102900AAA144618320F21BF
:104970000546FFF7C3F9D6492C9E3046FCF734F9BB
:10498000002810D198493046FCF73CF900280AD19C
:104990002746883400955C20152116220B23FFF74B
:1049A000D9F826683C46CA493046FCF72BF900285E
:1049B00006D100955520152116220B23FFF7CAF8C2
:1049C00036480368406802953549019100902246B7
:1049D0009832482015263146324FB8472F4F3B6852
:1049E000786800902E480190029575202E4A314635
:1049F0002C4EB0473B68786800902948019002959A
:104A000022466732052037210491B0473B68786819
:104A1000009023480190029522467B320D204321CD
:104A20000391B0473B68786800901D48019002955B
:104A3000224629325526304604991A4FB847174F57
:104A40003B687868009016480190029522461F3214
:104A500030460399134EB0473B6878681F2100AA7F
:104A600023C2621C97260B2130462F460D4DA847C6
:104A70000A480368406802970C49019100900C3481
:104A80001A2130462246074CA04705B0F0BC01BCB5
:104A900004B0004764000020000020416C000020AA
:104AA000FFFF0000FD3C0008DB7D00081FF8000050
:104AB00083B0FFB5039009A80EC0434EB079434CB4
:104AC0002018401C09AD2A1D41A1434FB847F07979
:104AD0002018401C6A1C4149B847307A2018401CF5
:104AE0002A4610323EA1B847707A2018401C2A4648
:104AF0000C323A49B8473C490D98FBF7A5FE0646EB
:104B00000D90FCF7FBF80446FCF7D6F802900F4630
:104B10002046FCF7BFF801463046FBF750FEFCF795
:104B200006F90026314B3246FBF77EFF304B32460A
:104B3000FBF7E2FF029A3B46FBF7C4FEFCF70BF9DA
:104B40000E900A982849FBF77FFE04460A90FCF76E
:104B5000D5F80746FCF7B0F8029001913846FCF70B
:104B600099F801462046FBF72AFEFCF7E0F83246AA
:104B70001E4BFBF759FF32461D4BFBF7BDFF029A58
:104B8000019BFBF79FFEFCF7E6F80B90FCF7CFF8D4
:104B900002460B4628461F30164C214601F066F9A6
:104BA0000E98FCF7C4F802460B46284629302146E9
:104BB00001F05CF9AC2203982946FBF799FAFFBC97
:104BC00001BC03B00047C046800000206C040020F8
:104BD000253038660000000039010008B17D00086A
:104BE00025303966000000000000C842000059402E
:104BF00000004E40D67D0008FEB516460C4600214A
:104C000091713249FBF78AFD05463149FBF71CFEDD
:104C1000FCF774F80746413070702E492046FBF7C8
:104C20007DFD02902C49FBF70FFEFCF767F8044668
:104C30004130307001960A2047433846FCF72AF885
:104C400001462846FBF7BBFD0746FCF757F805462B
:104C50003030F070142044432046FCF71BF8014626
:104C60000298FBF7ACFD02903F210906FBF7AFFD70
:104C7000FCF744F806463030019CA0702846FCF74B
:104C800009F801463846FBF79AFDFCF750F8134A3D
:104C9000134BFBF731FFFCF75EF8FCF72FF86130A0
:104CA00060717000FBF7F6FF01460298FBF787FD85
:104CB000FCF73DF80B4A0C4BFBF71EFFFCF74BF8DB
:104CC000FCF71CF861302071FEBDC0460000B44204
:104CD00000002041000034430000A041C81BAA731B
:104CE0005655A53F1CF22AC65455B53F83B0FCB5B6
:104CF000019007A80EC02248807A22490818401C5B
:104D000007AE354684352A4608321FA1FBF714FA50
:104D1000A868FCF70CF81D4A1D4BFBF785FEFCF755
:104D20001AF86860FCF703F807460C46194A1A4B54
:104D3000FBF7E2FEFCF70FF8289030469830174951
:104D40003A462346B94CA047B84C2898FBF7EFFFEA
:104D500002460B46304690301049A047A868FBF742
:104D6000E6FF02460B463046A0300C49A047AC2275
:104D700001983146FBF7BCF9FCBC01BC03B000470D
:104D8000800000206C040020253366006F1283C071
:104D9000CAA1FD3FCDCCCCCCCCCC0C40AB7D000827
:104DA00083B0FCB5054607A80EC09B4800799B4E12
:104DB0003018401C07AC22464C329949994FB847ED
:104DC0001A980F2801953B4601DC082101E00F21CC
:104DD000C94308181B90904F38793018C01C2246E0
:104DE00054328F4D29461F4698478B48007930181A
:104DF000401D224658322946B8478748007B301864
:104E0000401C224644322946B84718981A991B9AE2
:104E100035468A4200DA401C19907F48007B2818EA
:104E2000401D264634367E493246B8477D20000173
:104E30001499081814907848007B2818C01C25463F
:104E40003C3577492A46B84718981999814205D1C7
:104E5000626BA263E36B2364019FADE02B68591E74
:104E60000B293ED87944097949008F44053C0E4B03
:104E70001956616C7724822F1F28019F00D08BE088
:104E8000022121640123A36494E01F28019F7BD1A8
:104E9000042121640121A164626BA26303238BE0DE
:104EA0001F28019F72D1062121640121A164626B38
:104EB000A263052380E01F28019F69D10B21216493
:104EC0000121A164626BA2630A2375E01F28019F80
:104ED00060D101212164A164626B511CA1630C2388
:104EE0006AE03268B8E7326802239107B4D11C281F
:104EF00000D18AE01D28019F01D10121A164022374
:104F0000236458E01E28019F48D105212164012116
:104F1000A164626BA26304234EE01E28019F3FD16F
:104F2000072121640121A164626BA263062343E08F
:104F30001F28019F36D1082121640121A164626BE1
:104F4000A263072338E01F28019F2DD10921216486
:104F50000121A164626BA26308232DE01E28019F3A
:104F600024D10A2121640121A164626BA263092377
:104F700022E01E28019F1BD10C2121640121A16484
:104F8000626BA2630B2317E0032312E0052310E0FA
:104F90000A230EE00C230CE001230AE0042308E0BE
:104FA000062306E0072304E0082302E0092300E0CB
:104FB0000B232364626BA263009020465C301A4D81
:104FC0001A4E2946B047A26B236CA06C0090204675
:104FD00067302946B047E26C636DA06D00902046B3
:104FE0007230134D2946B047226D636DA06D00905D
:104FF00020467B302946B047AC2238462146FBF795
:1050000077F8FCBC01BC03B00047032121640121F7
:10501000A164A26320E7C046800000206C04002049
:10502000B47D000839010008B87D00086D5E0008F5
:10503000C77D0008B8B0FDF7C7F9FEF7D0FE002421
:105040003794534A106802212D910843106010686C
:1050500008403290329810680421084310601068AC
:105060002E9108403290329810680126304310602B
:10507000106830403290329803202B908703454DC2
:10508000284639462246FDF751F905202F900007A2
:105090003190FB492246FDF749F936943594349610
:1050A000339733A9F94F28460D462C91B8473A4615
:1050B0002D98369035943496832000013390319F9B
:1050C00038462946904735962120050434954020DE
:1050D000339038462C9F3946EC4A904735963495A4
:1050E0003396EB483946E94DA847369435943496C3
:1050F0007D2040012D906030339031983946A8478B
:10510000E44B2F9F3846214622469847E24D3846C9
:10511000A8470727384621462246DE4B984738469F
:10512000A8471B494868304348604868309630407B
:10513000339033980926304621462246D54B98476E
:105140003046A8470A26304621462246D14B98478A
:105150003046A847D1480821046244628462C7628D
:105160000463319141631021412296003246FC32A2
:105170003B02CB4D60C0046043608460C460026148
:1051800041610838FDF746FD002805D01FE2C04602
:105190003410024000080050C24F0C25C248E121E3
:1051A000490213C73C607C60BD600C3F3846183034
:1051B0001421FAF7B6FF3846FEF7E2F9002800D0CE
:1051C00005E2B8480021FEF726F8002800D0FEE1ED
:1051D000B44800273946FDF7FBFF002800D0F6E170
:1051E000B048FDF7D8FF002800D0F0E1FA4CFB48AA
:1051F0004B21C90183C427606760A5600C3C204631
:1052000018301421FAF78DFF2046FEF7B9F900286F
:1052100000D0DCE13C21F24847542C21309C44541E
:1052200020214754C76407632F994163876347620E
:1052300087622B99C16184760783EA496205E30797
:105240008AC0076042602E9D8560359734973397FA
:105250000C38FCF741FC002800D0B8E135973497B2
:105260003394DF4833A9FCF701FB002800D0AEE1FE
:105270003495DD483390DA4833A9FCF7F7FA002873
:1052800000D0A4E12C9631983490D8483390D4487B
:1052900033A9FCF7EBFA002800D098E1D44DD548AB
:1052A0002D995F31A8612E98E861296269622846CC
:1052B00018302F90FDF746F8002800D087E1CE483F
:1052C0008761CE49CE4ACF4B036042608760C160A0
:1052D0000761FDF712FE002800D078E1C048FCF716
:1052E00029FAC9484188A9800088E880A1032E9145
:1052F000C64EB8483A46B047E1032B91B5483A4606
:10530000B0472C98F030FCF705FFC1492F9888472B
:10531000FEF7D6FBFEF76EFC3846FEF761FCBD4893
:10532000036840680297BC49019100900F203190BA
:105330000721BAA2BD4CA0473F204001009004467F
:105340002A901C21A0223846309BFEF703FCB84966
:105350000B6848680E4621461F3100AA83C203200D
:105360002C902321B3A2B14CA04733687068009001
:10537000A948019002973121B4A23198A04733681F
:10538000706800902A980190029743213191B4A24D
:105390003846A64CA0473368706800909E4801903C
:1053A00002976E20B1A2319C2146A04EB047A04882
:1053B0000368406800909848019002978A20AD4A9F
:1053C00021469A4CA047FEF783FB2F9890498847C7
:1053D0002D98FCF79FFEFFF711F9FEF771FB31974F
:1053E0003846FEF7FDFBFFF77BF97A4E30462E99E3
:1053F000309F3A46854CA04730462B993A46A04705
:10540000FEF766FB2F988249884729462831744861
:105410002C9AFCF7D3FC7848FDF7B2FD9A4E287819
:10542000012800D088E0A868E968934A10326B46EA
:10543000964C176804321F600433043CF9D127905E
:1054400028918D4B0FCB00F025F96878A978884218
:10545000319C0DD0FEF734FB0020FEF7C1FB6878CD
:10546000A8706878002801D1FFF73AF9FEF730FB01
:10547000687804285FD803A1085C40008744C046D0
:1054800030180000162534434C00C0469121000816
:1054900000040050752400085D24000894020020D8
:1054A00000300140440300200038014072481030B1
:1054B0006946764A036804300B600431043AF9D136
:1054C0006D4B0FCB00F086FA35E06B481030694623
:1054D0006E4A036804300B600431043AF9D1664B1C
:1054E0000FCB00F0FBF926E0634810306946674AAD
:1054F000036804300B600431043AF9D15E4B0FCBE2
:1055000000F00AFB17E05B4B18460E30191D1A46D7
:10551000093200F00FFC0EE057480C3069465C4A37
:10552000036804300B600431043AF9D152480EC8C4
:10553000524800F097FA2C70A888FBF7D1FB04467C
:105540000F46286BFBF7CCFB02460B46204639463C
:10555000FBF7D2FA00242246494BFBF765FAFBF72A
:10556000FAFB2861A86AFBF7BBFB02460B46FBF778
:10557000A9F92246434BFBF7BFFA04460F462869B8
:10558000FBF7D5FB02460B4620463946FBF74CFAA3
:10559000FBF7E1FBA860E888FBF787FB0146304694
:1055A000FBF752F90446E86AFBF77FFB0746E888F9
:1055B000FBF77BFB01463846FBF701F90146204625
:1055C000FBF705F93146FBF7A9F8E86027E7FCF798
:1055D000ADF8C04600080050D80300200044004049
:1055E0007801002000240140001000B0002000B429
:1055F0009400002000300040F80200200F27000037
:10560000FF18000000200040A875FF1F2D23000890
:10561000A523000864000020FFFF0000474E5353FD
:10562000204C6F636174657200000000FD3C00084F
:105630006C0000204C6F636174696F6E204261736F
:10564000656420536572766963650000426569642C
:105650006F752B4750532B476C6F6E61737300004F
:105660004248385048472032303232005665723A4C
:105670000000000000000020CC0000206C0400208E
:105680000000084000FEAF400000F0419C00000018
:10569000A000000084B0F0B589B00EAC0FC4C5B254
:1056A0003F2040017A49412D049000D008460090E7
:1056B00000240A22204621461346FEF74BFA754F76
:1056C0003B6878680294744901910090412D01D0A3
:1056D00075A200E071A20C2001263146FEF70EFBF8
:1056E000413D681E8541F10372482A46FCF71EFEC3
:1056F0003A98FBF71CFB02460B4608AD6EA1284604
:1057000000F0B4FB3B687868009063480190029415
:10571000552031462A46FEF7F1FA3998FBF707FB88
:1057200005460E46664A674BFBF788FA0028069541
:105730000596079422D1049C00949B200027052203
:1057400003920A26394633465F4DA84700949420B9
:105750003946039A33465C4DA84700948D2039465C
:10576000039A3346584DA8470094079C8620394633
:10577000039A069D3346059E534FB847534A544BF0
:1057800028463146FBF75AFA002827D14C4A4D4BA0
:1057900028463146FBF768FA00281FD1049C009484
:1057A0009B2005250A2607992A463346464FB847C7
:1057B0000094942007992A463346434FB8470094F3
:1057C000079C8D2021462A463346B8470094862000
:1057D00021462A46069D3346059EB8473D4A3E4B24
:1057E00028463146FBF72AFA002826D1374A384B9B
:1057F00028463146FBF738FA00281ED1244800908D
:105800009B2005250A26304F21462A463346B847B5
:105810001F480090942021462A463346B8470094FA
:105820008D2021462A463346B847009486202146DB
:105830002A46069D3346059EB847264A264B2846EB
:105840003146FBF711FA00281CD11F20C00200903E
:105850009B2005250A261C4F21462A463346B84779
:105860000094942021462A463346B84700948D2060
:1058700021462A463346B8470094862021462A46C8
:105880003346B84709B0F0BC01BC04B00047C0467D
:10589000E0FF00006C000020FFFF0000474E535364
:1058A000204F4B2020000000474E535320574149C2
:1058B0005400000000080050252E316C66000000E6
:1058C000713D0AD7A3700F40553B000852B81E85A2
:1058D000EB510E40C3F5285C8FC20D4084B0FEB57D
:1058E00008AC0FC42F480068C00708AC2F4E002832
:1058F00024D133687068002500902B4F01970295E2
:1059000022465C3219201421294FB8473368706849
:105910000090254801900295723423202D212246C3
:10592000B8472448036840680295264901910090D1
:10593000452125A22846B84724A222E03368706892
:1059400000250090184F01970295224667321920D2
:105950001421174FB84733687068009012480190BF
:1059600002957B3423202D212246B8471148036835
:1059700040681F2100AA23C245210FA22846B8472C
:105980000EA20C4803684068002100900648019070
:1059900002917C204521FEF7B1F9FEBC01BC04B0A8
:1059A0000047C04674000020FFFF00006400002094
:1059B000FD3C00086C000020435354005554432B19
:1059C000380000001FF80000474D54005554432B89
:1059D0003000000084B010B5A8B02AAC0FC446480F
:1059E0000368406800210291CD49019100902AACE2
:1059F00022467B320D204321FEF780F92078412892
:105A00001CD1A0680021FBF70BF9002823D16069A5
:105A10000021FBF705F900281DD12046103069460A
:105A20000F4A036804300B600431043AF9D10FCCFB
:105A3000103CFEF78BFF207841280CD02046103018
:105A40006946074A036804300B600431043AF9D10F
:105A50000FCCFEF7D5FE28B010BC01BC04B0004747
:105A60009C00000083B0F0B586B004460BA80EC0C1
:105A70001F200090002545260A222846314613465D
:105A8000FEF768F81C4F3B68786802951B49019146
:105A900000900F201AA23146FEF730F90BA80678C5
:105AA0001C480078B04217D000950C210591A02722
:105AB0004423049328463A46FEF74CF815480670EE
:105AC0000095284605993A460B4F049BFEF742F88D
:105AD000E570A570657025703B6878680090074890
